:020000040800F2
:1000000078F5012071020008DB300008A32F0008FA
:10001000D9300008511D0008F1350008000000002B
:10002000000000000000000000000000DF300008B9
:10003000531D000800000000DD3000087531000885
:100040008B0200088B0200088B0200088B0200085C
:100050008B0200088B0200088B0200088B0200084C
:100060008B0200088B0200088B0200088B0200083C
:100070008B0200088B0200088B0200088B0200082C
:100080008B0200088B0200088B02000800000000B1
:100090000000000000000000000000008B020008CB
:1000A0008B0200088B0200088B0200088B020008FC
:1000B0008B020008D93100088B0200088B0200086F
:1000C0008B0200088B0200088B0200088B020008DC
:1000D0008B0200088B0200088B0200080000000061
:1000E0008B0200088B0200088B0200080000000051
:1000F0000000000000000000000000008B0200086B
:10010000000000008B0200088B0200088B02000830
:1001100000000000000000000000000000000000DF
:100120008B0200088B0200088B0200088B0200087B
:100130008B0200080000000000000000000000002A
:100140000000000000000000000000008B0200081A
:100150008B0200088B0200088B0200088B0200084B
:100160008B0200088B020008000000000000000065
:10017000000000000000000000000000000000007F
:10018000000000008B0200080000000000000000DA
:100190008B0200088B0200084B1C012B98BF704794
:1001A0002DE9F003911C9B08B1F80480B1F802908E
:1001B0000A8831F802CC8044814402448444D9F84E
:1001C0000070D8F800601568DCF80040C9F80060DD
:1001D000C8F80070CCF800501460D9F80470D8F852
:1001E00004605568DCF80440C9F80460C8F804707D
:1001F000CCF80450546008315B1ED5D1BDE8F00343
:1002000070474B1C012B98BF70472DE9F003911CE0
:100210009B08B1F80480B1F802900A8831F802CC4A
:1002200000EB580800EB590900EB520200EB5C0CA4
:10023000D9F80070D8F800601568DCF80040C9F8FB
:100240000060C8F80070CCF80050146008315B1EE4
:10025000DFD1BDE8F0037047DFF810D001F0D2FC29
:100260000048004791460008AFF3008078F5012070
:100270000648804706480047FEE7FEE7FEE7FEE740
:10028000FEE7FEE7FEE7FEE7FEE7FEE7793100085E
:10029000590200089FED3D0A5FEA920C57D000BF5B
:1002A000D0ED000A90ED011A0B1D60EEA00A083097
:1002B00041EE010AF5EEC00AF1EE10FAA6BFB1EE6A
:1002C000E01A81ED001A81ED000AD0ED000A90EDF0
:1002D000011A191D60EEA00A083041EE010AF5EE80
:1002E000C00AF1EE10FAA6BFB1EEE01A83ED001AD3
:1002F00083ED000AD0ED000A90ED011A0B1D60EEAF
:10030000A00A083041EE010AF5EEC00AF1EE10FA3B
:10031000A6BFB1EEE01A81ED001A81ED000A90ED62
:10032000001AD0ED010A191D21EE011A083000EE65
:10033000A01AB5EEC01AF1EE10FAA6BFF1EEC10A8E
:10034000C3ED000A83ED000ABCF1010CA8D112F044
:10035000030208BF704700BFD0ED000A90ED011AFC
:100360000B4660EEA00A091D083041EE010AF5EEC9
:10037000C00AF1EE10FAA6BFB1EEE01A83ED001A42
:1003800083ED000A521EE7D1704700000000000014
:1003900091ED000AD1ED010AD0F814C030EE001A38
:1003A00070EEA00A0088B6EE000A431E71EE201A15
:1003B00071EE600A0CF1080001EBC30C61EE801ACB
:1003C00060EE800A0831C2ED001AC2ED010A08325F
:1003D0009CED003A91ED001ADCED010AD1ED011A15
:1003E00073EE413AD0ED002A90ED012A30EEA14A99
:1003F00062EEA34A31EE031A62EE233A71EEE00A8E
:1004000022EE042A31EE241A62EE842A70EEA30A48
:10041000083031EE021A083170EEE20AACF1080C35
:1004200021EE001A60EE800A82ED001AC2ED010A88
:1004300008325B1ECCD17047D1ED000A91ED011A54
:10044000D0F814C0008870EE811A70EEC10AB6EEC2
:10045000000A431E61EE801A60EE800A0CF108006B
:10046000C2ED001AC2ED010A01EBC30C01F1080153
:1004700002F1080208BF7047DCED010A9CED003A6A
:1004800091ED002A91ED011A90ED004A72EE431AA7
:10049000D0ED013A71EE202A32EE032A64EE214AB1
:1004A00063EEA11A71EE600A23EEA25A32EE642ABC
:1004B00064EE222A70EEA10A083032EE452A083195
:1004C00070EEE20AACF1080C22EE002A60EE800A1F
:1004D00082ED002AC2ED010A08325B1ECCD17047C2
:1004E0002DE9F0410446008A1D004FEA50001646EF
:1004F0000F4620800AD02046FFF79EFF2A4631464D
:100500002046BDE8F041012300F040BC01232A460B
:10051000204600F03BFC324639462046BDE8F0411B
:1005200036E700004A08002302800182B2F5807F8E
:1005300031D008DC102A4FD0202A45D0402A3BD0A9
:10054000802A31D008E0B2F5007F1BD0B2F5806F71
:100550000FD0B2F5006F03D04FF0FF33184670474D
:100560004FF46E628281214A8260214A21494260B1
:1005700039E04FF4E16282811F4A82601F4A2049BC
:10058000426030E04FF4E07282811E4A82601E4A6F
:100590001E49426027E04FF4DC7282811C4A82606F
:1005A0001C4A1D4942601EE0D02282811B4A8260A3
:1005B0001B4A1C49426016E0382282811A4A826036
:1005C0001A4A1B4942600EE030228281194A826039
:1005D000194A1A49426006E014228281184A826050
:1005E000184A194942604161B8E70000CC28010867
:1005F00034D100080C860108BC1A010834B1000887
:100600000C6601083C17010834A100080C560108CB
:10061000CC130108349900080C4E01082C12010873
:10062000349500080C4A0108BC11010834930008F5
:100630000C4801085C110108349200080C470108BD
:1006400034110108B49100088C46010870B44FF0D1
:10065000000CB0EC010A4E1E6446B50832D000BF53
:10066000D0ED000A90ED011A0830B4EEE00AF1EE88
:1006700010FA3CBFB0EE600A0CF10104B4EEC10AFE
:10068000F1EE10FA3CBFB0EE410A0CF10204D0EDDD
:10069000000A90ED011A0830B4EEE00AF1EE10FA0B
:1006A0003CBFB0EE600A0CF10304B4EEC10AF1EEF7
:1006B00010FA3CBFB0EE410A0CF104046D1E0CF1BF
:1006C000040CCDD116F0030C18D0BCF1004F1AD297
:1006D000BCF1000FC4BF002566460FDDD0ED000A57
:1006E000F4EEC00AF1EE10FA04DD4C19B0EE600A27
:1006F000A4EB0C04001D6D1C761EEFD182ED000AE8
:100700001C6070BC7047F0EC010AB4EEE00AF1EE38
:1007100010FA3CBFB0EE600AA1EB0C04BCF1010C76
:10072000F1D1EBE79FED220A8B0812D090ED002A61
:1007300090ED011AD0ED020A30EE020AD0ED031A54
:1007400010305B1E30EE010A30EE200A30EE210A36
:10075000ECD111F003031AD0B3F1004F20D2002BDB
:1007600015DD001F13F0010F04D0D0ED010A001DAC
:1007700030EE800A5B080AD0D0ED010A30EE800A24
:10078000D0ED020A08305B1E30EE800AF4D100EE94
:10079000901AF8EE600A80EE201A82ED001A704777
:1007A000F0EC010A5B1E30EE800AF9D1EFE70000A1
:1007B000000000002DE9F04106462DED028B8C462D
:1007C0000088736801EB80044508274601EB85002B
:1007D00004EB85025FEA95087DD000BFD1ED003AB9
:1007E000D4ED001A91ED012A94ED013A73EEA16A5D
:1007F00091ED024A91ED031AD4ED022AD4ED035A89
:1008000090ED008A90ED017A90ED020A90ED036A76
:1008100092ED005AD2ED014AD2ED027AD2ED030AEE
:10082000C1ED006A72EE036A73EEE13A74EEC71A24
:10083000C1ED016A74EE226A74EE622A37EEC04A94
:10084000C1ED026A71EE256AC1ED036A72EE436A78
:1008500031EE652A38EE051A35EE483A80ED001A79
:1008600037EE241A80ED011A30EE271A80ED021AB5
:1008700036EE201A80ED031A30EEC61A93ED000A08
:10088000D3ED010A63EE804A26EEA05A66EE805A46
:1008900063EEA03A74EE854A75EEE33AC4ED004A81
:1008A00063EE204AC4ED013A61EE803A61EEA00A9F
:1008B00023EE000A74EEE31A30EE800AC2ED001A4D
:1008C00082ED010A93ED020AD3ED030A62EE803A4B
:1008D00022EE203A00E024E062EEA01A22EE002A86
:1008E00073EE832A1030103172EE611AC4ED022AC1
:1008F00024EE202AC4ED031A61EE001A61EE200AEC
:1009000024EE000A103332EE611A103430EE800A01
:1009100082ED021A82ED030A1032B8F101087FF469
:100920005DAF294602236046726800F0D5FA72680E
:100930002946BDEC028B3846BDE8F041022300F0A9
:10094000CBBA2DE9F34F2DED048B87B00B980088BF
:10095000470801EB870000EB870606EB8705CDE92A
:100960000056DDF82C80A5F1040C0CEB8703CDE9D3
:1009700002014FEA5709D8F804800427CDE904970B
:10098000D1ED000A96ED000A90ED011A95ED013ABD
:1009900070EE802A70EEC03AD1ED010A96ED010AA0
:1009A000041F321F30EE802A70EEC01A31EE230A87
:1009B000D0ED000A32EE415A33EEC11A30EE434A0E
:1009C00071EEE04A95ED000A70EEA11A35EE435A39
:1009D00074EE805A72EEE04A70EEA20A71EEC01A0E
:1009E00031EE031A74EEC04A30EE800A062708F191
:1009F000080A81ED000A90ED010AD5ED010A08F11F
:100A0000100B30EE020A08F1180830EE200A81EDD2
:100A1000010A80ED004AC0ED015AC6ED004A86ED9C
:100A2000015A85ED001AC5ED011ADDF81090083065
:100A3000083108350836A9F102095FEA590900F0C2
:100A4000078100BFD1ED000A96ED000AD0ED011A32
:100A5000D5ED014A30EE802A30EEC05AD1ED010AC0
:100A600096ED010A70EE802A30EEC01A31EE850A4A
:100A7000D5ED000A30EE644A90ED000A31EE403ABE
:100A800030EE011A73EE205A32EE403A30EE020A8E
:100A900031EE601A73EE603A30EE200A32EEE13A3F
:100AA00075EE611A81ED000A90ED010AD5ED010A9B
:100AB00033EE643A30EE220A71EEA41A30EE200AC8
:100AC00081ED010AD4ED002ADCED004A54ED010A63
:100AD0001CED010A32EEA47A32EEE49A72EEE42AB8
:100AE00052ED018A70EE807A30EEC02A72EEE82A6A
:100AF000D2ED000A93ED000A13ED018A30EEC05AE0
:100B000072EE886A77EEE82A35EE026A32EEC85A4B
:100B100077EE602A72EEC04A70EEC02A70EE870A45
:100B200072EEC22A30EE800A38EE682A84ED000A9E
:100B300012ED010A53ED010A32EE492A30EE270A7E
:100B400030EE200A04ED010A9AED000ADAED010AFE
:100B500064EE007A25EEA07A65EE805A24EE204AF3
:100B600037EE877A35EEC44A80ED007A80ED014A8F
:100B700026EEA04A66EE005A66EE200A26EE800AAD
:100B8000083034EE654A083130EE800A82ED004AC2
:100B9000083C02ED010A9BED000ADBED010ADDF8DD
:100BA00014E023EE804A63EE205A23EE003A63EE0F
:100BB000A03A083A34EE254A0BEB8E0B33EE633A3B
:100BC00086ED004A0AF1080A86ED013AB1EE643A70
:100BD000083663EE003A25EE203A25EE000A64EE70
:100BE000A00A33EEC33A30EEC00A8CED003A0CEDA9
:100BF000010A98ED000AD8ED010A08EB870861EEBA
:100C0000803A21EE203A21EE001A61EEA01AACF1F2
:100C1000080C33EE833A31EE611A85ED003A62EE4C
:100C2000801A85ED011A22EE201A62EEA00A22EE49
:100C3000000A083531EE611A30EE800A83ED001AA1
:100C400003ED010A083BB9F101097FF4FBAE00BFD7
:100C5000D1ED000A96ED000A91ED011AD0ED015A8E
:100C600030EE802A70EEC00A96ED010A95ED015A29
:100C7000042371EE001A71EE404A35EEA00A90EDA1
:100C8000001A31EEE54A70EEE50A30EE453A95ED90
:100C9000000A34EE454A30EE855A74EEC12A72EEEF
:100CA000413A71EE240A31EE021A72EE802A73EE96
:100CB000C03A70EEC00A31EE000A81ED000A90EDF4
:100CC000010A95ED011A30EE210A30EE010A81ED9C
:100CD000010A9AED000A9AED011A63EE001A22EE5B
:100CE000812A22EE800A23EE011A71EE821A30EE7A
:100CF000410AC0ED001A80ED010A9BED000A9BED50
:100D0000011A63EE801A24EE012A24EE000A23EE73
:100D1000811A71EE821A30EE410AC6ED001A86ED94
:100D2000010A98ED010A98ED001A60EE801A25EE8E
:100D3000012A60EE810A25EE000A32EE211A30EE19
:100D4000C00A85ED001A85ED010A0B984268DDE9BD
:100D5000030100F0C1F80B9804230499426802983B
:100D600000F0BAF80B98042304994268019800F047
:100D7000B3F80B98049904234268009807B0BDECBF
:100D8000048B02B0BDE8F04F00F0A6B82DE9F041A9
:100D90000488984617460D460646012A20D1281D8C
:100DA000F4B1A0F1080114F0010F06D091ED020A90
:100DB000B1EE400A81ED020A08315FEA540C0FD00F
:100DC00091ED020AB1EE400A81ED020A91ED040AAA
:100DD000B1EE400A81ED040A1031BCF1010CEFD1F3
:100DE000B4F5807F1BD008DC102C13D0202C16D03B
:100DF000402C19D0802C0DD01CE0B4F5007F13D00E
:100E0000B4F5806F06D0B4F5006F08D0B4F5805FFC
:100E10000AD00FE029463046FFF7CCFC0AE029460D
:100E20003046FFF78EFD05E0214601232846726813
:100E300000F052F8B8F1000F04D0B1892846B2682A
:100E4000FFF7AAF9012F18BFBDE8F08100EE104AA4
:100E5000B7EE001A002CF8EE400A81EE200A08BF17
:100E6000BDE8F081A5F1080014F0010F0ED0D0ED1F
:100E7000020A60EE800AC0ED020AD0ED030AF1EE2C
:100E8000600A60EE800AC0ED030A0830610808BFFE
:100E9000BDE8F081D0ED020A60EE800AC0ED020AE2
:100EA000D0ED030AF1EE600A60EE800AC0ED030A9D
:100EB000D0ED040A60EE800AC0ED040AD0ED050A08
:100EC000F1EE600A60EE800AC0ED050A1030491E9E
:100ED000E0D1BDE8F08100002DE9FF4F2DED108B32
:100EE00082B09FEDFEFA0B461C46DB084FF0000C6B
:100EF0000CEB030505EB030808EB030909EB0306FC
:100F000006EB030A00EBCC0700EBC60697ED001AD0
:100F1000D6ED000A0AEB030B00EBC50500EBCA0A8D
:100F200031EE200A71EE601A95ED002ADAED000A22
:100F30000BEB030E00EBC80832EE201A00EBCB0BD4
:100F400032EE602AD8ED002ADBED000A00EBC90979
:100F500000EBCE0E99ED003A9EED004A72EEA03AFB
:100F600072EEE02A73EE040A33EE443A70EE636ADE
:100F700070EE233A31EE600A71EE200A33EEA01AC9
:100F800073EEE00A87ED001AC6ED000A97ED011A2C
:100F9000D6ED010AD5ED013A98ED014A31EE206A0D
:100FA00071EE600A9AED011A99ED015A73EE814AC9
:100FB00073EEC13A9BED011A34EE017A34EE411A18
:100FC0009EED014A75EE045A35EE444A36EE475A14
:100FD00036EE076A34EEE57A74EEA54A76EE245AC8
:100FE00076EE644AC7ED015AC6ED014A76EE874AAD
:100FF000C8ED004A76EEC74ACBED004A75EE404A8E
:1010000035EE000AC8ED014A8BED010A32EE430AC3
:1010100032EE032A20EE0F0A62EE0F4A33EEC42AA4
:10102000A4448C4522EE0F3A33EE842A30EEC34AB4
:1010300062EE0F3A30EE833A31EEC02A31EE800A8A
:1010400071EE630A31EE231A72EEE41A72EEA42AEC
:1010500070EE013A30EE410AC5ED003A8EED000A1D
:1010600032EE200A8AED000A32EE600A89ED000AAB
:1010700033EE620A85ED010A33EE220A8EED010A93
:1010800034EE610A8AED010A34EE210A89ED010A83
:10109000FFF42EAF082B3FBF02B0BDEC108B04B0A5
:1010A000BDE8F08F4FF0000CCDF804C04FF0010CFC
:1010B000CDF800C0DDF804C0159DAC444FEA8C05A6
:1010C00005EB0C07CDF804C007EB0C094FEA4C0800
:1010D00008EB0C0609EB0C0A02EBCC0C02EBC8087F
:1010E00002EBC60602EBC50502EBC70702EBC90916
:1010F00002EBCA0A9CED00DA9CED018AD8ED00CA29
:1011000096ED00CAD5ED00BA97ED00BAD9ED00AA68
:10111000DAED008AD8ED017A96ED01AA95ED017A13
:10112000D7ED016A99ED016ADAED019ADDF800C0A8
:101130000CEB0307FD1805EB030A0AEB030808EBA9
:10114000030606EB030B00EBCC0900EBC808D9ED56
:10115000000A98ED000A00EBC70700EBC606D7EDC2
:10116000001A96ED001A70EE803A0BEB030E70EE4B
:10117000C00A31EE810A00EBC50500EBCB0B31EE66
:10118000C11AD5ED001A9BED002A00EBCA0A00EB4C
:10119000CE0E31EE824A71EEC21A9AED002ADEEDD1
:1011A000002A32EE223A32EE622A73EEC42A73EE3D
:1011B000843A30EE435A30EE030A33EE803A73EE4F
:1011C000C0DA89ED003A99ED010A98ED013AD7EDC0
:1011D000013A95ED014A70EE03EA30EE433A96ED9E
:1011E000010A9AED01EADEED014A33EE809A73EED0
:1011F000C03A9BED010A74EE005A34EE404A3EEECE
:10120000240A7EEE644A3EEEE5EA7EEEA55A79EEC9
:1012100040EA39EE009A32EEAE0A72EEEE2A75EE30
:1012200089EA35EEC99A7EEE455AC9ED01EA3EEEED
:10123000055A2BEEADEA67EE09EA2BEE899A67EEC6
:101240002DDA3EEE2EEA39EE6D9A88ED00EA67EE71
:10125000A5DA88ED019A2CEE809A6CEEA55A27EE5D
:10126000800A39EE2D9A35EEC00A85ED009A66EEB9
:10127000055A85ED010A2AEEA20A2AEE855A66EE83
:10128000222A30EE250A8BED000A35EE620A73EE53
:10129000A42A8BED010A31EE420A31EE021A33EE36
:1012A000E42A62EE8F3A20EE0F0A21EE0F1A22EEA8
:1012B0000F2A70EEC02A30EE800A71EEC10A71EE7C
:1012C000811A33EE421A33EE022A34EE633A34EED8
:1012D000234A70EE043A30EE444A01E0F304353F0D
:1012E00072EE834A72EEC32A32EE613A32EE210A7E
:1012F00071EE601A71EE200A2DEE232A28EE031AF1
:101300002DEE033A68EE233AA44432EE011A28EE99
:10131000842A8C4587ED001A33EE631A29EE843A4D
:1013200087ED011A29EE801A28EE800A32EE011AA2
:1013300030EE430A26EEA42A8EED001A8EED010A45
:101340002BEE240A26EEA11A6BEE211A30EE010ACA
:101350002CEE221A86ED000A31EEC20A6AEE221A3B
:1013600086ED010A2AEE200A6CEE200A31EE000A10
:101370008AED000A30EEE10A8AED010AFFF4D8AEE8
:10138000DDF800C00CF1010CCDF800C063453FF65C
:1013900091AEDDF854C04FF6FF7404EACC0CCDF8E2
:1013A00054C0072B3FF6A0AD02B0BDEC108B04B0CB
:1013B000BDE8F08F2DE9F05F0546002092469B4680
:1013C00088460646814640241BE02846414647465B
:1013D000224600F0B4FA53465A46C01A914110D33F
:1013E00011461846224600F09BFA2D1A67EB0108B9
:1013F0004F4622460120002100F092FA17EB000927
:101400004E41201EA4F10104DFDC484631462A4645
:101410004346BDE8F09F40EA01039B0703D009E083
:1014200008C9121F08C0042AFAD203E011F8013BD0
:1014300000F8013B521EF9D27047D2B201E000F829
:10144000012B491EFBD270470022F6E710B5134668
:101450000A4604461946FFF7F0FF204610BD10B5B6
:101460004843044603F002FA002805D00021002C6E
:1014700002D0641E0155FAE710BD2DE9FE4F8046EB
:1014800081EA0300C00F0C46009021F0004123F0D8
:101490000045B8EB0200A94105D2404621469046DE
:1014A0001C460B46024623F00040104347D0270D50
:1014B000C7F30A00C3F30A510290401A0190402872
:1014C0006BDAC3F3130040F4801B0098924620B1FE
:1014D0000023D2EB030A63EB0B0B01985946C0F1D2
:1014E0004002504600F01CFA06460D46504659464A
:1014F000019A00F034FA10EB08006141002487EAF9
:10150000115284EAE7731A4340D0009A62B3019AF9
:10151000012A4FEA075215DC001B61EB02014FF074
:10152000004202EA0752CDE90042001C41F5801159
:1015300032462B4600F06BFA03B0BDE8F08F404610
:101540002146F9E7001B61EB0201001C41F5801305
:1015500000185B412018A2F5001747EB030140EA91
:10156000D570B6196D4111E06D084FEA360645EAAF
:10157000C0754FEA0752001B61EB0201001C41F5E8
:10158000801149084FEA30000019514132462B467C
:1015900003B0BDE8F04F00F02BBA009801224000E4
:1015A0000023D0EB020263EBE073009821464FEA80
:1015B000E074B8EB000061EB0401E9E783F000435D
:1015C0005BE781F0004158E72DE9FE4F81EA030413
:1015D00004F0004421F0004100944FF0000B23F090
:1015E000004350EA01045ED052EA03045BD0C3F327
:1015F0000A54C1F30A552C44A4F2F3340194A0FB1D
:101600000254C1F3130141F48011C3F3130343F4F3
:10161000801301FB024400FB034E840A970A44EA4C
:10162000815447EA8357A4FB076802958D0A05FB9E
:1016300007854FEA932C04FB0C542705029D4FEAC3
:10164000065847EA1637B5EB08056EEB070C870E10
:10165000920E47EA811742EA8312A7FB0201B6EB1A
:101660000B0164EB00042B0D43EA0C335E1844EBD2
:101670001C50DA465146E7FB0201C5F313044FEA5A
:101680000B3343EA14534FEA0432019C43EA060346
:10169000A4F10C040294009CCDE900B400F0B7F969
:1016A00003B0BDE8F08F00200146F9E72DE9F04DC9
:1016B00081EA030404F0004B21F0004514464FF08A
:1016C000000A23F0004150EA050220D054EA01024A
:1016D0001DD0C5F30A570246C5F31303C1F3130027
:1016E000C1F30A5640F4801543F48013A7EB0608B3
:1016F000101BD64608F2FD3873EB050002D308F143
:10170000010801E092185B41B8F1000F03DA0020F4
:101710000146BDE8F08D00204FF480110646844656
:101720000EE0171B73EB050705D3121B63EB0503D4
:1017300006434CEA010C49084FEA300092185B411D
:1017400050EA0107EDD152EA030012D082EA040008
:1017500083EA0501084305D0101BAB4106D20122E4
:10176000002306E000224FF0004302E06FF0010288
:1017700053101AEB06004CEB085110EB0A0041EB3A
:101780000B01BDE8F04D00F033B90EB5C10F80EA92
:10179000E0700844CA07002140F233438DE80E0090
:1017A0000A460B4600F033F903B000BD0EB540F217
:1017B000334102910021CDE900110A460B4600F0A9
:1017C00026F903B000BD70B5C1F30A5201F000451F
:1017D0000024C1F3130140F2FF3341F480119A4217
:1017E00001DA002070BD40F233439A42A2F2334244
:1017F00003DC524200F0A3F800E090402C43F1D00B
:10180000404270BDC1F30A5210B5C1F3130140F25A
:10181000FF3341F480119A4201DA002010BD40F2FA
:1018200033439A42A2F2334203DC524200F087F87B
:1018300010BD904010BD00F0004230F000400AD0D2
:10184000C10D01F56071C0F3160042EA0151C208F2
:1018500040071143704700200146704730B5041E11
:1018600071F1000404DB4FF00044404264EB0101DD
:10187000141E73F1000405DB1C464FF00043524276
:1018800063EB04038B4208BF824230BD30B5041EB7
:1018900071F1000404DB4FF00044404264EB0101AD
:1018A000141E73F1000405DB1C464FF00043524246
:1018B00063EB0403994208BF904230BD01F000433E
:1018C00030B421F0004150EA010206D00A0DA2F521
:1018D0006072C1F31301002A02DC30BC00207047A3
:1018E000440F44EAC104C100E01830BC00EBC25010
:1018F00000F047B830B50B460146002020220124F5
:1019000009E021FA02F59D4205D303FA02F5491BCD
:1019100004FA02F52844151EA2F10102F1DC30BDE3
:10192000202A04DB203A00FA02F10020704791409F
:10193000C2F1200320FA03F3194390407047202A94
:1019400004DB203A21FA02F00021704721FA02F369
:10195000D040C2F120029140084319467047202A26
:1019600006DBCB17203A41FA02F043EAE07306E0C7
:1019700041FA02F3D040C2F12002914008431946D7
:1019800070470029A8BF7047401C490008BF20F0DD
:101990000100704710B4B0FA80FC00FA0CF050EA75
:1019A000010404BF10BC704749B1CCF1200421FAF6
:1019B00004F411FA0CF118BF012121430843A3EBF1
:1019C0000C01CB1D4FEA00614FEA102042BF0020FE
:1019D00010BC704700EBC35010440029A4BF10BCDA
:1019E0007047401C490008BF20F0010010BC704740
:1019F00010B5141E73F1000408DA401C41F1000117
:101A000092185B411A4301D120F0010010BD2DE96D
:101A1000F04D92469B4611B1B1FA81F202E0B0FA64
:101A200080F220329046FFF77BFF04460F4640EAE3
:101A30000A0041EA0B0153465A46084313D01146A7
:101A400053EA010019D0C8F140025046FFF777FF72
:101A500005460E46504659464246FFF761FF084389
:101A600005D0012004E020463946BDE8F08D002075
:101A7000054346EAE0762C4337430A986305E40AB7
:101A8000A0EB08000022FD0A44EA47540A3002D5C0
:101A900000200146E9E7010510196941DDE9084523
:101AA00000196941BDE8F04DA2E72DE9F04D002392
:101AB0001A461B1A8A4103DB00200146BDE8F08D5F
:101AC000C1F30A52C1F3130141F480154FF0000B2A
:101AD000D10702D100186D41521E0027044640F282
:101AE000FF11384601EB620A3E468046024600205E
:101AF0004FF48011FFF723FFC2197141BB1846EB69
:101B00000100B4EB030C75EB000C04D3E41A65EB95
:101B1000000517460E46241908F101006D41804664
:101B20003428E3DDF91946EB0600091BA84103D26E
:101B30004FF0FF32134601E0002213461BEB070073
:101B400046EB0A51BDE8F04DFFF752BF2DE9F041D9
:101B5000054621F000400C46284309D0C4F30A5042
:101B600040F23341884205DD28462146BDE8F08138
:101B70002846FBE740F2FE31884210DC0CDB4FEADE
:101B8000043040EA155050EA053105D0104804F001
:101B9000004101430020E9E700200146E6E7A0F20A
:101BA00033404642C6F1400228462146FFF7B8FEC0
:101BB00007468846284621463246FFF7C0FE434680
:101BC0003A46FFF715FF3246BDE8F041FFF7A8BEE1
:101BD0000000F03FC1F30A52C1F3130140F2FF339A
:101BE00041F480119A4202DA00200146704740F227
:101BF00033439A42A2F2334202DC5242FFF79FBEC5
:101C0000FFF78EBE064C074D06E0E06840F001038A
:101C100094E8070098471034AC42F6D3FEF720FB57
:101C20000CC601082CC60108464910B54A6822F4C2
:101C300040324A604A6843681A434A6001684A6809
:101C400022F480724A6001684A68036942EA03220A
:101C50004A6001684A6822F040724A6001684A6836
:101C600083681A434A6001688A6822F400628A60C5
:101C700001688A68C3681A438A60816A6FF070627B
:101C8000D14201688A6822F070628A6001688A68BD
:101C90000CD0836A1A438A6001688A6822F0405235
:101CA0008A6001688A68C36A1A4301E022F04052E0
:101CB0008A6001688A6822F002028A6001688A6884
:101CC000037E42EA43028A6090F8201000290168EE
:101CD0004A680FD042F400624A6001684A6822F400
:101CE00060424A6001684A68174C436A04EB433318
:101CF0001A4301E022F400624A600168CA6A22F4D1
:101D00007002CA620168CA6A838B104C04EB0353E9
:101D10001A43CA6201688A6822F400728A60016804
:101D20008A6890F8303042EA43228A6001688A6803
:101D300022F480628A6001688A68406942EA8020F1
:101D4000886010BD0023014000E0FFFF0000F0FFAD
:101D5000FEE77047704700697047002101614168E4
:101D60008160C160704770B5002321E00469002CD8
:101D700020D04668C568AE1BB4EB660F04D9066870
:101D8000341B05EB440401E0A5EB44048460248883
:101D900021F8024B8468A41C846005696D1E0561EE
:101DA000D0E9006505EB4606A64200D885605B1CBD
:101DB0009342DBD370BD70B5002316E0046805695B
:101DC000641EA54213D8C56831F8024B2C80C46844
:101DD000A41CC46005696D1C0561D0E9006505EBB4
:101DE0004606A64200D8C5605B1C9342E6D370BD90
:101DF00003B5012201A9FFF7DEFF0CBD10B50648AF
:101E000000F064F90A21044800F00EF9024800F0DD
:101E1000B7F880B210BD0000B080002078B5002473
:101E2000009490F83C20012A19D0012280F83C202F
:101E30000A6807230568092A13D9EE680A3A02EBF3
:101E4000420293409E43EE600B788A680A3B03EBA4
:101E500043039A400368DD682A43DA6010E00220F9
:101E600078BD2E6902EB420293409E432E610B78AF
:101E70008A6803EB43039A4003681D692A431A6189
:101E80004A681F23072A13D205686E6B521E02EBA5
:101E9000820293409E436E630A8893B20A79521E6F
:101EA00002EB820293400268556B2B43536327E099
:101EB00005680D2A12D22E6BD21F02EB82029340CC
:101EC0009E432E630B790A88DB1F92B203EB8303D8
:101ED0009A4003681D6B2A431A6311E0EE6A0D3ABB
:101EE00002EB820293409E43EE620B790A880D3B1F
:101EF00092B203EB83039A400368DD6A2A43DA62F5
:101F00001B4B0568194A9D420AD10D68122D07D155
:101F1000556825F400055560556845F48005556001
:101F200005689D421DD1134D0B68AB4201D0112BAA
:101F300017D1536823F480035360536843F40003BC
:101F400053600968A9420CD10B490C4A0968B1FBDE
:101F5000F2F101EB8101490000E0491E00910029E6
:101F6000FBD180F83C40002078BD000000230140F8
:101F700000200140120000105C00002040420F00D1
:101F80000068C06C704770B504004FF0000503D0C6
:101F9000206C002610B107E0012070BD204600F043
:101FA0001DF8666484F83C60206CC00610D4206C78
:101FB00020F4885040F0020020642046FFF734FEF1
:101FC0006664206C20F0020040F00100206400E014
:101FD000012584F83C60284670BD0000104800B51B
:101FE000026887B0002142F480720260006800F449
:101FF000807005900A481438026842F001020260BD
:10200000006800F001000590202000900320CDE939
:1020100001016946034800F0DDF807B000BD00008B
:1020200044380240000002402DE9F04104460068B7
:102030000D4681684FF0000749050BD58068C00543
:1020400008D5206C40F02000206484F83C7001200A
:10205000BDE8F08100F094F906460FE0681C0DD051
:1020600025B100F08DF9801BA84207D9206C40F003
:102070000400206484F83C700320E9E720680068CD
:102080008007EBD521686FF012000860206C40F4E7
:10209000007020642068816811F0405F13D1217EB8
:1020A00089B9C16A11F4700F02D0806840050AD462
:1020B000206C20F480702064206CC00403D4206C59
:1020C00040F0010020640020C2E7000018B50021A4
:1020D000009190F83C20012A07D0012280F83C2092
:1020E00002689368DB0702D011E0022018BD9368F4
:1020F00043F001039360204A204B1268B2FBF3F2D5
:1021000002EB420200E0521E0092002AFBD102685C
:102110009368DB072DD0036C40F20164A34343F4C2
:102120008073036453685B0505D5036C23F4005387
:1021300043F480530364036CDB0404D5436C23F045
:102140000603436400E0416480F83C100C496FF0E2
:102150002203136049680068C90602D00949884211
:1021600007D1816811F0405F03D1816841F080415F
:102170008160002018BD00005C00002040420F007C
:10218000002301400020014010B5040002D0607916
:1021900010B106E0012010BD00202071204600F0A3
:1021A00005F801206071002010BD000008B500682E
:1021B0000649884208D10648016841F4805101600F
:1021C000006800F48050009008BD0000003002401C
:1021D000303802402DE9F84F00224FF00108032566
:1021E0004FF00F0E0B6808FA02F42340A34271D19E
:1021F0004E68012E05D0022E03D0112E01D0122ED2
:1022000015D18668570005FA07FC26EA0C06D1F8B6
:102210000CC00CFA07FC4CEA060CC0F808C0466873
:10222000A6430C79C4F30014944034434460C66858
:10223000570005FA07FC8C6826EA0C06BC403443BC
:10224000C4604C68022C01D0122C13D1D40800EBCE
:102250008404A346D4F8209054074FEAD46A0EFAB7
:102260000AF629EA06090E6906FA0AF646EA090696
:10227000CBF8206004680E7924EA0C0406F003060B
:10228000BE40264306604C68E40056D52E4C2668B6
:1022900046F480462660246822F0030604F4804455
:1022A00000942A4C3444A446D4F808489607370FC3
:1022B0000EFA07F6B443264EB04201D1002615E0CF
:1022C000244EB04201D1012610E0234EB04202D18B
:1022D00002260BE031E0214EB04201D1032605E099
:1022E0001F4EB04201D1042600E00726BE4026431F
:1022F000CCF808681B4E34684F689C43FF0300D538
:102300001C433460174E361D34684F689C43BF032E
:1023100000D51C433460134E083634684F689C4324
:10232000FF0200D51C4334600E4E0C3634684F68F3
:102330009C43BF0200D51C433460521C102AFFF49A
:1023400051AFBDE8F88F0000443802400030014032
:10235000000002400004024000080240000C02405D
:1023600000100240003C01400AB18161704709043D
:10237000FBE7000001480068000C7047002004E003
:1023800001488068704700005000002002488168C2
:102390000278114481607047500000200B4810B54E
:1023A000016841F400710160016841F480610160DD
:1023B000016841F480710160032000F06FF8002093
:1023C00000F006F800F024F8002010BD003C0240A8
:1023D00070B50D4D04464FF47A712878B1FBF0F0DA
:1023E0000A490968B1FBF0F000F010FB48B9102C65
:1023F00007D200222146501E00F030F800206C6009
:1024000070BD012070BD0000500000205C00002065
:102410000A4808B5016841F480410160006800F491
:10242000804000900548001F016841F08051016024
:10243000006800F08050009008BD00004438024061
:10244000002809DB00F01F020121914040098000B3
:1024500000F1E020C0F8001170470000F0B40E4B0E
:102460001B680C46C3F30223C3F10705042D00D9F2
:102470000425191D072901D2002300E0DB1E0126D7
:1024800006FA05F1491E214099409E40761E1640ED
:102490003143F0BC01F0DAB80CED00E0064900F081
:1024A000070208684FF6FF03184040EA0220034A7B
:1024B00010430860704700000CED00E00000FA05D2
:1024C0002DE9F0470E46050065D0DFF81481D8F8F5
:1024D0000000F7B200F00F00B04207D288F8007099
:1024E000D8F8000000F00F00B04254D128683D4CED
:1024F000810712D5400703D5206840F4E0502060E2
:102500002878000703D5206840F4604020602068E8
:10251000A96820F0F000084320602878C0072DD07B
:10252000304968680839012812D0022813D00328DE
:1025300011D00968890700292DDA216821F00301EB
:1025400001432160FFF71CFF814641F2883A0EE00B
:1025500009688903EFE709688901ECE7FFF710FFD5
:10256000A0EB0901514502D90320BDE8F08720689E
:10257000696800F00C00B0EB810FEFD1D8F80010C3
:10258000404601F00F01B14207D90770006800F022
:102590000F00B04201D00120E7E72878400705D5B9
:1025A0002068E96820F4E05008432060287800079C
:1025B00006D52068296920F4604040EAC100206007
:1025C00000F038F82168084AC1F30311515CC84093
:1025D0000649086006480068FFF7FAFE0020C4E7D5
:1025E000003C0240083802409C9100085C0000203A
:1025F000540000200448054900680968044AC1F3F2
:102600008221515CC84070475C00002008380240BD
:10261000AC9100080448054900680968044AC1F300
:102620004231515CC84070475C00002008380240CD
:10263000AC910008154810B5006810F00C02144861
:1026400013D01449042A0FD0082A0ED10F4C241F8E
:102650002268236802F03F025B0207D52068C0F3BE
:102660008810A0FB010106E0084610BD2168C1F3F7
:102670008811A1FB00010023FEF79CFE2168C1F335
:102680000141491C4900B0FBF1F010BD083802407F
:102690000024F40040787D012DE9F84F04006ED04D
:1026A0002078DFF83C93C007A9F104054AD009F16E
:1026B00004000168C1F38101012908D00068C0F35A
:1026C000810002280AD1D9F80000400206D5286806
:1026D000800337D560680028E1D033E06068B0F54A
:1026E000803F10D0B0F5A02F286810D020F48030A3
:1026F0002860286820F4802028606068A8B1FFF76F
:102700003FFE06460DE0286840F48030F4E740F4D0
:1027100080202860F7E700BFFFF732FE801B6428A7
:1027200073D828688003F7D50CE0FFF729FE06462A
:1027300005E000BFFFF724FE801B6428F0D828685E
:102740008003F7D42078DFF89C8280074FF0000ADE
:102750003ED5A348001D016811F00C0F08D0006899
:10276000C0F3810002280BD1D9F80000400207D441
:102770002868800716D5E068012800D112E02BE117
:10278000E068B8B10120C8F80000FFF7F9FD06467F
:1027900005E000BFFFF7F4FD801B0228C0D82868C1
:1027A0008007F7D52868216920F0F80040EAC100C9
:1027B00028600DE0C8F800A0FFF7E2FD064604E03F
:1027C000FFF7DEFD801B02281FD828688007F7D49A
:1027D0002078000722D5824E83486169703671B136
:1027E00001210160FFF7CCFD074604E0FFF7C8FDBB
:1027F000C01B022809D830688007F7D50EE0C0F862
:1028000000A0FFF7BDFD074605E082E0FFF7B8FD39
:10281000C01B02287DD830688007F7D42078400795
:1028200068D5DFF8BCB100270BF13C0BDBF80000EA
:10283000C0000BD4DBF8001041F08051CBF8001041
:10284000DBF80000012700F080500090674E3068F0
:10285000C00510D4306840F480703060FFF790FD00
:10286000009005E0FFF78CFD0099401A022850D82F
:102870003068C005F6D55A4EA0686C3601280FD0D6
:102880000528306810D020F001003060306820F05A
:1028900004003060A068B8B1FFF772FD00900FE04F
:1028A000306840F00100F4E740F004003060F7E7E2
:1028B000FFF766FD0099411A41F28830814266D8DF
:1028C00030688007F4D50EE0FFF75AFD009007E06E
:1028D000FFF756FD0099411A41F28830814256D8DF
:1028E00030688007F4D42FB1DBF8001021F080515C
:1028F000CBF80010A069C8B33949091D0968C1F3B4
:10290000810102294AD00228504607D0C8F8600049
:1029100000E03CE0FFF734FD04463BE04746C8F8E2
:102920006000FFF72DFD064605E000BFFFF728FD1C
:10293000801B02282BD828688001F7D4D4E907012E
:102940000843A16A2A4A490802EB0141626A41EA46
:102950008211084394F82C1040EA0161C9F8001074
:1029600001203866FFF70CFD044606E036E000BFA4
:10297000FFF706FD001B022809D828688001F7D55B
:102980002CE000BFFFF7FCFC001B022802D903204B
:10299000BDE8F88F28688001F4D41FE00128F7D043
:1029A000D9F80000E26900F48001914214D1226A52
:1029B00000F03F0191420FD147F6C071626A0140B9
:1029C000914209D1A26A00F44031914204D1E16AF6
:1029D00000F07060884201D00120D9E70020D7E7DD
:1029E0000438024000004742800E47420070004019
:1029F0000000FFFF4FF0E0210428086903D020F019
:102A000004000861704740F00400FAE710B5401E6A
:102A1000B0F1807F01D3012010BD4FF0E024606150
:102A20000F21601700F012FE0020A0610720206136
:102A3000002010BD7047704710B5040003D094F813
:102A40003D0010B107E0012010BD002084F83C00DB
:102A5000204600F00DF8022084F83D00211D20687A
:102A600000F0F8FB012084F83D00002010BD0000BC
:102A700008B500680B49884212D10B48016841F043
:102A8000020101600068032200F0020000900121B1
:102A90001D20FFF7E3FCBDE808401D20FFF7D0BC78
:102AA00008BD000000040040403802400168CA68C8
:102AB00042F00102CA600068816801F0070106293E
:102AC00003D0016841F001010160002070477047A8
:102AD00070B50446006801694FF00005C9438907D5
:102AE00015D4C168C943890711D4E91E01610120C9
:102AF0002077206880698007204602D0FFF7E7FF33
:102B000004E000F098F8204600F056F92577206898
:102B10000169C943490717D4C168C943490713D498
:102B20006FF004010161022020772068806910F4B1
:102B3000407F204602D0FFF7CAFF04E000F07BF898
:102B4000204600F039F9257720680169C943090753
:102B500016D4C168C943090712D46FF00801016196
:102B6000042020772068C0698007204602D0FFF744
:102B7000AEFF04E000F05FF8204600F01DF9257775
:102B800020680169C943C90617D4C168C943C90689
:102B900013D46FF010010161082020772068C0690C
:102BA00010F4407F204602D0FFF791FF04E000F0D0
:102BB00042F8204600F000F9257720680169C943F2
:102BC000C90708D1C168C943C90704D1891E016179
:102BD000204600F00FF920680169C943090609D4AD
:102BE000C168C943090605D46FF080010161204620
:102BF000FFF720FF20680169C943490609D4C1686D
:102C0000C943490605D46FF040010161204600F038
:102C100003F920680169C94389060BD4C168C94317
:102C2000890607D46FF0200101612046BDE870409D
:102C3000FFF701BF70BD704770B5044690F83C00C7
:102C40000D4601280DD0012684F83C60022084F84E
:102C50003D0042B1042A18D0082A2AD00C2A4DD1AE
:102C600039E0022070BD206800F04EFB20688169C9
:102C700041F0080181612068816921F004018161CE
:102C8000206881692A69114311E0206800F064FB23
:102C90002068816941F4006181612068816921F4C3
:102CA00080618161206881692A6941EA022181612C
:102CB00024E0206800F07CFB2068C16941F0080135
:102CC000C1612068C16921F00401C1612068C16946
:102CD0002A69114311E0206800F096FB2068C16961
:102CE00041F40061C1612068C16921F48061C16162
:102CF0002068C1692A6941EA0221C16184F83D6006
:102D0000002084F83C0070BD10B5040003D094F896
:102D10003D0010B107E0012010BD002084F83C0008
:102D2000204600F00DF8022084F83D00211D2068A7
:102D300000F090FA012084F83D00002010BD000052
:102D4000F0B51B4887B0016841F0040101600068DC
:102D500000F0040005901648001D016841F40031A0
:102D60000160006800F400300590114810380168D7
:102D700041F0020101600068022400F002000590A9
:102D8000802001268DE8510003250A4FCDE9035428
:102D900069463846FFF71EFAE001CDE90004CDE9A7
:102DA0000265694604953846FFF714FA07B0F0BD8E
:102DB00040380240000402407047000010B504464D
:102DC0000068012200F092FA09492068884203D184
:102DD000416C41F4004141642068816801F00701C1
:102DE000062903D0016841F001010160002010BDF7
:102DF00000000140064910B5884208D10520FEF7C1
:102E0000FDFF01B2BDE810400248FEF7F1BF10BD62
:102E1000F88000203C000020704770B5040004D00A
:102E200094F83900002510B106E0012070BD84F847
:102E30003850204600F022F8242084F83900206819
:102E4000C16821F40051C160204600F00BFB2068EE
:102E5000016921F4904101612068416921F02A0152
:102E600041612068C16841F40051C160E5632020E0
:102E700084F8390084F83A00002070BD10B586B09F
:102E8000044614216846FEF7DFFA14492068884298
:102E900021D113480021026842F01002026000684C
:102EA00000F0100005900E481438026842F001024C
:102EB0000260006800F0010005904FF4C0600090CF
:102EC0000220CDE901010320039007200490694608
:102ED0000448FFF77FF906B010BD00000010014064
:102EE00044380240000002402DE9F843044690F8BF
:102EF00039001F4616460D46202850D1B5B1AEB157
:102F000094F8380001284AD0012084F838004FF0A6
:102F10000008C4F83C80212084F83900FFF730FA1B
:102F2000A6848146E68484F8388026E00120BDE846
:102F3000F883E08C401EE084A0684B46B0F5805FCB
:102F40004FF000024FF080012046009703D000F0C0
:102F50001DFBE8B90DE000F019FBC8B9288821680D
:102F6000C0F308004860206908B16D1C05E0AD1C85
:102F700003E0216815F8010B4860E08C0028D8D1E7
:102F80004B46002240212046009700F0FFFA08B18E
:102F90000320CCE7202084F839000020C7E7022076
:102FA000C5E7FEE7134810B5016886B041F001019E
:102FB00001600068104C00F00100059007200090AF
:102FC0000120019002900320039069462046FFF7FC
:102FD00001F9012211462046FFF7C6F9012202211C
:102FE0002046FFF7C1F9012204212046FFF7BCF972
:102FF00006B010BD3038024000000240074910B54D
:10300000054808600846FFF7BFF8002803D0BDE870
:103010001040FEF79FBE10BD0030024000000020AF
:10302000094808B5016841F080010160016801F0BC
:1030300080010091016841F001010160006800F029
:103040000100009008BD0000303802400C4810B567
:103050000A4901604FF4E1314160002181600C2296
:10306000C160C0E904128161C161FFF7D6FE00288A
:1030700003D0BDE81040FEF76DBE10BD001001404A
:10308000708000207FB512481049002401604FF481
:103090008031C0E90114C4600461446104760125F3
:1030A000C5610C4980F82040C0E90941C46280F83C
:1030B0003040FEF768FF0520CDE900050720CDE987
:1030C000020469460248FEF7A9FE7FBD00200140C8
:1030D000B08000200100000FFEE770477047704786
:1030E00070B5214C92B00025266846F080562660C7
:1030F000246804F0805411941C4C266846F4404621
:10310000266024680DF1240C04F440441194012439
:10311000009424040194022406948CE80D006605B2
:10312000CDE907616846FFF7B7FA00B1FEE70CA9E1
:103130000F2081E831004FF4A0500F904FF48050E1
:10314000109005210CA8FFF7BBF900B1FEE7FFF7CF
:1031500011F941F20101884204D10548016841F4A6
:103160008071016012B070BD4038024000700040B4
:10317000003C0240FFF70AB90548016841F47001BC
:10318000016003494FF0006080390860704700001B
:1031900088ED00E070B505460E4A0D48002482E82F
:1031A000330010461461FFF7AFFD0A48602140303C
:1031B000002201606908C0E9011401464038FFF7A8
:1031C0003BFDBDE8704000210248FFF7F7BD00005D
:1031D00000440140948100200148FFF779BC0000C1
:1031E000F8800020094A10B5074BC2E900310021E0
:1031F000C2E9021010461161FFF71EFCBDE8104045
:103200000248FFF753BC000000040040F880002093
:1032100070B505460E4A0D48002482E8330010467A
:103220001461FFF771FD0A486021403004220160FB
:103230006908C0E9011401464038FFF7FDFCBDE80C
:10324000704004210248FFF7B9BD000000080040AB
:1032500038810020F0B502681D4B1E4C9F031E4DA7
:103260001E4E984207D0B84205D0A04203D0A842D3
:1032700001D0B04204D122F0700C4A6842EA0C023C
:10328000984210D0B8420ED0A0420CD0A8420AD02A
:10329000B04208D0124CA04205D0124CA04202D03D
:1032A000114CA04203D122F44074CA6822434C69F5
:1032B00022F08002224302608A68C2620A68826247
:1032C000984201D10969016301214161F0BD00000B
:1032D000000001400004004000080040000C0040D5
:1032E00000400140004401400048014010B501F099
:1032F0001F030121046A99408C430462016A9A40C9
:103300001143016210BD000030B5026A22F00102D3
:103310000262026A4368846924F073050C682C43D6
:1033200022F002058A682A430A4DA8420BD122F0F6
:103330000805CA6823F440732A434D6922F0040249
:103340001D438B692B43436084614968416302627A
:1033500030BD00000000014030B5026A22F01002CA
:103360000262026A436884690D6824F4E64444EA10
:1033700005248D6822F0200242EA05120B4DA84276
:103380000ED1CD6822F0800242EA05124D6923F485
:10339000406343EA85038D6922F0400243EA8503D6
:1033A0004360846149688163026230BD000001406E
:1033B00030B5026A22F480720262036A4268C4690C
:1033C00023F4007324F073050C682C438D6843EAE2
:1033D00005230C4DA8420ED1CD6823F4006343EAC7
:1033E00005234D6922F4405242EA05128D6923F407
:1033F000806342EA05124260C4614968C1630362A6
:1034000030BD00000000014030B5026A22F4805255
:103410000262046A4268C3690D6823F4E64343EA22
:1034200005238D6824F4005444EA0534064DA8426F
:1034300004D14D6922F4804242EA85124260C361A0
:1034400049680164046230BD000001400149086020
:103450007047000034440140014908607047000093
:10346000380800402DE9F041044600680169E2682F
:1034700021F44051114301612169A068E2690843C8
:103480006169114308432168CA6849F20C639A4391
:103490000243CA6020684169A26921F44071114366
:1034A0004161E069192764253226B0F5004F354A9D
:1034B000354920684FF0000806D0884201D090427C
:1034C00036D1FFF7A7F835E0884201D0904202D10B
:1034D000FFF7A0F801E0FFF78DF861684A18A0FB3C
:1034E000070148EB0803FDF765FF0146B0FBF5F067
:1034F0000201B1FBF5F06FF01803584301EB8000B7
:1035000006EBC000B0FBF5F000F0F80002EB400263
:10351000B1FBF5F0584301EB800006EBC000B0FBB7
:10352000F5F000F00700216810448860BDE8F081E4
:10353000FFF760F861688B0F8A00A0FB0701FDF7B9
:1035400039FF0146B0FBF5F06FF01802504301EB74
:10355000800006EB0010B0FBF5F000F0F002B1FBCC
:10356000F5F002EB0012B1FBF5F06FF018035843D1
:1035700001EB800006EB0010B0FBF5F000F00F004F
:10358000D1E7000000140140001001402DE9F04196
:10359000984617460E460446069D1DE0681C1BD043
:1035A0002DB1FEF7EDFEA0EB0800A84214D920686B
:1035B000C16821F4D071C1602068416921F0010126
:1035C0004161202084F8390084F83A00002084F812
:1035D00038000320BDE8F0812068006836EA00006A
:1035E00004D00020B842D9D00020F3E70120F9E749
:1035F000FEE700000FB4054B10B503A9044A02987A
:1036000000F0BAF910BC5DF814FB00006941000835
:103610006000002013B505490198B1EB400F01D1BE
:10362000009808B100201CBD01201CBD0000E0FF77
:1036300013B5DDE9001001B101210843024920F072
:103640000040081AC00F1CBD0000F07F0907090EDA
:10365000002804DB00F1E02080F80014704700F03F
:103660000F0000F1E02080F8141D70472DED020BD3
:10367000019820F0004001909DED000B02B07047D2
:103680009FED010B70470000000000000000F87F74
:103690009FED010A704700000000C07F00B52DEDCE
:1036A000048BB0EE409AF0EE609A83B051EC190BA7
:1036B000FEF7FBF941EC180B18EE100A18EE901A01
:1036C0008DED008B002818BF0120084320F000403A
:1036D000C0F17F6000F1E040C00F14D019EE101A65
:1036E00019EE900A8DED009B002918BF01210843B7
:1036F00020F00040C0F17F6000F1E040C00F04BF47
:10370000012000F071F8B0EE480A03B0F0EE680A4C
:10371000BDEC048B00BD000010B52DED020B2DEDAE
:10372000048B84B09DED080B51EC100BFEF70EFAE4
:1037300041EC180B9DED080B53EC182B51EC100BC2
:10374000FDF73CFF41EC100B09989FED1D1B10F09D
:10375000004F53EC112B51EC100B9FED179B09D030
:10376000FEF794F811D253EC192B51EC180BFDF71E
:1037700084FE08E0FEF772F807D253EC192B51ECE7
:10378000180BFDF71BFF41EC180B8DED028B9DED27
:10379000080B18EE901A10EE900A8DED000B61F3F5
:1037A0001E0003909DED020B04B0BDEC048B02B033
:1037B00010BD000000000000000000000000F03F0D
:1037C000000000000000000002E008C8121F08C14D
:1037D000002AFAD170477047002001E001C1121F92
:1037E000002AFBD1704700000149086070470000C3
:1037F0006C0000202DE9FF5F82B00021DDE904307C
:10380000020DDDF840B0034318D044F61050A2F288
:10381000FF3242431514119801281FD0A5EB0B006D
:10382000401C5FEA000A4FF000064E4FDFF8389167
:10383000B046504615D5CAF1000413E01198012492
:103840004AA3012801D16FEA0B010298119AC0E93D
:103850000031C0E9024206B0BDE8F09FCBF10000A4
:10386000DFE704460021404A491842EB0450CDE905
:10387000001012E0E00707D032463B46404649467A
:10388000FDF7A2FE8046894632463B461046194661
:10389000FDF79AFE06460F466410002CEAD1DDE9DA
:1038A0000401DDE90023BAF1000F06DAFDF78CFE12
:1038B00042464B46FDF788FE05E0FDF7F7FE42461F
:1038C0004B46FDF7F3FE04460E460022284BFDF75B
:1038D000DDFF03D84FF0FF30014607E00022254B03
:1038E00020463146FDF7C9FDFEF774F9102409E0C2
:1038F000002C0ADB0A220023FDF75CFD039B30321B
:103900001A55641E50EA0102F2D1641C039AC4F1F4
:1039100011031444119A012A03D0012208430DD146
:103920000AE0084304D000204FF0110B119072E719
:10393000A3EB0B056D1E0DE05B4504DD4FF00002AF
:1039400005F1010504E003DA4FF00002A5F10105DD
:10395000002AECD002981199C0E90231C0E9004573
:1039600079E70000000014400000F03F3000000044
:103970000000F0430000E03F2DE9FF4F95B09A466C
:10398000884606460025EEE1252877D10024274603
:10399000F94A0121039400E0044316F8013F203B5B
:1039A00001FA03F01042F7D130782A2811D06FF0D5
:1039B0002F033078A0F13002092A16D8039A44F078
:1039C000020402EB820203EB42021044761C0390D5
:1039D000EFE758F8042B0392002A03DA504244F42C
:1039E0000054039044F00204761C30782E2816D13F
:1039F00016F8010F44F004042A280DD06FF02F02AE
:103A00003078A0F13003092B09D807EB870302EBCC
:103A10004303C718761CF3E758F8047B761C30780C
:103A20006C280FD006DC4C2817D068280DD06A28E7
:103A300014D104E0742810D07A280FD10DE044F49A
:103A400000140AE044F4801401E044F44014727855
:103A5000824202D104F58014761C761C30786628E8
:103A60000BD013DC582877D009DC002875D0452806
:103A7000F6D04628F4D047281AD193E118E06328FD
:103A800035D0642879D0652812D18BE1702873D0A5
:103A900008DC6728F1D069286FD06E280DD06F2818
:103AA00006D1ACE073282CD0752874D0782853D078
:103AB0005246179990476D1C54E1C4F302500228F6
:103AC00009D003280DD0D8F8001004280DD00D60BF
:103AD00008F1040846E1D8F80010EA17C1E90052DD
:103AE000F6E7D8F800100D80F2E70D70F0E718F84F
:103AF000041B8DF8001000208DF80100EB4601201A
:103B000003E058F804BB4FF0FF3061074FF00001AD
:103B100002D40DE009F101018946B9420FDA81456D
:103B2000F8DB1BF809100029F4D108E009F10101C4
:103B300089468142FADB1BF809100029F6D1039867
:103B40005346A0EB090721463846179A00F080FA41
:103B5000284400EB090507E044E008E10DE01BF80C
:103B6000010B524617999047B9F10109F7D2534614
:103B700021463846179AF2E039E00A21C4F302528E
:103B80004FF0000B0091022A06D058F8040BC11721
:103B9000032A09D00AE023E008F1070020F0070219
:103BA000F2E80201904605E000B2C117042A01D1F3
:103BB00040B2C117002906DA0A460021404261EBF3
:103BC00002012D2202E0220504D52B228DF80420CB
:103BD000012203E0E20701D02022F7E7914657E0F7
:103BE0000A2100E010214FF0000B00910BE01021A2
:103BF0004FF0000B44F004040827009103E0082074
:103C00004FF0000B0090C4F30252022A05D058F87E
:103C1000040B0021032A08D008E008F1070020F077
:103C20000702F2E80201904603E080B2042A00D1C4
:103C3000C0B24FF0000922072AD53278702A07D087
:103C4000DDF800C08CF0100C5CEA0B0C05D00EE027
:103C500040228DF80420012208E050EA010306D03A
:103C600030238DF804308DF8052002229146009B08
:103C700083F0080353EA0B030AD150EA010201D191
:103C8000620705D530228DF804204FF001097F1E10
:103C90003278582A04D039A20C920CAA02920BE076
:103CA0003BA2F9E75B46009AFDF784FB0C9B9B5C0B
:103CB000029A521E0292137050EA0102F2D1029847
:103CC00004A9081A00F1200B600702D524F48034FF
:103CD00000E001275F4502DDA7EB0B0000E00020BC
:103CE00000EB0B01009003984944401A0390E00355
:103CF00006D453462146179A039800F0A9F90544C3
:103D0000002706E001A85246C05D179990476D1C38
:103D10007F1C4F45F6DBE0030CD553462146179A2E
:103D2000039800F095F9054404E0302052461799B5
:103D300090476D1C0099481E00900029F5DC08E0B2
:103D40000298029952460078491C029117999047AF
:103D50006D1CBBF10001ABF1010BF1DC5BE100F08C
:103D600065F90544761C307800287FF40DAE19B053
:103D70002846BDE8F08F00000928010030313233B9
:103D80003435363738396162636465660000000097
:103D90003031323334353637383941424344454681
:103DA00000000000600700D4062708F1070020F09B
:103DB0000700F0E80223804603F0004C5FEA0C00A5
:103DC00001D097A009E0200501D596A005E0E00705
:103DD00001D095A001E0AFF24C001390307823F0B1
:103DE000004365280CD006DC452809D046281DD0A4
:103DF00047287FD13BE0662818D067287AD136E083
:103E00000021112F01DB112000E0781CCDE9000119
:103E100004A90CA8FFF7EEFCDDE90D010C9A4FF0A8
:103E2000000B07F10109109200914EE04FF00040A5
:103E30000097CDE9011004A90CA8FFF7DBFCDDE930
:103E40000D020C9B0F994FF0000B914610930092BE
:103E500011B9791C00EB0109B7EB090003D4C0F1DB
:103E6000FF3B07F10109A9EB0700019042E0012F98
:103E700000DA01270021112F01DD112000E0384672
:103E8000CDE9000104A90CA8FFF7B4FCDDE90D01A0
:103E90000C9A00914FF0000BB946109221070FD4F5
:103EA000009A4A4503DA914601E0A9F10109B9F106
:103EB000010F05DD109AA9F10101515C3029F4D000
:103EC000B84202DA10F1040F03DA0121CDE9011042
:103ED00010E0002803DC8344A9EB000102E0411C50
:103EE000494500DD8946A0EB0B00401C01904FF0D6
:103EF00000400290200705D40198484502DB4FF0AE
:103F0000FF30019000208DF84B0002980DF14B0717
:103F1000B0F1004F25D002200C902B200D9002987C
:103F200000280CDA404202902D200D9007E00A2173
:103F30000298FDF7DFFC3031029007F8011D0C9963
:103F4000481E0C900029F2DC02980028EFD1791E5F
:103F50000D980870307800F0200040F0450007F818
:103F6000020D11A8C01BC01D02901398007800B16B
:103F7000012000EB0901019801EBE0710298014476
:103F80000398401A401E0390E00306D4534621468E
:103F9000179A039800F05CF805441398007818B15C
:103FA0005246179990476D1CE00323D5534621468E
:103FB000179A039800F04CF805441BE0BBF1000F82
:103FC00007DB0098584504DD1098179910F80B008E
:103FD00001E0179930205246904701980BF1010BF0
:103FE000401E05F10105019004D12E20524617997B
:103FF00090476D1CB9F10001A9F10109DEDC05E073
:1040000017F8010B5246179990476D1C0299481EEC
:1040100002900029F4DC53462146179A03989EE645
:104020002D0000002B000000200000002DE9F041D1
:10403000044600251E461746880404D405E0394688
:104040002020B0476D1C641EF9D52846BDE8F081DC
:104050002DE9F041044600251E469046C80301D5CF
:10406000302700E02027880404D505E04146384683
:10407000B0476D1C641EF9D52846BDE8F0810000EC
:1040800010B504460420FEF7B5FC0148046010BDDD
:10409000080000202DE9F0410E00054600D500265D
:1040A00001200021EA6804E06B6853F8213058438E
:1040B000491C8A42F8DCAC68844221DA102C00DA10
:1040C00010244FF080426FF00041844205DA9442A0
:1040D00001DB0C46F9E76400F7E708212046FDF70D
:1040E000BEF92968074639B1F200FDF794F9287C3A
:1040F00010B1286800F044F82F600120AC602874EB
:10410000BDE8F08110B50446006800280FD00168B2
:1041100021B1007C10B1084600F032F820684068F8
:1041200000F02EF8206800F02BF80020206010BD71
:1041300070B504460E46142000F098FB2060002560
:10414000C66004460560B00000F090FBC4E90105BC
:1041500001202074002003E0616841F82050401CD9
:10416000B042F9DB70BD000013B54FF6FF730122BA
:1041700069460248FEF7B8FE00981CBD708000201A
:1041800010B5002821D0114B0022001F196803E050
:10419000814203D80A4649680029F9D152B113680F
:1041A000841A9C4204D1006818441060104602E052
:1041B000506000E0186039B102680B1A934203D1D5
:1041C0000B681A4402604968416010BD6400002019
:1041D0002DE9FF4F2DED068BBDB0144602EBD470D8
:1041E000DDE951A78B4646101D4691B237A8DDF890
:1041F0005491DDF84081FCF795F90020BD4911E0AC
:10420000439A32F9102000EE102A0BEB8002B8EE30
:10421000C00AD2ED000A01EB8002401C20EE200A09
:1042200082ED000AA042EBDB0023B34AB14937A874
:10423000FCF756F92246B149AF48FCF72BF80021AC
:10424000AE489FEDAF0A08E000EB8102491CD2EDB9
:10425000000A60EE800AC2ED000AB142F4DB0121DF
:10426000B0EE000A09E000BF00EB8102491CD2ED6C
:10427000000A60EE800AC2ED000AB142F4DBA1A0A0
:10428000FFF7B8F9002000E0401CB042FCDBA3A01F
:10429000FFF7B0F9DDE95302CDE90202CDE900A74D
:1042A00043462A4621469FA0FFF7A4F93B465246C3
:1042B0003146A9A0FFF79EF93846FDF766FA41ECB2
:1042C000180B5046FDF761FA41EC100BA84A32ABCF
:1042D0009FEDA82B2D910390B0EE481AF0EE681ACE
:1042E0003146864800F06AFB329CA4A02146FFF7C5
:1042F00081F9A8A0FFF77EF988A0FFF77BF9611B81
:1043000091FBF8F77F1C3946AAA0FFF773F99FEDE0
:10431000AE9B00240DF1100AB0EE498AF0EE698AD6
:1043200035E00026DFF848B213E000BF04FB086167
:104330000BEB810090ED000AB0EEC00A10EE100AFF
:10434000FDF779FA53EC182BFDF797F841EC180BB1
:10435000761CAE42EADB2846FDF717FA41EC100B5B
:1043600051EC180B53EC102BFDF7A0F941EC100B9E
:104370000AEBC400B0EE498A80ED000BF0EE698ACA
:1043800053EC102B214692A0FFF734F9641CBC4279
:10439000C7DB9DED049B00245646B0EE498AF0EE43
:1043A000698A18E006EBC40551EC190B95ED000B7A
:1043B00053EC102BFDF752FA01D295ED009B95EDD1
:1043C000000B51EC180B53EC102BFDF75FFA01D2E8
:1043D00095ED008B641CBC42E4DB8DED008B53EC4F
:1043E000192B85A0FFF706F95398FDF7CEF953EC8A
:1043F000182BFDF7E9F853EC192BFDF72FFA01D232
:10440000012400E000249FED859B2D9953EC192B8E
:104410000398FDF7D9F89FED83AB53EC1A2BFDF70A
:104420002CF8FDF7EFF9014635AB34AA5048FCF7FC
:104430000DF93498FDF7FFF941EC100B7BA053EC1C
:10444000102B3599FFF7D6F853EC192B2D990398BB
:10445000FDF7BAF853EC1A2BFDF70FF8FDF7D2F978
:10446000014636AA4248FCF75DF93698FDF7E3F9B4
:1044700041EC100B7AA053EC102BFFF7BBF85498CB
:10448000FDF783F90E4646EC100B054653EC182B4E
:1044900051EC100BFDF798F841EC190B3498FDF72F
:1044A000CAF953EC192BFDF7F1F917D346EC105B61
:1044B00053EC182B51EC100BFDF786F89FED721B97
:1044C00053EC112BFDF780F841EC180B3498FDF7F5
:1044D000B2F953EC182BFDF7D9F901D2012100E014
:1044E0000021C9F800103DB02046BDEC068B04B099
:1044F000BDE8F08FF0810020F0C10020F001012024
:1045000000008039666674206162732076616C7584
:10451000652073746172743A0D0A00000D0A656EAD
:10452000640D0A00667265715F6465746563746921
:104530006F6E3A202564202D202564202D202564CF
:10454000202D202564202D202564202D2025642069
:104550002D2025640D0A0000787878787878202D51
:10456000202564202D202564202D2025640D0A009F
:10457000F0410120000000000000494072656D6FAD
:1045800076655F70662073697A652069733A2025C5
:10459000640D0A006666742072656D6F76655F70E3
:1045A000662076616C75652073746172743A0D0AC9
:1045B000000000006D65616E2073697A6520697383
:1045C0003A2025640D0A00000000000000000000F1
:1045D000667265715F646574656374696F6E206D82
:1045E00065616E5F76616C75653A202564202D20CB
:1045F000252E346C660D0A00667265715F64657401
:10460000656374696F6E206D61782D6D696E3A20F7
:10461000256C66202D20256C660D0A000000000028
:104620000000E03F000000000000F03F667265718E
:104630005F646574656374696F6E206D6178206670
:1046400072657120696E6465782D726573756C741E
:104650003A202564202D20256C660D0A00000000FC
:10466000667265715F646574656374696F6E206DF1
:1046700065616E206672657120726573756C743A3F
:1046800020256C660D0A00002DB29DEFA7C6E33F02
:1046900088B000255E48FDF760FBFDF77FFE07232D
:1046A00002221921C820FEF71BFD6420FFF7E8FC59
:1046B000FEF7E8FCFEF776FC40F2C4411320FEF75B
:1046C00091FD40F2F31463212046FEF763FD0020C4
:1046D000FEF7BCFE31212046FEF79AFD0020FEF7D2
:1046E000BBFEFEF79DFCFEF789FCFEF7AFFC494CD4
:1046F0004FF400694FF480484548FDF72CFB4E46C7
:10470000B042F9D9082D16D04148FDF724FB0246E6
:10471000294641A0FEF76EFF04EB053132463C48C6
:10472000FDF721FB3A48FDF716FB014640A0FEF7D6
:1047300061FF6D1CE0E700204FF4605204EB400184
:1047400001F58051098824F81010401C9042F5DBD7
:104750002F48FDF700FB024629462FA0FEF74AFF2F
:1047600004EB0531B14632462948A1F58051FDF7E9
:10477000FAFA2748FDF7EFFA01462DA0FEF73AFFB7
:104780000026304634F81020401C16444045F9DB22
:10479000B00BFDF70BF89FED2B1B53EC112BFCF727
:1047A0006CFEFDF72FF807B23A46314627A0FEF718
:1047B00021FF00204FEA080634F81010C91B24F826
:1047C0001010401CB042F7DB0DF10C0C0E23102230
:1047D000022108208CE80F004101662232208DE87A
:1047E00007008A00052349460A4800F075F80021B1
:1047F00034F811203A4424F81120491CB142F7DB67
:1048000008B1002000E0012000F05CFA74E700002D
:104810003C000020700000206669666F206E756D98
:104820006265723A202564202D2025640D0A00005F
:104830006669666F206E756D6265723A2025640D3B
:104840000A000000000000000000E03F73756D20CA
:10485000616E64206D65616E206F66207261773ACB
:10486000202564202D2025640D0A0000F0B50B30B2
:10487000154D20F007010024144A0FE003688B4215
:104880000BD38B4205D95E1A43184768C3E900670A
:1048900000E04368136002C004E0021D10680028B5
:1048A000ECD12046002802D1286808B10020F0BDD4
:1048B000064A07481060074A121A22F00702C0E9A8
:1048C000002401202860D7E7680000206400002051
:1048D0007C75012078C501202DE9F05FADF5015D03
:1048E00007460DF500508A4600250DF11808D0F84E
:1048F00068B01E4691462C464FF400514046FCF7E6
:10490000A3FDCDE9006B4B4652464FF4804138463B
:1049100000F03EFB060025D0002044464FF48052B4
:1049200037F8301024F81010401C9042F8DB42F2A7
:1049300018056D4405F1600002AC0BC884E82B003B
:104940000DF50050416F006FCDE900010DF50050ED
:104950000D49C36E4046FFF73BFC040001D0012522
:1049600000E00025314609A0FEF744FE21460BA0D9
:10497000FEF740FE29460DA0FEF73CFE0DF5015D59
:104980002846BDE8F09F00009C51000874696D65E1
:104990005F766F74653A2025640D0A006672657152
:1049A0005F766F74653A2025640D0A007265737531
:1049B0006C743A2025640D0A000000002DE9FF5FA9
:1049C0000D462DED060B83462DED0C8B92B0B0EE0F
:1049D000428AF0EE628AB0EE41DAF0EE61DAB0EED1
:1049E00040CAF0EE60CA9FEDB19B0846FCF7CDFED1
:1049F00082460B9153EC1C2B51EC180BFCF7E4FD99
:104A0000CDE9070153EC1C2B51EC1D0BFCF7DCFD31
:104A100041EC180B51EC190B53EC182BFCF736FF3B
:104A200001D2002404E051EC180BFCF7CCFE044644
:104A3000DDE9070141EC100B0B9953EC102B41EC15
:104A400011AB51EC110BFCF731FE41EC100BFEF7F2
:104A500063FEDDE90701B0EE40AAF0EE60AA53EC78
:104A60001A2BFCF7B1FD53EC182BFCF706FD53ECA9
:104A7000192BFCF702FD41EC1B0B0B9953EC1B2B84
:104A800041EC10AB51EC100BFCF7E8FE02D2002712
:104A9000B84605E051EC1B0BFCF795FE471EA846F7
:104AA000022104A8FFF744FB9FED820B51EC1D0B84
:104AB00053EC102BFCF788FD53EC1C2BFCF784FD0A
:104AC00041EC110BDDE9070153EC112BFCF776FDEE
:104AD000FCF779FE064604984168D1E9000200FB24
:104AE00002F90E6051EC1A0BFCF76DFE05460498B6
:104AF00041684D604946FFF7CDFA06FB05F00021FD
:104B00009FED6E0B06E0049A126802EBC102491C8D
:104B100082ED000B8142F6DBDDE9070141EC100B71
:104B20000B9953EC102B41EC11AB51EC110BFCF732
:104B3000BDFD41EC100BFEF7EFFD51EC100BFCF747
:104B400042FE0026009065E03046FCF71EFE8946D6
:104B500049EC100B054653EC192B51EC100BFCF7EC
:104B60008CFC53EC192BFCF729FD41EC110BDDE912
:104B7000070153EC112BFCF727FD53EC182BFCF726
:104B80007CFC53EC192BFCF778FC49EC105B41ECF6
:104B90001A0B53EC192B51EC100BFCF76EFC41EC8B
:104BA000110BDDE9070153EC112BFCF70DFD53EC64
:104BB000182BFCF703FD41EC1B0B51EC1A0B53ECCB
:104BC0001B2BFCF763FE03D24FF0000A504609E0AE
:104BD00051EC1A0BFCF7F7FDA0F1010A51EC1B0B8D
:104BE000FCF7F1FDA0EB0A09002510E00AEB050136
:104BF0005BF82100FCF71FFE049AD2E9003212682C
:104C000002FB065203EBC2026D1CC2E900014D45D6
:104C1000ECDB761C0098864296DB04984068D0E96D
:104C200000604643A11901EB0800C11B27980160F1
:104C3000002009E00BEB800191ED000A269901EBC1
:104C40008001401C81ED000AA042F3DB00250FE04B
:104C50000498006800EBC50090ED000B51EC100BC0
:104C6000FCF72CFE014626982A196D1C40F82210EC
:104C7000B542EDDB04A8FFF745FAA8EB07010020D9
:104C80000CE03B180BEB830292ED000A021993191A
:104C9000269A401C02EB830282ED000A8842F0DB78
:104CA00012B0BDEC0C8B0AB0BDE8F09F0000000014
:104CB0000000F03F00000000000000400000000085
:104CC0000000000010B5204CC0B1012823D00228FC
:104CD00029D003282ED0042834D1002201212046D7
:104CE000FDF742FB002204212046FDF73DFB002298
:104CF00002212046BDE81040FDF736BB002202210C
:104D00002046FDF731FB012211462046FDF72CFB22
:104D100001220421EDE7002204212046FDF724FBB7
:104D20000122114601E0002205E02046FDF71CFBB0
:104D30000122DDE7012201212046FDF715FB0122BA
:104D40000421F2E710BD00000000024010B551EC54
:104D5000100BFEF75FFC002800D0012010BD10B53D
:104D600051EC100BFEF764FC002800D0012010BDB0
:104D700010B50EA0FEF784FC0D4C0CA084ED080BC2
:104D8000FEF786FC84ED020A9FED0A0B84ED040B0E
:104D90009FED0A0A84ED000A9FED090B84ED060BD6
:104DA0009FED090A84ED010A10BD0000000000001B
:104DB00010000020000000000000F07F0000807F55
:104DC000000000000000F0FF000080FF2DE9F0412E
:104DD00005462DED0A8B0C466048007808B900F0B6
:104DE000CDF85F4E54B19FED5F9B2868012C0BD02E
:104DF000FCF721FD41EC180B022628E096ED000B94
:104E0000BDEC0A8BBDE8F081FCF715FD41EC100B01
:104E1000FFF79CFF0028F1D12868FCF70CFD41EC5E
:104E2000100BFFF79CFF0028E8D1B0EE490AF0EE26
:104E3000690AE5E705EB860050F8040CFCF7FBFC7B
:104E400053EC182BFCF719FB41EC180B761C204691
:104E5000A642EFDDFCF799FC884648EC100B0746AC
:104E600053EC102B51EC180BFCF720FCB0EE498AE8
:104E7000F0EE698A41EC1B0B9FED3C9B00269FEDF9
:104E80003DCB46E055F82600FCF7D5FC53EC1B2B38
:104E9000FCF794FB41EC100BFEF7E8FBB0EE40AAE8
:104EA000F0EE60AA53EC192B51EC1A0BFCF7EEFC58
:104EB0001CD253EC1A2B51EC190BFCF7F7FB41EC0D
:104EC000190B51EC180B53EC192BFCF77DFB53EC31
:104ED000192BFCF779FB53EC1C2BFCF7CEFA41ECB9
:104EE000180BB0EE4A9AF0EE6A9A11E053EC192BC7
:104EF00051EC1A0BFCF7DAFB41EC100B53EC102BC6
:104F0000FCF762FB53EC182BFCF7B7FA41EC180BDB
:104F1000761CA642B6DBB0EE480AF0EE680AFEF751
:104F2000BDFB53EC192B51EC100BFCF74DFB48EC7F
:104F3000107B41EC180B53EC1C2B51EC100BFCF7C5
:104F40003DFB41EC100BFEF7A9FB53EC102B51EC91
:104F5000180BFCF7ABFB41EC100B51E738000020BD
:104F600030000020000000000000000000000000F1
:104F70000000C01C000000000000F03F10B5FFF76B
:104F8000F7FE02490120087010BD00003800002023
:104F90002DE9F05F2DED068BADF5025D0C468146E7
:104FA0000DF1080A1F46164650215046FCF74CFAF0
:104FB0000DF158084FF400514046FCF745FAA01B8C
:104FC00090FBF7F50DF503503B4603C83246CDE99B
:104FD000000121464CA06D1CFEF70CFB294655A094
:104FE000FEF708FBC3460024D0461CE000215846CB
:104FF0000DE000BF04FB071339F9132000EE102A5F
:1050000000EB8102491CB8EEC00A82ED000AB142F1
:10501000F0DB3146FFF7DAFE51EC100BFCF74EFCEB
:1050200048F82400641CAC42E0DB02980446FCF71C
:1050300002FC41EC190B2046FCF7FDFB41EC180B80
:1050400000241CE008EB84063068FCF7F4FB53EC0A
:10505000192BFCF71BFC04D23068FCF7ECFB41EC8D
:10506000190B3068FCF7E7FB53EC182BFCF7F6FB49
:1050700004D23068FCF7DFFB41EC180B641CAC4237
:10508000E0DB8DED008B53EC192B32A0FEF7B2FA6A
:105090000DF50050D0F8C000FCF777FB53EC182B4F
:1050A000FCF792FA41EC1A0B0DF50050D0F8C40051
:1050B000FCF76BFB53EC182BFCF7DFF941EC180BFA
:1050C00053EC1A2B8DED008B2BA0FEF793FA53ECCB
:1050D000182B51EC1A0BFCF7C1FB0DD253EC1A2B19
:1050E0000CE001200DF5025DBDEC068BBDE8F09FE4
:1050F00000200DF5025DF7E753EC182B51EC190B6E
:10510000FCF7C4FBF4D2ECE774696D655F64657409
:10511000656374696F6E3A202564202D2025642014
:105120002D202564202D202564202D2025640D0AA6
:105130000000000074696D655F646574656374697F
:105140006F6E207374645F73697A653A2025640D0D
:105150000A00000074696D655F6465746563746955
:105160006F6E206D61782D6D696E3A20256C66201A
:105170002D20256C660D0A0074696D655F64657489
:10518000656374696F6E202A202D202B3A20256CD0
:1051900066202D20256C660D0A0000000AD7A33D6D
:1051A0000AD7A33D0AD7A33D0AD7A33D0AD7A33DFB
:1051B0000AD7A33D0AD7A33D0AD7A33D0AD7A33DEB
:1051C0000AD7A33D0AD7A33D0AD7A33D0AD7A33DDB
:1051D0000AD7A33D0AD7A33D0AD7A33D0AD7A33DCB
:1051E0000AD7A33D0AD7A33D0AD7A33D0AD7A33DBB
:1051F0000AD7A33D0AD7A33D0AD7A33D0AD7A33DAB
:105200000AD7A33D0AD7A33D0AD7A33D0AD7A33D9A
:105210000AD7A33D0AD7A33D54E3A53D54E3A53DDA
:1052200054E3A53D54E3A53D54E3A53D54E3A53D1A
:1052300054E3A53D54E3A53D54E3A53D54E3A53D0A
:1052400054E3A53D54E3A53D54E3A53D54E3A53DFA
:1052500054E3A53D54E3A53D54E3A53D54E3A53DEA
:1052600054E3A53D54E3A53D54E3A53D54E3A53DDA
:105270009EEFA73D9EEFA73D9EEFA73D9EEFA73D6A
:105280009EEFA73D9EEFA73D9EEFA73D9EEFA73D5A
:105290009EEFA73D9EEFA73D9EEFA73D9EEFA73D4A
:1052A0009EEFA73D9EEFA73D9EEFA73DE7FBA93DE3
:1052B000E7FBA93DE7FBA93DE7FBA93DE7FBA93DCE
:1052C000E7FBA93DE7FBA93DE7FBA93DE7FBA93DBE
:1052D000E7FBA93DE7FBA93DE7FBA93DE7FBA93DAE
:1052E0003108AC3D3108AC3D3108AC3D3108AC3D36
:1052F0003108AC3D3108AC3D3108AC3D3108AC3D26
:105300003108AC3D3108AC3D3108AC3D7B14AE3DBD
:105310007B14AE3D7B14AE3D7B14AE3D7B14AE3DA5
:105320007B14AE3D7B14AE3D7B14AE3D7B14AE3D95
:10533000C520B03DC520B03DC520B03DC520B03D25
:10534000C520B03DC520B03DC520B03DC520B03D15
:10535000C520B03D0E2DB23D0E2DB23D0E2DB23DFD
:105360000E2DB23D0E2DB23D0E2DB23D0E2DB23D95
:105370000E2DB23D5839B43D5839B43D5839B43D7D
:105380005839B43D5839B43D5839B43D5839B43D15
:105390005839B43DA245B63DA245B63DA245B63DFD
:1053A000A245B63DA245B63DA245B63DA245B63D95
:1053B000EC51B83DEC51B83DEC51B83DEC51B83D25
:1053C000EC51B83DEC51B83DEC51B83D355EBA3DBD
:1053D000355EBA3D355EBA3D355EBA3D355EBA3DA5
:1053E000355EBA3D355EBA3D7F6ABC3D7F6ABC3DE5
:1053F0007F6ABC3D7F6ABC3D7F6ABC3D7F6ABC3D25
:10540000C976BE3DC976BE3DC976BE3DC976BE3DB4
:10541000C976BE3DC976BE3D1283C03D1283C03DF4
:105420001283C03D1283C03D1283C03D1283C03D34
:105430005C8FC23D5C8FC23D5C8FC23D5C8FC23DC4
:105440005C8FC23DA69BC43DA69BC43DA69BC43DAC
:10545000A69BC43DA69BC43DA69BC43DF0A7C63DEC
:10546000F0A7C63DF0A7C63DF0A7C63DF0A7C63DD4
:1054700039B4C83D39B4C83D39B4C83D39B4C83D64
:1054800039B4C83D83C0CA3D83C0CA3D83C0CA3D4C
:1054900083C0CA3D83C0CA3DCDCCCC3DCDCCCC3D34
:1054A000CDCCCC3DCDCCCC3DCDCCCC3D17D9CE3D1B
:1054B00017D9CE3D17D9CE3D17D9CE3D17D9CE3D00
:1054C00060E5D03D60E5D03D60E5D03D60E5D03D94
:1054D000AAF1D23DAAF1D23DAAF1D23DAAF1D23D24
:1054E000AAF1D23DF4FDD43DF4FDD43DF4FDD43D0C
:1054F000F4FDD43D3D0AD73D3D0AD73D3D0AD73D99
:105500003D0AD73D3D0AD73D8716D93D8716D93D7F
:105510008716D93D8716D93DD122DB3DD122DB3D0F
:10552000D122DB3DD122DB3D1B2FDD3D1B2FDD3D9D
:105530001B2FDD3D1B2FDD3D643BDF3D643BDF3D2D
:10554000643BDF3D643BDF3DAE47E13DAE47E13DBF
:10555000AE47E13DAE47E13DF853E33DF853E33D4F
:10556000F853E33DF853E33D4260E53D4260E53DDD
:105570004260E53D4260E53D8B6CE73D8B6CE73D6D
:105580008B6CE73D8B6CE73DD578E93DD578E93DFF
:10559000D578E93DD578E93D1F85EB3D1F85EB3D8D
:1055A0001F85EB3D6891ED3D6891ED3D6891ED3DC6
:1055B0006891ED3DB29DEF3DB29DEF3DB29DEF3D57
:1055C000FCA9F13DFCA9F13DFCA9F13DFCA9F13D8F
:1055D00046B6F33D46B6F33D46B6F33D46B6F33D1B
:1055E0008FC2F53D8FC2F53D8FC2F53DD9CEF73D57
:1055F000D9CEF73DD9CEF73D23DBF93D23DBF93D8D
:1056000023DBF93D23DBF93D6DE7FB3D6DE7FB3D1A
:105610006DE7FB3DB6F3FD3DB6F3FD3DB6F3FD3D55
:10562000B6F3FD3D0000003E0000003E0000003EDD
:105630002506013E2506013E2506013E4A0C023E96
:105640004A0C023E4A0C023E6F12033E6F12033EAA
:105650006F12033E9318043E9318043E9318043EC1
:105660009318043EB81E053EB81E053EB81E053E02
:10567000DD24063EDD24063EDD24063E022B073EE9
:10568000022B073E022B073E2731083E2731083EFA
:105690002731083E4C37093E4C37093E4C37093E0E
:1056A000713D0A3E713D0A3E713D0A3E96430B3EF6
:1056B00096430B3E96430B3EBA490C3EBA490C3E0C
:1056C000BA490C3EDF4F0D3EDF4F0D3EDF4F0D3E22
:1056D00004560E3E04560E3E04560E3E295C0F3E06
:1056E000295C0F3E295C0F3E4E62103E4E62103E1A
:1056F0007368113E7368113E7368113E986E123ED6
:10570000986E123E986E123EBC74133EBC74133EEB
:10571000BC74133EE17A143EE17A143EE17A143E01
:105720000681153E0681153E2B87163E2B87163EB9
:105730002B87163E508D173E508D173E508D173ECD
:105740007593183E7593183E9A99193E9A99193E89
:105750009A99193EBE9F1A3EBE9F1A3EBE9F1A3EA0
:10576000E3A51B3EE3A51B3E08AC1C3E08AC1C3E5B
:1057700008AC1C3E2DB21D3E2DB21D3E2DB21D3E6D
:1057800052B81E3E52B81E3E77BE1F3E77BE1F3E29
:1057900077BE1F3E9CC4203E9CC4203EC1CA213E11
:1057A000C1CA213EC1CA213EE5D0223EE5D0223EFB
:1057B0000AD7233E0AD7233E0AD7233E2FDD243EB5
:1057C0002FDD243E54E3253E54E3253E54E3253E9D
:1057D00079E9263E79E9263E9EEF273E9EEF273E59
:1057E0009EEF273EC3F5283EC3F5283EE7FB293E42
:1057F000E7FB293EE7FB293E0C022B3E0C022B3E29
:1058000031082C3E31082C3E31082C3E560E2D3EE0
:10581000560E2D3E7B142E3E7B142E3EA01A2F3E9C
:10582000A01A2F3EA01A2F3EC520303EC520303E84
:10583000E926313EE926313E0E2D323E0E2D323E16
:105840000E2D323E3333333E3333333E5839343EFC
:105850005839343E7D3F353E7D3F353E7D3F353EB8
:10586000A245363EA245363EC74B373EC74B373E74
:10587000EC51383EEC51383EEC51383E1058393E30
:105880001058393E355E3A3E355E3A3E5A643B3EEC
:105890005A643B3E7F6A3C3E7F6A3C3E7F6A3C3EA8
:1058A000A4703D3EA4703D3EC9763E3EC9763E3E64
:1058B000EE7C3F3EEE7C3F3E1283403E1283403EF4
:1058C0003789413E3789413E3789413E5C8F423EB0
:1058D0005C8F423E8195433E8195433EA69B443E6C
:1058E000A69B443ECBA1453ECBA1453EF0A7463EFC
:1058F000F0A7463E14AE473E14AE473E14AE473EB8
:1059000039B4483E39B4483E5EBA493E5EBA493E73
:1059100083C04A3E83C04A3EA8C64B3EA8C64B3E03
:10592000CDCC4C3ECDCC4C3EF2D24D3EF2D24D3E93
:1059300017D94E3E17D94E3E3BDF4F3E3BDF4F3E21
:1059400060E5503E60E5503E60E5503E85EB513EDF
:1059500085EB513EAAF1523EAAF1523ECFF7533E9B
:10596000CFF7533EF4FD543EF4FD543E1904563E29
:105970001904563E3D0A573E3D0A573E6210583EB6
:105980006210583E8716593E8716593EAC1C5A3E47
:10599000AC1C5A3ED1225B3ED1225B3EF6285C3ED7
:1059A000F6285C3E1B2F5D3E1B2F5D3E3F355E3E65
:1059B0003F355E3E643B5F3E643B5F3E8941603EF7
:1059C0008941603EAE47613EAE47613ED34D623E87
:1059D000D34D623EF853633EF853633E1D5A643E16
:1059E0001D5A643E4260653E4260653E6666663EA4
:1059F0006666663E8B6C673E8B6C673EB072683E37
:105A0000D578693ED578693EFA7E6A3EFA7E6A3E6E
:105A10001F856B3E1F856B3E448B6C3E448B6C3EFA
:105A200068916D3E68916D3E8D976E3E8D976E3E8E
:105A3000B29D6F3EB29D6F3ED7A3703ED7A3703E1E
:105A4000FCA9713EFCA9713E21B0723E21B0723EAC
:105A500046B6733E6ABC743E6ABC743E8FC2753EE5
:105A60008FC2753EB4C8763EB4C8763ED9CE773E76
:105A7000D9CE773EFED4783EFED4783E23DB793E05
:105A800023DB793E48E17A3E6DE77B3E6DE77B3E66
:105A900091ED7C3E91ED7C3EB6F37D3EB6F37D3ECE
:105AA000DBF97E3EDBF97E3E0000803E0000803E5A
:105AB0001283803E2506813E2506813E3789813E40
:105AC0003789813E4A0C823E4A0C823E5C8F823E80
:105AD0005C8F823E6F12833E8195833E8195833E2B
