:020000040800F2
:10000000A8310020B1010008E3160008A715000878
:10001000E1160008E5030008F91B000800000000D5
:10002000000000000000000000000000E7160008CB
:10003000E703000800000000E51600087D1700082F
:10004000CB010008CB010008CB010008CB01000860
:10005000CB010008CB010008CB010008CB01000850
:10006000CB010008CB010008CB010008CB01000840
:10007000CB010008CB010008CB010008CB01000830
:10008000CB010008CB010008CB01000800000000F4
:10009000000000000000000000000000CB0100088C
:1000A000CB010008CB010008CB010008CB01000800
:1000B000CB010008E1170008CB010008CB010008C4
:1000C000CB010008CB010008CB010008CB010008E0
:1000D000CB010008CB010008CB01000800000000A4
:1000E000CB010008CB010008CB0100080000000094
:1000F000000000000000000000000000CB0100082C
:1001000000000000CB010008CB010008CB01000873
:1001100000000000000000000000000000000000DF
:10012000CB010008CB010008CB010008CB0100087F
:10013000CB010008000000000000000000000000EB
:10014000000000000000000000000000CB010008DB
:10015000CB010008CB010008CB010008CB0100084F
:10016000CB010008CB0100080000000000000000E7
:10017000000000000000000000000000000000007F
:1001800000000000CB01000800000000000000009B
:10019000CB010008CB010008DFF810D000F07CF89C
:1001A00000480047991C0008AFF30080A8310020E8
:1001B0000648804706480047FEE7FEE7FEE7FEE701
:1001C000FEE7FEE7FEE7FEE7FEE7FEE78117000831
:1001D000990100082DE9F05F0546002092469B46F4
:1001E00088460646814640241BE02846414647464D
:1001F000224600F041F853465A46C01A914110D3A6
:1002000011461846224600F028F82D1A67EB01081F
:100210004F4622460120002100F01FF817EB00098D
:100220004E41201EA4F10104DFDC484631462A4637
:100230004346BDE8F09FD2B201E000F8012B491E11
:10024000FBD270470022F6E710B513460A46044673
:100250001946FFF7F0FF204610BD202A04DB203AA4
:1002600000FA02F1002070479140C2F1200320FA09
:1002700003F3194390407047202A04DB203A21FA07
:1002800002F00021704721FA02F3D040C2F12002AF
:100290009140084319467047064C074D06E0E06858
:1002A00040F0010394E8070098471034AC42F6D3BD
:1002B000FFF776FF8C1D0008AC1D0008464910B5FD
:1002C0004A6822F440324A604A6843681A434A60E6
:1002D00001684A6822F480724A6001684A680369CA
:1002E00042EA03224A6001684A6822F040724A608A
:1002F00001684A6883681A434A6001688A6822F480
:1003000000628A6001688A68C3681A438A60816AE9
:100310006FF07062D14201688A6822F070628A6070
:1003200001688A680CD0836A1A438A6001688A6807
:1003300022F040528A6001688A68C36A1A4301E069
:1003400022F040528A6001688A6822F002028A60C4
:1003500001688A68037E42EA43028A6090F82010AE
:10036000002901684A680FD042F400624A600168BF
:100370004A6822F460424A6001684A68174C436A3E
:1003800004EB43331A4301E022F400624A6001683F
:10039000CA6A22F47002CA620168CA6A838B104C6E
:1003A00004EB03531A43CA6201688A6822F400729C
:1003B0008A6001688A6890F8303042EA43228A6095
:1003C00001688A6822F480628A6001688A684069EC
:1003D00042EA8020886010BD0023014000E0FFFF5A
:1003E0000000F0FFFEE770477047000010B50648B8
:1003F00000F064F90A21044800F00EF9024800F008
:10040000B7F880B210BD00006414002078B5002455
:10041000009490F83C20012A19D0012280F83C2059
:100420000A6807230568092A13D9EE680A3A02EB1D
:10043000420293409E43EE600B788A680A3B03EBCE
:1004400043039A400368DD682A43DA6010E0022023
:1004500078BD2E6902EB420293409E432E610B78D9
:100460008A6803EB43039A4003681D692A431A61B3
:100470004A681F23072A13D205686E6B521E02EBCF
:10048000820293409E436E630A8893B20A79521E99
:1004900002EB820293400268556B2B43536327E0C3
:1004A00005680D2A12D22E6BD21F02EB82029340F6
:1004B0009E432E630B790A88DB1F92B203EB830302
:1004C0009A4003681D6B2A431A6311E0EE6A0D3AE5
:1004D00002EB820293409E43EE620B790A880D3B49
:1004E00092B203EB83039A400368DD6A2A43DA621F
:1004F0001B4B0568194A9D420AD10D68122D07D180
:10050000556825F400055560556845F4800555602B
:1005100005689D421DD1134D0B68AB4201D0112BD4
:1005200017D1536823F480035360536843F40003E6
:1005300053600968A9420CD10B490C4A0968B1FB08
:10054000F2F101EB8101490000E0491E0091002910
:10055000FBD180F83C40002078BD00000023014022
:1005600000200140120000101C00002040420F003B
:100570000068C06C704770B504004FF0000503D0F0
:10058000206C002610B107E0012070BD204600F06D
:100590001DF8666484F83C60206CC00610D4206CA2
:1005A00020F4885040F0020020642046FFF786FEC9
:1005B0006664206C20F0020040F00100206400E03E
:1005C000012584F83C60284670BD0000104800B545
:1005D000026887B0002142F480720260006800F473
:1005E000807005900A481438026842F001020260E7
:1005F000006800F001000590202000900320CDE964
:1006000001016946034800F0DDF807B000BD0000B5
:1006100044380240000002402DE9F04104460068E1
:100620000D4681684FF0000749050BD58068C0056D
:1006300008D5206C40F02000206484F83C70012034
:10064000BDE8F08100F094F906460FE0681C0DD07B
:1006500025B100F08DF9801BA84207D9206C40F02D
:100660000400206484F83C700320E9E720680068F7
:100670008007EBD521686FF012000860206C40F411
:10068000007020642068816811F0405F13D1217EE2
:1006900089B9C16A11F4700F02D0806840050AD48C
:1006A000206C20F480702064206CC00403D4206C83
:1006B00040F0010020640020C2E7000018B50021CE
:1006C000009190F83C20012A07D0012280F83C20BC
:1006D00002689368DB0702D011E0022018BD93681E
:1006E00043F001039360204A204B1268B2FBF3F2FF
:1006F00002EB420200E0521E0092002AFBD1026887
:100700009368DB072DD0036C40F20164A34343F4EC
:100710008073036453685B0505D5036C23F40053B1
:1007200043F480530364036CDB0404D5436C23F06F
:100730000603436400E0416480F83C100C496FF00C
:100740002203136049680068C90602D0094988423B
:1007500007D1816811F0405F03D1816841F0804189
:100760008160002018BD00001C00002040420F00E6
:10077000002301400020014010B5040002D0607940
:1007800010B106E0012010BD00202071204600F0CD
:1007900005F801206071002010BD000008B5006858
:1007A0000649884208D10648016841F48051016039
:1007B000006800F48050009008BD00000030024046
:1007C000303802402DE9F84F00224FF00108032590
:1007D0004FF00F0E0B6808FA02F42340A34271D1C8
:1007E0004E68012E05D0022E03D0112E01D0122EFC
:1007F00015D18668570005FA07FC26EA0C06D1F8E1
:100800000CC00CFA07FC4CEA060CC0F808C046689D
:10081000A6430C79C4F30014944034434460C66882
:10082000570005FA07FC8C6826EA0C06BC403443E6
:10083000C4604C68022C01D0122C13D1D40800EBF8
:100840008404A346D4F8209054074FEAD46A0EFAE1
:100850000AF629EA06090E6906FA0AF646EA0906C0
:10086000CBF8206004680E7924EA0C0406F0030635
:10087000BE40264306604C68E40056D52E4C2668E0
:1008800046F480462660246822F0030604F480447F
:1008900000942A4C3444A446D4F808489607370FED
:1008A0000EFA07F6B443264EB04201D1002615E0F9
:1008B000244EB04201D1012610E0234EB04202D1B5
:1008C00002260BE031E0214EB04201D1032605E0C3
:1008D0001F4EB04201D1042600E00726BE40264349
:1008E000CCF808681B4E34684F689C43FF0300D562
:1008F0001C433460174E361D34684F689C43BF0359
:1009000000D51C433460134E083634684F689C434E
:10091000FF0200D51C4334600E4E0C3634684F681D
:100920009C43BF0200D51C433460521C102AFFF4C4
:1009300051AFBDE8F88F000044380240003001405C
:10094000000002400004024000080240000C024087
:1009500000100240003C01400AB181617047090467
:10096000FBE7000001480068000C7047002004E02D
:10097000014880687047000010000020024881682C
:100980000278114481607047100000200B4810B5B8
:10099000016841F400710160016841F48061016007
:1009A000016841F480710160032000F06FF80020BD
:1009B00000F006F800F024F8002010BD003C0240D2
:1009C00070B50D4D04464FF47A712878B1FBF0F004
:1009D0000A490968B1FBF0F000F010FB48B9102C8F
:1009E00007D200222146501E00F030F800206C6033
:1009F00070BD012070BD0000100000201C00002010
:100A00000A4808B5016841F480410160006800F4BB
:100A1000804000900548001F016841F0805101604E
:100A2000006800F08050009008BD0000443802408B
:100A3000002809DB00F01F020121914040098000DD
:100A400000F1E020C0F8001170470000F0B40E4B38
:100A50001B680C46C3F30223C3F10705042D00D91C
:100A60000425191D072901D2002300E0DB1E012601
:100A700006FA05F1491E214099409E40761E164017
:100A80003143F0BC01F0C2B80CED00E0064900F0C3
:100A9000070208684FF6FF03184040EA0220034AA5
:100AA00010430860704700000CED00E00000FA05FC
:100AB0002DE9F0470E46050065D0DFF81481D8F81F
:100AC0000000F7B200F00F00B04207D288F80070C3
:100AD000D8F8000000F00F00B04254D128683D4C17
:100AE000810712D5400703D5206840F4E05020600C
:100AF0002878000703D5206840F460402060206813
:100B0000A96820F0F000084320602878C0072DD0A5
:100B1000304968680839012812D0022813D0032808
:100B200011D00968890700292DDA216821F0030115
:100B300001432160FFF71CFF814641F2883A0EE035
:100B400009688903EFE709688901ECE7FFF710FFFF
:100B5000A0EB0901514502D90320BDE8F0872068C8
:100B6000696800F00C00B0EB810FEFD1D8F80010ED
:100B7000404601F00F01B14207D90770006800F04C
:100B80000F00B04201D00120E7E72878400705D5E3
:100B90002068E96820F4E0500843206028780007C6
:100BA00006D52068296920F4604040EAC100206031
:100BB00000F038F82168084AC1F30311515CC840BD
:100BC0000649086006480068FFF7FAFE0020C4E7FF
:100BD000003C024008380240741D00081C00002040
:100BE000140000200448054900680968044AC1F35C
:100BF0008221515CC84070471C0000200838024028
:100C0000841D00080448054900680968044AC1F3C6
:100C10004231515CC84070471C0000200838024037
:100C2000841D0008154810B5006810F00C02144827
:100C300013D01449042A0FD0082A0ED10F4C241FB8
:100C40002268236802F03F025B0207D52068C0F3E8
:100C50008810A0FB010106E0084610BD2168C1F321
:100C60008811A1FB00010023FFF7B4FA2168C1F34A
:100C70000141491C4900B0FBF1F010BD08380240A9
:100C80000024F40040787D012DE9F84F04006ED077
:100C90002078DFF83C93C007A9F104054AD009F198
:100CA00004000168C1F38101012908D00068C0F384
:100CB000810002280AD1D9F80000400206D5286830
:100CC000800337D560680028E1D033E06068B0F574
:100CD000803F10D0B0F5A02F286810D020F48030CD
:100CE0002860286820F4802028606068A8B1FFF799
:100CF0003FFE06460DE0286840F48030F4E740F4FB
:100D000080202860F7E700BFFFF732FE801B6428D1
:100D100073D828688003F7D50CE0FFF729FE064654
:100D200005E000BFFFF724FE801B6428F0D8286888
:100D30008003F7D42078DFF89C8280074FF0000A08
:100D40003ED5A348001D016811F00C0F08D00068C3
:100D5000C0F3810002280BD1D9F80000400207D46B
:100D60002868800716D5E068012800D112E02BE141
:100D7000E068B8B10120C8F80000FFF7F9FD0646A9
:100D800005E000BFFFF7F4FD801B0228C0D82868EB
:100D90008007F7D52868216920F0F80040EAC100F3
:100DA00028600DE0C8F800A0FFF7E2FD064604E069
:100DB000FFF7DEFD801B02281FD828688007F7D4C4
:100DC0002078000722D5824E83486169703671B160
:100DD00001210160FFF7CCFD074604E0FFF7C8FDE5
:100DE000C01B022809D830688007F7D50EE0C0F88C
:100DF00000A0FFF7BDFD074605E082E0FFF7B8FD64
:100E0000C01B02287DD830688007F7D420784007BF
:100E100068D5DFF8BCB100270BF13C0BDBF8000014
:100E2000C0000BD4DBF8001041F08051CBF800106B
:100E3000DBF80000012700F080500090674E30681A
:100E4000C00510D4306840F480703060FFF790FD2A
:100E5000009005E0FFF78CFD0099401A022850D859
:100E60003068C005F6D55A4EA0686C3601280FD000
:100E70000528306810D020F001003060306820F084
:100E800004003060A068B8B1FFF772FD00900FE079
:100E9000306840F00100F4E740F004003060F7E70C
:100EA000FFF766FD0099411A41F28830814266D809
:100EB00030688007F4D50EE0FFF75AFD009007E098
:100EC000FFF756FD0099411A41F28830814256D809
:100ED00030688007F4D42FB1DBF8001021F0805186
:100EE000CBF80010A069C8B33949091D0968C1F3DE
:100EF000810102294AD00228504607D0C8F8600074
:100F000000E03CE0FFF734FD04463BE04746C8F80C
:100F10006000FFF72DFD064605E000BFFFF728FD46
:100F2000801B02282BD828688001F7D4D4E9070158
:100F30000843A16A2A4A490802EB0141626A41EA70
:100F40008211084394F82C1040EA0161C9F800109E
:100F500001203866FFF70CFD044606E036E000BFCE
:100F6000FFF706FD001B022809D828688001F7D585
:100F70002CE000BFFFF7FCFC001B022802D9032075
:100F8000BDE8F88F28688001F4D41FE00128F7D06D
:100F9000D9F80000E26900F48001914214D1226A7C
:100FA00000F03F0191420FD147F6C071626A0140E3
:100FB000914209D1A26A00F44031914204D1E16A20
:100FC00000F07060884201D00120D9E70020D7E707
:100FD0000438024000004742800E47420070004043
:100FE0000000FFFF4FF0E0210428086903D020F043
:100FF00004000861704740F00400FAE710B5401E95
:10100000B0F1807F01D3012010BD4FF0E02460617A
:101010000F21601700F0FAFD0020A0610720206179
:10102000002010BD7047704710B5040003D094F83D
:101030003D0010B107E0012010BD002084F83C0005
:10104000204600F00DF8022084F83D00211D2068A4
:1010500000F004FC012084F83D00002010BD0000D9
:1010600008B500680B49884212D10B48016841F06D
:10107000020101600068032200F0020000900121DB
:101080001D20FFF7E3FCBDE808401D20FFF7D0BCA2
:1010900008BD000000040040403802400168CA68F2
:1010A00042F00102CA600068816801F00701062968
:1010B00003D0016841F001010160002070477047D2
:1010C00070B50446006801694FF00005C9438907FF
:1010D00015D4C168C943890711D4E91E01610120F3
:1010E0002077206880698007204602D0FFF7E7FF5D
:1010F00004E000F098F8204600F056F925772068C3
:101100000169C943490717D4C168C943490713D4C2
:101110006FF004010161022020772068806910F4DB
:10112000407F204602D0FFF7CAFF04E000F07BF8C2
:10113000204600F039F9257720680169C94309077D
:1011400016D4C168C943090712D46FF008010161C0
:10115000042020772068C0698007204602D0FFF76E
:10116000AEFF04E000F05FF8204600F01DF925779F
:1011700020680169C943C90617D4C168C943C906B3
:1011800013D46FF010010161082020772068C06936
:1011900010F4407F204602D0FFF791FF04E000F0FA
:1011A00042F8204600F000F9257720680169C9431C
:1011B000C90708D1C168C943C90704D1891E0161A3
:1011C000204600F00FF920680169C943090609D4D7
:1011D000C168C943090605D46FF08001016120464A
:1011E000FFF720FF20680169C943490609D4C16897
:1011F000C943490605D46FF040010161204600F063
:101200000DF920680169C94389060BD4C168C94337
:10121000890607D46FF0200101612046BDE87040C7
:10122000FFF701BF70BD704770B5044690F83C00F1
:101230000D4601280DD0012684F83C60022084F878
:101240003D0042B1042A18D0082A2AD00C2A4DD1D8
:1012500039E0022070BD206800F05AFB20688169E7
:1012600041F0080181612068816921F004018161F8
:10127000206881692A69114311E0206800F070FB41
:101280002068816941F4006181612068816921F4ED
:1012900080618161206881692A6941EA0221816156
:1012A00024E0206800F088FB2068C16941F0080153
:1012B000C1612068C16921F00401C1612068C16970
:1012C0002A69114311E0206800F0A2FB2068C1697F
:1012D00041F40061C1612068C16921F48061C1618C
:1012E0002068C1692A6941EA0221C16184F83D6030
:1012F000002084F83C0070BD10B5040003D094F8C1
:101300003D0010B107E0012010BD002084F83C0032
:10131000204600F00DF8022084F83D00211D2068D1
:1013200000F09CFA012084F83D00002010BD000070
:10133000F0B51B4887B0016841F004010160006806
:1013400000F0040005901648001D016841F40031CA
:101350000160006800F40030059011481038016801
:1013600041F0020101600068022400F002000590D3
:10137000802001268DE8510003250A4FCDE9035452
:1013800069463846FFF71EFAE001CDE90004CDE9D1
:101390000265694604953846FFF714FA07B0F0BDB8
:1013A00040380240000402407047000010B5044677
:1013B0000068012200F09EFA09492068884203D1A2
:1013C000416C41F4004141642068816801F00701EB
:1013D000062903D0016841F001010160002010BD21
:1013E000000001400A4910B588420FD10520FEF7E0
:1013F000FDFF094A074B118823F81100491C88B2E8
:101400001080B0F5206F01D10120508010BD000088
:10141000AC280020AC1400200C000020704770B5F0
:10142000040004D094F83900002510B106E0012032
:1014300070BD84F83850204600F022F8242084F84B
:1014400039002068C16821F40051C160204600F0D5
:101450000DFB2068016921F4904101612068416918
:1014600021F02A0141612068C16841F40051C16046
:10147000E563202084F8390084F83A00002070BD2C
:1014800010B586B0044614216846FEF7DBFE144909
:101490002068884221D113480021026842F01002DE
:1014A0000260006800F0100005900E4814380268D1
:1014B00042F001020260006800F0010005904FF464
:1014C000C06000900220CDE90101032003900720B5
:1014D000049069460448FFF775F906B010BD000096
:1014E0000010014044380240000002402DE9F8435A
:1014F000044690F839001F4616460D46202850D164
:10150000B5B1AEB194F8380001284AD0012084F872
:1015100038004FF00008C4F83C80212084F83900DE
:10152000FFF726FAA6848146E68484F8388026E010
:101530000120BDE8F883E08C401EE084A0684B46A3
:10154000B0F5805F4FF000024FF080012046009719
:1015500003D000F01FFBE8B90DE000F01BFBC8B999
:1015600028882168C0F308004860206908B16D1C14
:1015700005E0AD1C03E0216815F8010B4860E08C24
:101580000028D8D14B46002240212046009700F089
:1015900001FB08B10320CCE7202084F839000020AB
:1015A000C7E70220C5E7FEE7144810B5016886B01A
:1015B00041F0020101600068114C00F0020005904A
:1015C0004FF460700090012001900290032003907E
:1015D00069462046FFF7F6F8002280212046FFF7F3
:1015E000BBF90022A1152046FFF7B6F900226115CC
:1015F0002046FFF7B1F906B010BD000030380240B8
:1016000000040240074910B5054808600846FFF786
:10161000B3F8002803D0BDE81040FEF7E5BE10BDCA
:101620000030024000000020094808B5016841F080
:1016300080010160016801F080010091016841F0C2
:1016400001010160006800F00100009008BD000089
:10165000303802400C4810B50A4901604FF4E131BE
:101660004160002181600C22C160C0E904128161E7
:10167000C161FFF7D4FE002803D0BDE81040FEF79B
:10168000B3BE10BD00100140241400207FB51248E5
:101690001049002401604FF48031C0E90114C46096
:1016A0000461446104760125C5610C4980F820403D
:1016B000C0E90941C46280F83040FEF75CFF0520B4
:1016C000CDE900050720CDE9020469460248FEF78E
:1016D0009DFE7FBD00200140641400200100000F2A
:1016E000FEE770477047704770B5214C92B00025F7
:1016F000266846F080562660246804F080541194D1
:101700001C4C266846F44046266024680DF1240CE3
:1017100004F440441194012400942404019402240C
:1017200006948CE80D006605CDE907616846FFF771
:10173000ABFA00B1FEE70CA90F2081E831004FF4AD
:10174000A0500F904FF48050109005210CA8FFF787
:10175000AFF900B1FEE7FFF705F941F20101884258
:1017600004D10548016841F48071016012B070BD78
:101770004038024000700040003C0240FFF7FEB8D5
:101780000548016841F47001016003494FF00060B1
:10179000803908607047000088ED00E070B50546AC
:1017A0000E4A0D48002482E8330010461461FFF70A
:1017B000A3FD0A4860214030002201606908C0E9A9
:1017C000011401464038FFF72FFDBDE870400021AD
:1017D0000248FFF7EBBD000000440140482900200B
:1017E0000148FFF76DBC0000AC280020094A10B585
:1017F000074BC2E900310021C2E902101046116115
:10180000FFF712FCBDE810400248FFF747BC00009C
:1018100000040040AC28002070B505460E4A0D4873
:10182000002482E8330010461461FFF765FD0A4882
:1018300060214030042201606908C0E901140146BA
:101840004038FFF7F1FCBDE8704004210248FFF783
:10185000ADBD000000080040EC280020F0B5026893
:101860001D4B1E4C9F031E4D1E4E984207D0B84282
:1018700005D0A04203D0A84201D0B04204D122F04A
:10188000700C4A6842EA0C02984210D0B8420ED05E
:10189000A0420CD0A8420AD0B04208D0124CA042BC
:1018A00005D0124CA04202D0114CA04203D122F428
:1018B0004074CA6822434C6922F0800222430260CD
:1018C0008A68C2620A688262984201D1096901632A
:1018D00001214161F0BD0000000001400004004012
:1018E00000080040000C004000400140004401405E
:1018F0000048014010B501F01F030121046A99401E
:101900008C430462016A9A401143016210BD0000D9
:1019100030B5026A22F001020262026A43688469F9
:1019200024F073050C682C4322F002058A682A43D0
:101930000A4DA8420BD122F00805CA6823F440736F
:101940002A434D6922F004021D438B692B434360F7
:10195000846149684163026230BD000000000140BB
:1019600030B5026A22F010020262026A436884699A
:101970000D6824F4E64444EA05248D6822F0200230
:1019800042EA05120B4DA8420ED1CD6822F080022A
:1019900042EA05124D6923F4406343EA85038D69E9
:1019A00022F0400243EA8503436084614968816311
:1019B000026230BD0000014030B5026A22F480723C
:1019C0000262036A4268C46923F4007324F0730559
:1019D0000C682C438D6843EA05230C4DA8420ED1B8
:1019E000CD6823F4006343EA05234D6922F4405295
:1019F00042EA05128D6923F4806342EA05124260CF
:101A0000C4614968C163036230BD00000000014049
:101A100030B5026A22F480520262046A4268C369E5
:101A20000D6823F4E64343EA05238D6824F400544B
:101A300044EA0534064DA84204D14D6922F480429F
:101A400042EA85124260C36149680164046230BDA4
:101A50000000014001490860704700003444014023
:101A60000149086070470000380800402DE9F04146
:101A7000044600680169E26821F4405111430161A4
:101A80002169A068E269084361691143084321683C
:101A9000CA6849F20C639A430243CA6020684169EC
:101AA000A26921F4407111434161E069192764255D
:101AB0003226B0F5004F354A354920684FF000080E
:101AC00006D0884201D0904236D1FFF79BF835E02E
:101AD000884201D0904202D1FFF794F801E0FFF76D
:101AE00081F861684A18A0FB070148EB0803FEF77C
:101AF00071FB0146B0FBF5F00201B1FBF5F06FF0B0
:101B00001803584301EB800006EBC000B0FBF5F072
:101B100000F0F80002EB4002B1FBF5F0584301EB96
:101B2000800006EBC000B0FBF5F000F00700216874
:101B300010448860BDE8F081FFF754F861688B0FAE
:101B40008A00A0FB0701FEF745FB0146B0FBF5F05C
:101B50006FF01802504301EB800006EB0010B0FB61
:101B6000F5F000F0F002B1FBF5F002EB0012B1FB72
:101B7000F5F06FF01803584301EB800006EB0010FE
:101B8000B0FBF5F000F00F00D1E7000000140140B9
:101B9000001001402DE9F041984617460E460446D4
:101BA000069D1DE0681C1BD02DB1FEF7E1FEA0EBE9
:101BB0000800A84214D92068C16821F4D071C1601E
:101BC0002068416921F001014161202084F8390039
:101BD00084F83A00002084F838000320BDE8F08142
:101BE0002068006836EA000004D00020B842D9D04E
:101BF0000020F3E70120F9E7FEE70000014A02496F
:101C000000F023B8811C0008200000200907090EFD
:101C1000002804DB00F1E02080F80014704700F099
:101C20000F0000F1E02080F8141D704702E008C8A2
:101C3000121F08C1002AFAD170477047002001E046
:101C400001C1121F002AFBD170472DE9F041164651
:101C50000F460446002503E03946B047641C6D1C5E
:101C600020780028F8D12846BDE8F08110B5044658
:101C70000420FFF7B7F90148046010BD08000020F8
:101C800013B54FF6FF73012269460248FFF72EFC99
:101C900000981CBD24140020FEF778FE07230222C2
:101CA0001921C820FFF720FD6420FFF7DFFFFFF7B1
:101CB000EDFCFFF779FC4CF24F310920FFF796FD60
:101CC00040F2F31463212046FFF768FD0020FFF780
:101CD000C1FE31212046FFF79FFD0020FFF7C0FE27
:101CE000FFF7A2FCFFF78EFCFFF7B4FC1BA0FFF789
:101CF00085FF1C481C4B1D4F05881D484FF4A06CE8
:101D00004FF42064012D0ED11988A142FAD100218F
:101D100037F8112020F81120491CA142F8DB0021DE
:101D20001980012DEED01988A142EBD10021624625
:101D300000EB4106B6F8006A20F81160491C914298
:101D4000F6DB00BF07EB4201A1F58051B1F80016A8
:101D500020F81210521CA242F4DBD3E774657374AE
:101D60000D0A00000E0000200C000020AC14002022
:101D70002400002000000000000000000102030415
:101D8000060708090000000001020304AC1D00085A
:101D900000000020240000002C1C0008D01D0008BA
:101DA00024000020843100003C1C000800000000DA
:101DB0000000000000000000000000000100000022
:101DC00010000000000000000024F40000000000EB
:040000050800019955
:00000001FF
