:020000040000FA
:10000000E06E022099020000696E00006D48000059
:10001000616E0000490400006D9B000000000000BC
:100020000000000000000000000000004D82000001
:10003000653C000000000000D5750000218700002D
:1000400075480000894800009D480000B148000044
:10005000C5480000D9480000ED48000001490000F3
:1000600015490000294900003D49000051490000A0
:1000700065490000794900008D490000A149000050
:10008000B5490000C9490000DD490000F149000000
:10009000054A0000194A00002D4A0000414A0000AC
:1000A000554A0000694A00007D4A0000914A00005C
:1000B000A54A0000B94A0000CD4A0000E14A00000C
:1000C000F54A00000D4B0000254B00003D4B0000A1
:1000D000554B00006D4B0000854B00009D4B000010
:1000E000B54B0000CD4B0000E54B0000FD4B000080
:1000F000154C00002D4C0000454C00005D4C0000EC
:10010000754C00008D4C0000A54C0000BD4C00005B
:10011000D54C0000ED4C0000054D00001D4D0000C9
:10012000354D00004D4D0000654D00007D4D000037
:10013000954D0000AD4D0000C54D0000DD4D0000A7
:10014000F54D00000D4E0000254E00003D4E000014
:10015000554E00006D4E0000854E00009D4E000083
:10016000B54E0000CD4E0000E54E0000FD4E0000F3
:10017000154F00002D4F0000454F00005D4F00005F
:10018000754F00008D4F0000A54F0000BD4F0000CF
:10019000D54F0000ED4F0000055000001D5000003D
:1001A000355000004D500000655000007D500000AB
:1001B00095500000AD500000C5500000DD5000001B
:1001C000F55000000D510000255100003D51000088
:1001D000555100006D510000855100009D510000F7
:1001E000B5510000CD510000E5510000FD51000067
:1001F000155200002D520000455200005D520000D3
:10020000755200008D520000A5520000BD52000042
:10021000D5520000ED520000055300001D530000B0
:10022000355300004D530000655300007D5300001E
:1002300095530000AD530000C5530000DD5300008E
:10024000F553000045550000AD590000895A0000E3
:10025000515D0000DB020000DB020000DB02000059
:10026000C15E0000E161000069640000A566000055
:10027000CD670000E16900003D6C0000516D000099
:10028000DFF810D000F072FC004800479DE9000044
:10029000AFF30080E06E022010484FF0770101605C
:1002A0000F484FF0770101600E484FF4885101600C
:1002B0000A484FF07601016009484FF0760101606D
:1002C0000948804709480047FEE7FEE7FEE7FEE7EA
:1002D000FEE7FEE7FEE7FEE7FEE7FEE7040805406F
:1002E0000C08054000080540B588000081020000A8
:1002F0002DE9F05F0546002092469B46884606465B
:10030000814640241BE0284641464746224600F0ED
:1003100004FB53465A46C01A914110D31146184661
:10032000224600F0EBFA2D1A67EB01084F462246F1
:100330000120002100F0E2FA17EB00094E41201ED7
:10034000A4F10104DFDC484631462A464346BDE8B5
:10035000F09F40EA01039B0703D009E008C9121F80
:1003600008C0042AFAD203E011F8013B00F8013B6F
:10037000521EF9D27047D2B201E000F8012B491E9B
:10038000FBD270470022F6E710B513460A46044632
:100390001946FFF7F0FF204610BD421C10F8011B64
:1003A0000029FBD1801A704730B50446002003466F
:1003B00000E05B1C934203D2E05CCD5C401BF8D0B4
:1003C00030BD034611F8012B00F8012B002AF9D1AA
:1003D0001846704710B5484304460EF00FFB00283E
:1003E00005D00021002C02D0641E0155FAE710BD93
:1003F00048F2010CC1F6FF7C6047704770477047B8
:10040000FFFFFFFFFFFFFFFFFFFFFFFFFFFFFFFFFC
:10041000FFFFFFFFFFFFFFFFFFFFFFFFFFFFFFFFEC
:1004200048F2171CC1F6FF7C604748F2852CC1F6E4
:10043000FF7C604748F6051CC1F6FF7C604748F228
:100440004D4CC1F6FF7C604710B5AFF3008010BD86
:100450000146086970472DE9FE4F804681EA030096
:10046000C00F0C46009021F0004123F00045B8EB8E
:100470000200A94105D24046214690461C460B4643
:10048000024623F00040104347D0270DC7F30A006F
:10049000C3F30A510290401A019040286BDAC3F36B
:1004A000130040F4801B0098924620B10023D2EB49
:1004B000030A63EB0B0B01985946C0F1400250460A
:1004C00000F01CFA06460D4650465946019A00F0C7
:1004D00034FA10EB08006141002487EA115284EAE3
:1004E000E7731A4340D0009A62B3019A012A4FEA97
:1004F000075215DC001B61EB02014FF0004202EADB
:100500000752CDE90042001C41F5801132462B46CE
:1005100000F06BFA03B0BDE8F08F40462146F9E7E2
:10052000001B61EB0201001C41F5801300185B41C8
:100530002018A2F5001747EB030140EAD570B61961
:100540006D4111E06D084FEA360645EAC0754FEA85
:100550000752001B61EB0201001C41F580114908A4
:100560004FEA30000019514132462B4603B0BDE836
:10057000F04F00F02BBA0098012240000023D0EB8E
:10058000020263EBE073009821464FEAE074B8EB97
:10059000000061EB0401E9E783F000435BE781F0D1
:1005A000004158E72DE9FE4F81EA030404F00044BE
:1005B00021F0004100944FF0000B23F0004350EA7B
:1005C00001045ED052EA03045BD0C3F30A54C1F3C2
:1005D0000A552C44A4F2F3340194A0FB0254C1F355
:1005E000130141F48011C3F3130343F4801301FB9F
:1005F000024400FB034E840A970A44EA815447EA06
:100600008357A4FB076802958D0A05FB07854FEA0F
:10061000932C04FB0C542705029D4FEA065847EA29
:100620001637B5EB08056EEB070C870E920E47EAFE
:10063000811742EA8312A7FB0201B6EB0B0164EBC0
:1006400000042B0D43EA0C335E1844EB1C50DA46D1
:100650005146E7FB0201C5F313044FEA0B3343EAAB
:1006600014534FEA0432019C43EA0603A4F10C043C
:100670000294009CCDE900B400F0B7F903B0BDE8E6
:10068000F08F00200146F9E72DE9F04D81EA0304DF
:1006900004F0004B21F0004514464FF0000A23F00F
:1006A000004150EA050220D054EA01021DD0C5F3F2
:1006B0000A570246C5F31303C1F31300C1F30A56E8
:1006C00040F4801543F48013A7EB0608101BD646B0
:1006D00008F2FD3873EB050002D308F1010801E0D0
:1006E00092185B41B8F1000F03DA00200146BDE823
:1006F000F08D00204FF48011064684460EE0171B53
:1007000073EB050705D3121B63EB050306434CEAA5
:10071000010C49084FEA300092185B4150EA01078A
:10072000EDD152EA030012D082EA040083EA050107
:10073000084305D0101BAB4106D20122002306E07E
:1007400000224FF0004302E06FF0010253101AEB59
:1007500006004CEB085110EB0A0041EB0B01BDE821
:10076000F04D00F033B90EB5C10F80EAE0700844D7
:10077000CA07002140F233438DE80E000A460B46BB
:1007800000F033F903B000BD0EB540F233410291E1
:100790000021CDE900110A460B4600F026F903B00E
:1007A00000BD70B5C1F30A5201F000450024C1F349
:1007B000130140F2FF3341F480119A4201DA002024
:1007C00070BD40F233439A42A2F2334203DC5242FC
:1007D00000F0A3F800E090402C43F1D0404270BDFF
:1007E000C1F30A5210B5C1F3130140F2FF3341F4D3
:1007F00080119A4201DA002010BD40F233439A4240
:10080000A2F2334203DC524200F087F810BD904060
:1008100010BD00F0004230F000400AD0C10D01F5DB
:100820006071C0F3160042EA0151C208400711434B
:10083000704700200146704730B5041E71F1000476
:1008400004DB4FF00044404264EB0101141E73F1DD
:10085000000405DB1C464FF00043524263EB0403E7
:100860008B4208BF824230BD30B5041E71F10004D6
:1008700004DB4FF00044404264EB0101141E73F1AD
:10088000000405DB1C464FF00043524263EB0403B7
:10089000994208BF904230BD01F0004330B421F0CE
:1008A000004150EA010206D00A0DA2F56072C1F3C0
:1008B0001301002A02DC30BC00207047440F44EAD8
:1008C000C104C100E01830BC00EBC25000F047B8D2
:1008D00030B50B46014600202022012409E021FA10
:1008E00002F59D4205D303FA02F5491B04FA02F50D
:1008F0002844151EA2F10102F1DC30BD202A04DBE0
:10090000203A00FA02F1002070479140C2F1200322
:1009100020FA03F3194390407047202A04DB203A61
:1009200021FA02F00021704721FA02F3D040C2F10F
:1009300020029140084319467047202A06DBCB1756
:10094000203A41FA02F043EAE07306E041FA02F38A
:10095000D040C2F120029140084319467047002957
:10096000A8BF7047401C490008BF20F00100704735
:1009700010B4B0FA80FC00FA0CF050EA010404BF95
:1009800010BC704749B1CCF1200421FA04F411FAEB
:100990000CF118BF012121430843A3EB0C01CB1D2F
:1009A0004FEA00614FEA102042BF002010BC7047A0
:1009B00000EBC35010440029A4BF10BC7047401C7A
:1009C000490008BF20F0010010BC704710B5141E8C
:1009D00073F1000408DA401C41F1000192185B41F8
:1009E0001A4301D120F0010010BD2DE9F04D9246CF
:1009F0009B4611B1B1FA81F202E0B0FA80F22032E6
:100A00009046FFF77BFF04460F4640EA0A0041EAA2
:100A10000B0153465A46084313D0114653EA0100CE
:100A200019D0C8F140025046FFF777FF05460E4641
:100A3000504659464246FFF761FF084305D0012062
:100A400004E020463946BDE8F08D0020054346EA23
:100A5000E0762C4337430A986305E40AA0EB0800CC
:100A60000022FD0A44EA47540A3002D5002001461C
:100A7000E9E7010510196941DDE9084500196941F7
:100A8000BDE8F04DA2E770B521F0004303430CD060
:100A9000C1F30A550024D5EB040564EB0403D61713
:100AA000AD1AB34102DB0020014670BD201841EBB6
:100AB000025170BD2DE9F041054621F000400C4681
:100AC000284309D0C4F30A5040F23341884205DD7F
:100AD00028462146BDE8F0812846FBE740F2FE317A
:100AE000884210DC0CDB4FEA043040EA155050EA33
:100AF000053105D0104804F0004101430020E9E72A
:100B000000200146E6E7A0F233404642C6F140022B
:100B100028462146FFF7F2FE07468846284621462A
:100B20003246FFF7FAFE43463A46FFF74FFF32469A
:100B3000BDE8F041FFF7E2BE0000F03FC1F30A520A
:100B4000C1F3130140F2FF3341F480119A4202DAFB
:100B500000200146704740F233439A42A2F23342EA
:100B600002DC5242FFF7D9BEFFF7C8BE064C074D64
:100B700006E0E06840F0010394E80700984710346D
:100B8000AC42F6D3FFF780FB142B0300442B030089
:100B90002DE9F04D00231A461B1A8A4103DB002081
:100BA0000146BDE8F08DC1F30A52C1F3130141F4CF
:100BB00080154FF0000BD10702D100186D41521E75
:100BC0000027044640F2FF11384601EB620A3E4618
:100BD0008046024600204FF48011FFF79EFEC219A6
:100BE0007141BB1846EB0100B4EB030C75EB000C34
:100BF00004D3E41A65EB000517460E46241908F1E4
:100C000001006D4180463428E3DDF91946EB06000A
:100C1000091BA84103D24FF0FF32134601E0002226
:100C200013461BEB070046EB0A51BDE8F04DFFF7FA
:100C3000CDBE30B58C1810F8012B12F00F0301D186
:100C400010F8013B120906D110F8012B03E010F84F
:100C5000015B01F8015B5B1EF9D101E001F8013B8A
:100C6000521EFBD1A142E6D3002030BDF0B5F1B158
:100C7000002300BF02EB430C32F813E0BCF802C0C3
:100C80002EF0030E2CF0030C50F80E5050F80C60B0
:100C900000EB0E0400EB0C0740F80E6040F80C501F
:100CA0007E68656802338B4266607D60E2D3F0BD8A
:100CB0002DE9F0410488984616460746012A0D465C
:100CC0000CD1E4B3281D214690ED000A0139B1EEA4
:100CD000400A80ED000A00F10800F5D1FF2C0CDD80
:100CE000B4F5806F10DBB4F5805F22D0B4F5006FEF
:100CF00011D0B4F5806F17D021E03F2C10DC102C00
:100D000012D0202C07D01AE0B4F5807F03D0B4F5C0
:100D1000007F0ED013E03846294600F05FF90EE060
:100D2000402C06D0802C0AD13846294600F08AF89B
:100D300005E07A6828462146012300F091FCB8F1CD
:100D4000000F04D0B989BA682846FFF78FFF012E3B
:100D50001CD100EE104A002CB8EE400A08BFBDE8D6
:100D6000F081B7EE001A81EE000A00BF95ED001A7F
:100D700095ED012A20EE011A22EE402A85ED001A97
:100D800085ED012A013C05F10805EFD1BDE8F081B0
:100D900000224260FF294FF0FF0201800EDDB1F515
:100DA000806F16DB29D0B1F5805F2BD0B1F5006FD5
:100DB00046D14AF6B433C0F2010336E03F2913DCD2
:100DC000102924D020293BD14AF6D433C0F20103A4
:100DD0002BE0B1F5807F1FD0B1F5007F30D14AF60E
:100DE000F433C0F2010320E040291AD0802927D132
:100DF0004AF69433C0F2010317E04AF68433C0F296
:100E0000010312E04AF6E433C0F201030DE04AF6B2
:100E1000A433C0F2010308E04AF6C433C0F2010370
:100E200003E04AF60443C0F20103191D03F108026E
:100E30000C331B88126809688381C0E90112002203
:100E400050B270472DE9F0472DED028B03888046A4
:100E5000084601EB830AD8F804200021B1EBD30F38
:100E60004FEA530900F0AB80D9080AEB890C00EB7C
:100E7000890E0027C4190AEB070594ED000A95EDC9
:100E8000003A94ED011A95ED014A0EEB07030CEBC5
:100E9000070694ED022A95ED025A70EE035A93ED7F
:100EA000006AD6ED001AD6ED012AD6ED023AD6ED4B
:100EB000034AC4ED005A71EE045A93ED017AC4ED71
:100EC000015A72EE055AD3ED020AC4ED025AD4ED6E
:100ED000035AD5ED036A31EE441A35EEA68A36EE92
:100EE000214AD3ED037A84ED038A83ED004A37EE7D
:100EF000224A83ED014A30EEA34A83ED024A37EEDF
:100F0000A44A83ED034AD31931EEC64A33EEE06AB0
:100F1000D3ED000AD3ED011A30EE430A32EE452A32
:100F200032EEC75A60EE202A61EE213A21EE201AF5
:100F300020EE210A31EE400A85ED010A24EE210A55
:100F400025EE211A25EE205A72EEA32A24EE204A1D
:100F500030EE450AC5ED002A86ED000A34EE010A9E
:100F600086ED010A93ED020A93ED031A35EEE63A97
:100F700022EE004A23EE015A23EE003A22EE012A25
:100F800034EEE77A33EE422A85ED032A26EE012A73
:100F900027EE011A27EE003A26EE000A34EE054A43
:100FA00032EE432A30EE010A013907F1100785EDD0
:100FB000024A86ED022A86ED030A7FF45BAF4946BA
:100FC000022300F04DFBD8F8042050464946022386
:100FD000BDEC028BBDE8F04700F042BB2DE9F04FBD
:100FE00081B02DED088B8EB002880346500801EBCE
:100FF000800505EB800691ED000A91ED011A96ED52
:10100000002A96ED013A04935B6806EB800730EE08
:10101000024A30EE420A31EE032A31EE431A95EDD0
:10102000013A95ED005A0593930897ED017AD7EDB3
:10103000000A029374EE452A72EE433A34EE054AF2
:1010400032EE032A6FF0010334EE204A32EE072A13
:1010500003EB920230EE036A71EE451A30EE430A5A
:1010600031EE051A81ED004A0A9181ED012A5108FD
:1010700036EE476A71EEA01A72EEE02A73EEC73AB6
:1010800030EE070A31EE601A0095019603970D9134
:10109000C10085ED006AC5ED011AC6ED002AC6ED56
:1010A000013A87ED000A87ED011A0C9100EB40012F
:1010B0006FF007036FF003074FEA800E07EBC00BDA
:1010C00007EB800A03EB001903EB81028C00002080
:1010D000002500210B9100BF0A9E059B07900695F5
:1010E000089406EB04080C9C311806EB040C06EB84
:1010F0000E0491ED020A9CED022AD4ED020A30EEB4
:10110000026AD8ED022A36EE204A34EE224A91EDE8
:10111000031A9CED033AD4ED031AD8ED033A81ED9E
:10112000024A94ED034A31EE037A98ED035A37EE02
:10113000044ACDF824E034EE054A81ED034A0B99C8
:1011400030EE420A31EE431A30EE212A03EB010E53
:1011500032EE634A31EE602A0D9932EE225A36EEB3
:10116000602A37EE613A30EE610A31EE201A1F181C
:10117000581932EE622A33EE633A30EE230A002920
:1011800031EE621A00F0CC800A998E1801EB0A0346
:1011900001EB0905594493ED007AD6ED010AD1ED32
:1011A000003A77EE202AD5ED014A72EEA35A75EE89
:1011B000A45A13ED016AD6ED001A51ED016AD5ED7E
:1011C000007AC3ED005A11ED018A76EE215A95EDB1
:1011D000009A35EE888A38EE098A03ED018A97ED88
:1011E000028A97ED039A24EE08AA25EE09BA25EEA5
:1011F000085A24EE094A35EE444A37EE605A84ED27
:10120000034A36EE614A35EE666A33EEE47A36EE2C
:10121000276A74EE070A66EE091A20EE899A60EED4
:10122000880A26EE086A3AEE0BAA71EEE00A36EE5C
:10123000096A84ED02AAC1ED000A01ED016A90ED90
:10124000046AD0ED050A62EE061A23EE208A23EE28
:10125000063A22EE202A33EE422A8CED032A32EEA1
:10126000E32A35EEE63A71EE881A33EE673A32EE4B
:10127000642A0D98CCED021A62EE461A23EE066A35
:1012800023EE203A22EE202A31EEC33A32EE462AED
:10129000013886ED013A86ED002A0D909EED062A72
:1012A0009EED073A0C9820EE026A61EE030A21EEE9
:1012B000021A20EE030A083031EE400A37EEE61A31
:1012C000DDF824E00C9088ED030A37EE440A31EE95
:1012D000451A0B9821EE034A20EE033A20EE020A4B
:1012E00036EE206A21EE021A34EE400A183088EDFC
:1012F000026A85ED010A31EE030A089C0B9085ED28
:10130000000A069D07980EF1080E083410350830C3
:10131000A9F10809083AABF1080BAAF1080ADBE6C3
:1013200097ED026A97ED037A64EE060A65EE071AF6
:1013300025EE065A24EE074A30EEA16A35EE444AFD
:1013400084ED026A84ED034A90ED044A90ED055A5B
:1013500022EE046A23EE057A23EE043A22EE052AF1
:1013600036EE074A33EE422A8CED024A8CED032A10
:101370009EED062A9EED073A029D20EE024A21EEDE
:10138000035A21EE021A20EE030A0A98059A34EE57
:10139000052A31EE400A2946042388ED022A88ED09
:1013A000030A00F05DF9049C009862682946042352
:1013B00000F056F9626801982946042300F050F9BC
:1013C00062680398294604230EB0BDEC088B01B077
:1013D000BDE8F04F00F044B92DE9F04381B02DEDA8
:1013E000028B0C4600219046B1EB920F054674D05B
:1013F0004FEA980795ED000A95ED011A20EE000AD4
:1014000021EE011A30EE018AB0EE480A0AF090F897
:10141000B4EE400AF1EE10FA49D684ED000A95EDDB
:10142000020A95ED031A20EE000A21EE011A30EEB1
:10143000018AB0EE480A0AF07BF8B4EE400AF1EEF9
:1014400010FA39D684ED010A95ED040A95ED051AD6
:1014500020EE000A21EE011A30EE018AB0EE480AB1
:101460000AF066F8B4EE400AF1EE10FA29D684EDDF
:10147000020A95ED060A95ED071A20EE000A21EE04
:10148000011A30EE018AB0EE480A05F1200904F194
:1014900010060AF04DF8B4EE400AF1EE10FA15D637
:1014A00084ED030A013F4D463446A3D113E0B0EE6C
:1014B000480A0AF03DF8B0E7B0EE480A0AF038F8FA
:1014C000C0E7B0EE480A0AF033F8D0E7B0EE480AB9
:1014D0000AF02EF8E4E734464D4618F0030620D013
:1014E00095ED000A95ED011A20EE000A21EE011A91
:1014F00030EE018AB0EE480A271D0AF019F8B4EE62
:10150000400AF1EE10FA07D684ED000A013E05F11B
:1015100008053C46E4D104E0B0EE480A0AF008F8B9
:10152000F2E7BDEC028B01B0BDE8F083F0B590EDC1
:10153000000A4C1E4FF0000CBCEB940F00F1040E9F
:101540003BD001272646A50867F301064FF0000CA3
:10155000042700BF9EED001A9EED012A9EED023A7F
:10156000B4EE410A9EED034AF1EE10FABCBFB0EEB4
:10157000410AA7F1030CB4EE420AF1EE10FABCBF27
:10158000B0EE420AA7F1020CB4EE430AF1EE10FAF3
:10159000BCBFB0EE430AA7F1010CB4EE440AF1EE71
:1015A00010FABCBFB0EE440ABC46013D07F1040787
:1015B0000EF1100ECED100EB860E14F003000ED00B
:1015C000404200BFBEEC011AB4EE410AF1EE10FA3F
:1015D000BCBFB0EE410A01EB000C0130F2D382ED4A
:1015E000000AC3F800C0F0BD80B50023B3EB910F33
:1015F0001ED09FED1A0A4FEA910E21F0030C03460C
:1016000093ED001A93ED012A93ED023A30EE010AB0
:1016100093ED034A30EE020A30EE030A30EE040A7C
:10162000BEF1010E03F11003EAD100EB8C0001E0E2
:101630009FED0A0A11F0030306D000BFB0EC011AB7
:10164000013B30EE010AF9D101EE101AB8EE411A51
:1016500080EE010A82ED000A80BD00BF000000009C
:101660002DE9F04F81B02DED108BA0B0DFED04CA55
:1016700000900430CDE902320190CDE91E1101E065
:10168000F304353F1F9A4FF0000AD308DF00A7EBA1
:10169000D200C0001D904FEAC20C03EB430503EBE0
:1016A0008302580106931E01019B2C014FEAC20ED2
:1016B000ED00CDE90C0ECDE90A5600BF0A9D1918C0
:1016C00003EB05091D9D03EB0E0003EB070810ED6E
:1016D000014A86469A19181903EB050B13ED011AF6
:1016E00011ED012A18ED013A12ED017A50ED010ACF
:1016F00059ED011A5BED012A31EE025A33EE046A0C
:1017000077EE203A71EEA24A75EE235A76EE246AFD
:1017100075EEA67A43ED017A75EEE65AD8ED007AB9
:101720009EED008A99ED00BA9BED00CAD3ED006AE8
:1017300041ED015AD1ED005A92ED009A90ED00AAC8
:1017400037EE88EA7BEE0C8A36EEA5DA39EE0AFA35
:1017500035EE635A36EE646A7EEE684A7DEE0F9A85
:101760007DEE4F3A35EE24DA35EE645A7EEE28AA45
:1017700002ED01DA33EEC6DA00ED015A36EE235AF5
:1017800031EE421A33EE442A37EE603A31EEE24A45
:1017900037EEC86A7BEE4C0A79EEAABA79EEEA9A7D
:1017A00072EE441A32EE042A36EE604A36EE206AB1
:1017B000C3ED00BAC1ED009A82ED00DA80ED005A67
:1017C00036EEE55A39EE4A7A61EEAC1A22EE2C2A50
:1017D00024EE2C4A26EE2C6A71EE210A73EE022AC0
:1017E00075EE043A77EE064A31EE611A33EE422A7C
:1017F00035EE443A37EE464A2646744670EEA45A11
:1018000070EEE40A31EE045A1F9A1E9948ED015A0F
:1018100073EEE25A4BED010A72EEA30A204604ED84
:10182000015A33EE425ADDF834E0C8ED005ACBEDF0
:10183000000A84ED005A0C9831EE441A34460B9E8F
:10184000924409ED011A32EE031A8A45634489ED88
:10185000001AFFF433AF1F984028C0F0D4810298DB
:10186000009E80B205900698CDE90E4CC0EBC000FA
:10187000C000002401251097049000BF0598039B29
:10188000044403EBC40191ED000A03EB04128DED57
:101890001D0A92ED000A04EB440203EBC2008DED39
:1018A0001C0A90ED000A03EB44118DED1B0A91ED2B
:1018B000000A04EB8401C80003EBC1018DED1A0A94
:1018C00091ED000A4FEAC20A4FEA021B03EB021233
:1018D0008DED190A92ED000AC4EBC4024FEAC40C64
:1018E000D10003EBC2028DED180A92ED000A0CF153
:1018F00004024FEA041E1A448DED170A92ED000A05
:101900000EF104021A448DED160A92ED000A0AF156
:1019100004024FEA44191A448DED150A92ED000AAB
:1019200009F104021A448DED140A92ED000A043004
:1019300018448DED130A90ED000A0BF104001844D1
:101940008DED120A90ED000A081D18440994D0ED9F
:10195000006A0796B44608952B46DDE90C54DDE98C
:101960000A76DDF810808DED110A00BF10980E99EF
:101970000CEB05090CEB000E0CEB04000CEB060B5A
:101980000CEB010A0CEB07020CEB0801DCED027A10
:1019900099ED028A9EED029A90ED02AA9BED02DA81
:1019A0009AED02EA92ED02FAD1ED028A37EE88BA98
:1019B00039EE0ACA7DEE0E9A7FEE28AA7BEE29BA8E
:1019C000F0EE6C3A7CEE2ACA7BEEACDACCED02DAB1
:1019D0007BEEECBADCED03CAD9ED03DADEED03EA07
:1019E000D0ED03FA9BED030A9AED031A92ED032A58
:1019F00091ED033A3CEEAD4A3EEEAF5A30EE016A4D
:101A000032EE037A74EE060A75EE071ADDED1A4A15
:101A1000DDED135A70EEA12A70EEE10ACCED032A37
:101A200064EEAB1A65EEA02A71EEA21A64EEA00A6B
:101A300065EEAB2A70EEE20AC9ED021AC9ED030A9F
:101A40007BEE690A7CEE6A1A34EE464A35EE475A56
:101A50009DED1CCADDED154A30EE856A34EE617AE3
:101A60006CEE062A24EE87BA2CEE077A24EE866AFC
:101A700030EEC55A31EE844ADDED180ADDED111A5B
:101A800037EE466A8BED036A20EE856A21EE847A92
:101A900020EE844A21EE855A37EE066A34EE454A36
:101AA00039EE4A5A3FEE687A7EEEEF1A30EE410A7E
:101AB00032EE431A7BEE222A35EE472A35EE073AFC
:101AC00031EEC15A31EE811ACBED022A8AED026A5B
:101AD0008AED034A37EEC84A3DEE4E6A7CEEED0AC7
:101AE00022EE232A23EE233A25EE235A21EE231A4F
:101AF000F0EE63CA34EE027A76EE031A70EE852AAF
:101B000070EE017ADDED1D3ADDED164A37EE278ADB
:101B100032EEE19A23EE88AA24EE89BA23EE899A5E
:101B2000DDED173A37EE677A71EEA21A63EE872A77
:101B300066EEA17A63EEA11A26EE877A24EE888AF1
:101B400031EEC77A34EE422A36EE433A30EEC54AD9
:101B500030EE410ADDED190ADDED121A39EE488A40
:101B600032EE001A34EE435A8EED038A81ED037A89
:101B700020EE816A21EE857A20EE855A21EE811AC7
:101B80003AEE0BAA72EEA72A36EE076A35EE411A34
:101B90008EED02AAC1ED022A80ED026A80ED031AE1
:101BA0001F9833EE041A03441E989DED1B4A9DEDC9
:101BB000145A32EE400A83420F9824EE002A25EE92
:101BC000013A24EE011A25EE000A32EE032A31EE24
:101BD000400A844482ED022A82ED030AFFF4C6AE75
:101BE000089D0698079E0135099C854206F1080666
:101BF000FFF444AE0298C00002901F983F28069858
:101C00001F903FF63FAD20B0BDEC108B01B0BDE89A
:101C1000F08F10B578B14FF400710446FFF7B8F8B3
:101C200050B94FF4806020824AF69430C0F202002E
:101C30006061002000E0FF2040B210BD10B568B127
:101C400040210446FFF7A4F848B9802020824BF6D3
:101C50009430C0F202006061002000E0FF2040B23A
:101C600010BD10B578B14FF480610446FFF790F8CD
:101C700050B94FF4006020824BF69450C0F202003D
:101C80006061002000E0FF2040B210BD10B570B1CF
:101C900080210446FFF77CF850B94FF48070208211
:101CA0004DF69450C0F202006061002000E0FF2079
:101CB00040B210BD10B568B110210446FFF768F8B6
:101CC00048B9202020824EF29410C0F202006061D8
:101CD000002000E0FF2040B210BD10B578B14FF4F5
:101CE00000610446FFF754F850B94FF48050208249
:101CF0004EF21420C0F202006061002000E0FF20DC
:101D000040B210BD10B578B14FF480710446FFF7B2
:101D10003FF850B94FF40070208242F21420C0F214
:101D200003006061002000E0FF2040B210BD10B54C
:101D300068B120210446FFF72BF848B940202082E3
:101D400042F61420C0F203006061002000E0FF2092
:101D500040B210BDF0B581B014460E46054673B1D1
:101D60002846314622461F4600F00EF928462146F5
:101D70003A46012301B0BDE8F040FEF799BF28467E
:101D8000314600220123FEF793FF284631462246C2
:101D900001B0BDE8F04000F051B9B1F5007F0ADABA
:101DA0007F2916DC202929D040293BD141F62F512B
:101DB000C0F200010847B1F5006F14DAB1F5007FF9
:101DC00021D0B1F5806F2DD141F61341C0F2000151
:101DD000084780291CD0B1F5807F23D141F68D4181
:101DE000C0F200010847B1F5805F16D0B1F5006F71
:101DF00018D141F66341C0F20001084741F6B541F0
:101E0000C0F20001084741F60551C0F20001084741
:101E100041F63D41C0F20001084741F6DB41C0F206
:101E2000000108474FF0FF307047000010B52DED5E
:101E3000028B82B0144601AA00F020F89DED018AC1
:101E4000B5EE408AF1EE10FA02DA9FED0B0A08E0D7
:101E5000B0EE480A09F06CFBB4EE400AF1EE10FA5D
:101E600005D684ED000A02B0BDEC028B10BDB0EEC9
:101E7000480A09F05DFBF4E700000000B0B5022954
:101E800002D29FED400A79E00023B3EB910F4FEAB5
:101E9000910C1CD09FED3B1A21F0030E04466346C3
:101EA00094ED000A94ED012A94ED023A31EE000A15
:101EB00094ED034A30EE020A30EE030A30EE041AC3
:101EC000013B04F11004EBD100EB8E0302E09FED27
:101ED0002D1A034611F0030506D02C46B3EC010A77
:101EE000013C31EE001AF9D100EE101AB8EE400AAA
:101EF00081EE001ABCF1000F2CD09FED222A21F0B8
:101F0000030E014691ED003A91ED014A33EE413A5C
:101F100023EE033A91ED025A32EE032A34EE413AAF
:101F200023EE033A91ED036A32EE032A35EE413A8D
:101F300023EE033A32EE032A36EE413A23EE033A19
:101F400032EE032ABCF1010C01F11001DAD100EBF1
:101F50008E0001E09FED0B2A55B100BFB0EC013AB5
:101F6000013D33EE413A23EE033A32EE032AF5D136
:101F7000BFEE001A30EE010A82EE000A82ED000A7E
:101F8000B0BD00BF0000000080B591ED001A91EDDA
:101F9000012AD0F814E0008831EE023AB6EE000AC9
:101FA00031EE421AB0F1010C23EE003A21EE001A94
:101FB00082ED003A82ED011A08BF80BD01F10803ED
:101FC00001EBCC010EF108000832043111ED011AC9
:101FD00091ED002A93ED003A93ED014A90ED005AFD
:101FE00090ED016A33EE417A72EE040A67EE051A4B
:101FF00060EE862A27EE066A31EE031A34EE422A94
:1020000025EE205A31EE611A32EE062A31EE621ABE
:1020100032EE452A21EE001A22EE002A82ED001A45
:1020200082ED012ABCF1010C03F1080300F1080064
:1020300002F10802A1F10801C8D180BD91ED000AAA
:1020400091ED011A0388406930EE002A31EE011A41
:10205000A3F1010C32EE013AB6EE000A32EE411A5B
:1020600023EE003A21EE001A00F1080301F1080006
:1020700001EBCC0182ED003A82ED011A0832043105
:1020800011ED011A90ED003A91ED002A90ED014A10
:1020900093ED005A93ED016A31EE437A72EE040A31
:1020A00067EE051A27EE067A31EE031A34EE422A5D
:1020B00025EE205A20EE866A31EE211A32EE072AEA
:1020C00031EE061A32EE452A21EE001A22EE002ADF
:1020D00082ED001A82ED012ABCF1010C03F1080324
:1020E00000F1080002F10802A1F10801C8D170470F
:1020F0002DE9F04704460E464FF0040A002C50D05C
:10210000002E4ED0307901284BDC00BF2648844297
:1021100002D02648844200D104E040F23A2124A0B3
:1021200001F07EFD00BF2048844216D13068C0F324
:102130001005307940B9A089A9B20843A081E0898F
:1021400040EA1540E08116E0208AA9B208432082C7
:10215000608A40EA154060820DE03088C0F30805CF
:10216000307920B9A089A9B20843A08103E0208A70
:10217000A9B2084320820027B84604F120090DE0E7
:1021800005F0010038B14046411C01F0FF08B2687B
:10219000105C09F807006D08781CC7B2002DEFD15C
:1021A000AA465046BDE8F087000004400004044001
:1021B0002E2E5C6472697665725C7372635C686310
:1021C0003332663436785F6164632E63000000004A
:1021D0002DE9F04104460D464FF0040814B300BF4A
:1021E0001248844202D01248844200D104E04FF4E5
:1021F000417110A001F014FD00BF0C48844202D1CF
:10220000C5F3100501E0C5F30805AEB22F0CA08A96
:102210003043A0820548844202D1E08A3843E082FC
:102220004FF000084046BDE8F08100000000044087
:10223000000404402E2E5C6472697665725C7372D1
:10224000635C68633332663436785F6164632E633F
:102250000000000004490988C0F308021143024A43
:10226000CC3AA2F8CC107047CC00044070B50446BC
:102270000D460426002C1FD000BF1048844202D017
:102280000F48844200D104E040F2E1210DA001F0AA
:10229000C7FC00BF00BF1DB1012D02DB072D00DC14
:1022A00004E040F2E22107A001F0BAFC00BF608820
:1022B00065F30A2060800026304670BD00000440AF
:1022C000000404402E2E5C6472697665725C737241
:1022D000635C68633332663436785F6164632E63AF
:1022E0000000000070B504460D4600BF1CB1012C73
:1022F00002DB0E2C00DC04E040F20E410FA001F0E6
:102300008FFC00BF00BF012D00D005B904E040F2F2
:102310000F410AA001F084FC00BF1048008864F35C
:1023200003000E49C239A1F8C2000846B0F8CE0039
:1023300065F30000A1F8CE0070BD00002E2E5C6495
:1023400072697665725C7372635C6863333266349B
:1023500036785F6164632E6300000000C2000440B1
:102360002DE9F04704460D464FF0FF094FF0000AF3
:1023700000BF1E48844202D01D48844200D104E0C0
:1023800040F292611BA001F04BFC00BF1748844251
:102390000BD100BF112D00D204E040F2966115A0D0
:1023A00001F03EFC00BF00260AE000BF092D00D26C
:1023B00004E040F29B610FA001F032FC00BF042654
:1023C000AF08A8074FEA107804F1380000EB470A7D
:1023D000BAF8000040FA08F000F00F0909EB060017
:1023E00000F0FF094846BDE8F08700000000044007
:1023F000000404402E2E5C6472697665725C737210
:10240000635C68633332663436785F6164632E637D
:102410000000000070B505460C460426002D78D05B
:10242000002C76D000BF3C48854202D03B48854214
:1024300000D104E04FF4837139A001F0F1FB00BF3B
:1024400000BF2078022804D02078012801D020780D
:1024500000B904E040F2071131A001F0E1FB00BF38
:1024600000BF607810B16078012800D104E04FF41B
:1024700084712BA001F0D4FB00BF00BFA07801281D
:1024800001D0A07800B904E040F2091124A001F0C5
:10249000C7FB00BF00BFE07840B1E078012805D05D
:1024A000E078022802D0E078032800D104E04FF45D
:1024B00085711BA001F0B4FB00BF00BF207910B1F3
:1024C0002079012800D104E040F20B1114A001F0A2
:1024D000A7FB00BF002028702178688861F30510F1
:1024E00068806178688861F3C7106880A17868881F
:1024F00061F386106880E178688861F30100688084
:102500002179A88861F38200A880002085F847001F
:102510000026304670BD0000000004400004044066
:102520002E2E5C6472697665725C7372635C68639C
:102530003332663436785F6164632E6300000000D6
:1025400010B5044600BF0CB1012C00D104E04FF4DB
:1025500084610CA001F064FB00BF012C09D111487B
:10256000008820F00F000E300E49C039A1F8C000DD
:1025700007E00C48008820F00F000A49C039A1F894
:10258000C00010BD2E2E5C6472697665725C737239
:10259000635C68633332663436785F6164632E63EC
:1025A00000000000C000044070B50446042584B15A
:1025B00000BF0948844202D00848844200D104E0A8
:1025C00040F2864106A001F02BFB00BF01202070E5
:1025D0000025284670BD00000000044000040440AF
:1025E0002E2E5C6472697665725C7372635C6863DC
:1025F0003332663436785F6164632E630000000016
:1026000000B585B023A00068019023A00068009069
:1026100000BF002002900390049000BF02224121DD
:102620001E4800F029F94120029000208DF80C008E
:1026300001A8049002A91948FFF75AFD052117487F
:10264000FFF714FE41211548FFF7C2FD0222392190
:10265000134800F011F93920029000208DF80C0089
:10266000CDF810D002A90E48FFF742FD07210C4813
:10267000FFF7FCFD39210A48FFF7AAFD01210320DD
:10268000FFF730FE4020FFF7E5FD0120FFF758FF80
:1026900005B000BD1919000032323232000004408A
:1026A0000004044010B5FDF7A8FE00F0B7F8FFF7EE
:1026B000A7FF00F001F810BD00B58DB000BF3021BC
:1026C00001A8FDF75FFE00BF0121480404F08AFE67
:1026D0001120ADF804000020ADF806004948029032
:1026E000494803901120ADF81200ADF81000002009
:1026F00005900021ADF81C100690ADF8241008904C
:1027000001208DF8280001218DF829108DF82A105C
:102710008DF82B1000218DF82C108DF82D10012133
:102720008DF82E1000218DF82F108DF83110012119
:10273000800304F057FE01AA0021344801F028F973
:102740000121324801F07CF8012200212F4800F0DD
:10275000F3FE022200212D4800F0F8FF4FF4E07252
:1027600000212A4801F022FA0920ADF804000020D7
:10277000ADF8060026480290264803900920ADF8DF
:102780001200ADF81000002005900021ADF81C10DB
:102790000690ADF82410089001208DF82800012142
:1027A0008DF829108DF82A108DF82B1000218DF846
:1027B0002C108DF82D1001218DF82E1000218DF890
:1027C0002F108DF831100121C00304F00BFE01AA77
:1027D0000021114801F0DCF801210F4801F030F828
:1027E000012200210C4800F0A7FE022200210A4825
:1027F00000F0ACFF4FF4E2720021074801F0D6F977
:102800000DB000BD500004401415002000300540FC
:102810005004044036150020003405401CB500BFAC
:1028200000200090019000BF8DF800008DF801009D
:1028300001208DF802008DF803000121084604F004
:102840008DFE69460A48FFF7E5FD00208DF800007F
:102850008DF8010001208DF802008DF803000121A0
:10286000022004F07BFE69460248FFF7D3FD1CBD41
:1028700000000440000404402DE9F04106460C46E7
:1028800017460D48864201D1A4B200E0E4B200250B
:102890000EE004F0010040B129463046FFF760FD2C
:1028A00080463946404600F009F86408681CC5B205
:1028B000002CEED1BDE8F081000004402DE9FC4180
:1028C00004460D46002601274FF0010800BF0020F6
:1028D0000090019000BF8DF800508DF80400102C7E
:1028E00039D2DFE804F0080B0E1114171A1D20234B
:1028F00026292C2F3235002601272FE0002602271B
:102900002CE00026042729E00026082726E00026E0
:10291000102723E00026202720E0002640271DE086
:10292000002680271AE00126012717E0012602274A
:1029300014E00226012711E0022602270EE00226FB
:1029400004270BE00226082708E00226102705E0EE
:102950000226202702E04FF0000800BF00BFB8F1B8
:10296000010F04D16A463946304604F0E5FABDE865
:10297000FC8100002DE9F04705460E46144600276D
:102980000021284606F09AFB80460121284606F0E1
:1029900095FB8146012C07D1B8F1010F02D0B9F1A6
:1029A000010F08D1012706E03146284606F086FBD4
:1029B000012800D10127012F0BD1002001E000BF29
:1029C000401C0549096842F21072B1FBF2F18142E4
:1029D000F5D8BDE8F0870000448DFF1F70B50021D9
:1029E00000220024002300287ED0444D2D7805F0DD
:1029F0000705052D16D2DFE805F003070A0E1100C2
:102A00003F4D2D6805603CE03E4D056039E04FF4D8
:102A10000045056035E03B4D056032E04FF4004570
:102A200005602EE0354DDA352D68C5F3C013334D02
:102A3000263DD5F800512A0F304DDA352D68C5F303
:102A400008212E4D263DD5F8005105F01F0453B93D
:102A5000651C2C4EB6FBF5F54E1C7543561CB5FB9C
:102A6000F6F505600CE0012B0AD1254D2E68651C9A
:102A7000B6FBF5F54E1C7543561CB5FBF6F5056027
:102A800000BF00BF1D4E263E0568366AC6F30266CB
:102A9000F5404560194E263E0568366AC6F3025673
:102AA000F5408560154E263E0568366A06F0070635
:102AB000F540C560114E263E0568366AC6F302161B
:102AC000F54005610D4E263E0568366AC6F30226BE
:102AD000F5404561094E263E0568366AC6F3023662
:102AE000F5408561054E00E006E0263E0568366A41
:102AF000C6F30246F540C56170BD000026400540A2
:102B0000408DFF1F00127A0070B5044600BF3CB133
:102B1000012C05D0022C03D0032C01D0042C00D1B1
:102B200004E040F242611EA001F07AF800BF34B127
:102B3000012C0DD0022C14D0032C24D11AE02048F3
:102B4000007800F0010080F0010080F0010524E031
:102B50001B480078C0F3C00080F0010080F0010540
:102B60001BE017480078C0F3401080F0010080F0AF
:102B7000010512E012480078C0F3801080F00100D7
:102B800080F0010509E00E48401D007800F00100CA
:102B900080F0010080F0010500BF00BF284670BD35
:102BA0002E2E5C6472697665725C7372635C686316
:102BB0003332663436785F636C6B2E63000000003E
:102BC0003C400540F8B504460020009000262F4800
:102BD00000884AF2015108432D49A1F8FE0300BFC5
:102BE0000CB1012C00D104E040F2432129A001F0F6
:102BF00017F800BF44BB26482630007800F00700D5
:102C000008B9012636E02B480068C0F3C01088B12F
:102C10001F482A30007800F0010008B9012629E099
:102C20001B483630007820F00100401C184981F81C
:102C300036001FE016483630007820F00100401CB6
:102C4000134981F8360015E011483630007820F03D
:102C500001000F4981F8360000BF0020FFF754FF44
:102C600005460098401C00900098B0F5805F01D2A6
:102C7000012DF2D1054800884FF6FE71084040F45E
:102C800025400349A1F8FE033046F8BDFE43054048
:102C9000004005402E2E5C6472697665725C73722A
:102CA000635C68633332663436785F636C6B2E63C3
:102CB0000000000000410540F8B5044600200090E7
:102CC000002600BF0CB1012C00D104E040F24F31CE
:102CD00020A000F0A5FF00BF264800884AF201515D
:102CE00008432549A1F8FE0394B92348263000780B
:102CF00000F00700052801D101261FE01E482A30F8
:102D0000007820F00100401C1B4981F82A0015E0E2
:102D100019482A30007820F00100174981F82A006C
:102D200000BF0220FFF7F0FE05460098401C00900F
:102D30000098B0F5805F01D2012DF2D10D480088D6
:102D40004FF6FE71084040F425400B49A1F8FE0300
:102D50003046F8BD2E2E5C6472697665725C7372C3
:102D6000635C68633332663436785F636C6B2E6302
:102D700000000000FE4305400040054070B50446D9
:102D800000250026002C7CD000BF2068022803D339
:102D90002068102800D804E040F21D3154A000F053
:102DA0003FFF00BF00BF6068012803D360681028A0
:102DB00000D804E040F21E314DA000F031FF00BF0A
:102DC00000BFA068022803D3A068102800D804E040
:102DD00040F21F3146A000F023FF00BF00BFE068B3
:102DE000142804D3E068B0F5F07F00D804E04FF475
:102DF00048713FA000F014FF00BF00BF2069012808
:102E000003D32069182800D804E040F2213138A00B
:102E100000F006FF00BF3E480068C0F3C01008B9CC
:102E20003C4801E03C4800682169B0FBF1F5E068EE
:102E300000FB05F600BF3948854203D33848854278
:102E400000D804E04FF44A7129A000F0E9FE00BF69
:102E500000BF3448864203D34000864200D804E0D5
:102E600040F2293122A000F0DBFE00BF2E4800888E
:102E70004AF2015108432C4908802078401E2B4912
:102E800000E034E0D1F8001160F31F7120480160C8
:102E90002079401E2549D1F8001160F31B611C48C0
:102EA0000160207A401E2149D1F8001160F31751CA
:102EB00017480160A089401E1C49D1F8001160F339
:102EC000102113480160207C401E1849D1F80011E0
:102ED00060F304011548C0F80011B0F8FE034FF686
:102EE000FE71084040F425401049A1F8FE0370BD72
:102EF0002E2E5C6472697665725C7372635C6863C3
:102F00003332663436785F636C6B2E6300000000EA
:102F10000041054000127A00408DFF1F40420F0023
:102F200000366E01001C4E0EFE4305400040054079
:102F300010B5044600BF0CB1012C00D104E040F2F2
:102F4000FE210FA000F06CFE00BF154800884AF279
:102F5000015108431349A1F8FE030846D0F80001C7
:102F600064F3C710C1F800010846B0F8FE034FF63D
:102F7000FE71084040F425400A49A1F8FE0310BD47
:102F80002E2E5C6472697665725C7372635C686332
:102F90003332663436785F636C6B2E63000000005A
:102FA000FE4305400040054010B586B004460020B1
:102FB00005903848006804903648406803903548CA
:102FC000806802903348C068019000BF1CB1012C9A
:102FD00002DB052C00DC04E040F2DF312EA000F023
:102FE0001FFE00BF34482B4908613448007800F0C8
:102FF0000700052801D0052C0DD13148254908606E
:10300000C01248608860C86000BF0598401C0590E9
:103010000598B028F9D32B4800884AF2015108439B
:1030200026492639A1F8FE03084690F8260064F3E5
:10303000020081F826000846B0F8FE034FF6FE7144
:10304000084040F425401D492639A1F8FE03002020
:10305000059000BF0598401C05900598B028F9D34D
:103060000C490498086003984860029888600198A9
:10307000C8601148401E08610020059000BF0598F7
:10308000401C05900598B028F9D305F09DFB06B0CB
:1030900010BD0000008004402E2E5C6472697665CD
:1030A000725C7372635C68633332663436785F6374
:1030B0006C6B2E63000000000100A5A526400540B2
:1030C000EEFAFFFFFE43054010B586B0044600202F
:1030D000059057480068049055484068039054484C
:1030E000806802905248C068019052485049086177
:1030F000002C7DD000BF2078E178884232DC207837
:10310000617988422EDC2078A17988422ADCA07877
:10311000E178884226DCA0786179884222DC207937
:10312000A179401A03281CD02079A179401A0228DD
:1031300017D02079A179401A012812D02079A179DD
:10314000401A0ED0A0792179401A012809D0A0791F
:103150002179401A022804D0A0792179401A032845
:1031600000D104E040F23E4133A000F059FD00BF21
:103170003948007800F0070005280DD137482C4960
:103180000860C01248608860C86000BF0598401C95
:1031900005900598B028F9D3314800884AF20151CA
:1031A00008432F490880A078E17840EA011021798E
:1031B00040EA0120617940EA0130A17940EA01400A
:1031C000617840EA0150217840EA016040EA0170EC
:1031D000214926390862224800884FF6FE710840CE
:1031E00040F425401C492639A1F8FE03002000E0E8
:1031F0001CE0059000BF0598401C05900598B0287C
:10320000F9D30B49049808600398486002988860D5
:103210000198C8600748401E08610020059000BF63
:103220000598401C05900598B028F9D306B010BD4C
:10323000008004400100A5A52E2E5C6472697665AD
:10324000725C7372635C68633332663436785F63D2
:103250006C6B2E630000000026400540EEFAFFFF75
:10326000FE43054070B506460C46154600BFA8480B
:10327000864202D0A748864200D104E040F2736142
:10328000A5A000F0CDFC00BF00BF2CB1012C03D0E5
:10329000022C01D0032C00D104E040F274619EA006
:1032A00000F0BEFC00BF00BF287828B128780128B4
:1032B00002D02878022800D104E040F2756196A07F
:1032C00000F0AEFC00BF00BF687828B16878012824
:1032D00002D06878022800D104E040F276618EA026
:1032E00000F09EFC00BF00BFA87810B1A8780128AC
:1032F00000D104E040F2776187A000F091FC00BFAC
:1033000000BFE87810B1E878012800D104E04FF45C
:10331000CF6181A000F084FC00BF00BF287910B10C
:103320002879012800D104E040F279617AA000F008
:1033300077FC00BF00BF687910B16879012800D11F
:1033400004E040F27A6174A000F06AFC00BF00BFA4
:10335000A87928B1A879012802D0A879022800D13B
:1033600004E040F27B616CA000F05AFC00BF00BF9B
:10337000E87910B1E879012800D104E040F27C61DD
:1033800065A000F04DFC00BF00BF287A10B1287A7C
:10339000012800D104E040F27D615FA000F040FC14
:1033A00000BF00BF687A10B1687A012800D104E03C
:1033B00040F27E6158A000F033FC00BF00BF06F170
:1033C0005C0000EB8410006820F0030029780843BB
:1033D00006F15C0101EB8411086000BF00BF06F13B
:1033E0005C0000EB8410006820F00C00697840EA73
:1033F000810106F15C0000EB8410016000BF00BF9A
:1034000006F15C0000EB8410006820F01000A97841
:1034100040EA011106F15C0000EB8410016000BF7E
:1034200000BF06F15C0000EB8410006820F0200073
:10343000E97840EA411106F15C0000EB841001607C
:1034400000BF00BF06F15C0000EB8410006820F0B4
:103450004000297940EA811106F15C0000EB8410FC
:10346000016000BF00BF06F15C0000EB8410006843
:1034700020F08000697940EAC11106F15C0000EBA0
:103480008410016000BF00BF06F15C0000EB8410F7
:10349000006820F44070A97940EA012106F15C003F
:1034A00000EB8410016000BF00BF06F15C0000EB80
:1034B0008410006820F48060E97940EA812106F1F7
:1034C0005C0000EB8410016000BF00BF06F15C00EF
:1034D00000EB8410006820F40060297A40EAC121E2
:1034E00006F15C0000EB8410016000BF00BF06F134
:1034F0005C0000EB8410006820F48050697A40EA98
:10350000013106F15C0000EB8410016000BF70BD6A
:1035100000300540003405402E2E5C6472697665EB
:10352000725C7372635C68633332663436785F64EE
:103530006D61632E630000002DE9F04704460D46DF
:1035400090460026B14600BF7548844202D07548B7
:10355000844200D104E040F29A2173A000F060FBA5
:1035600000BF00BF2DB1012D03D0022D01D0032DCE
:1035700000D104E040F29B216BA000F051FB00BFA2
:1035800000BFB8F1000F02D0B8F1010F00D104E084
:103590004FF4277164A000F043FB00BF6A48007835
:1035A000002872D1012068490870E0690121A94012
:1035B00020EA0109B9F1000F68D0E06900F00100CC
:1035C000E0B1DDB1A06C070CA06E0A21B1EB104F89
:1035D00014D3A06EB7EB104F10D90AE0701C86B25E
:1035E000B6F5A04F05D90020574908700920BDE85D
:1035F000F087E06900F001000028EFD1E06900F0F9
:103600000200022820D1012D1ED0D4F88800070C1A
:10361000D4F8A8000A21B1EB104F15D3D4F8A800B4
:10362000B7EB104F10D9002609E0701C86B2B6F532
:10363000A04F04D90020444908700920D7E7E06969
:1036400000F002000028F0D1E06900F00400042836
:1036500022D1022D20D00026D4F8C800070CD4F8BF
:10366000E8000A21B1EB104F16D3D4F8E800B7EB0D
:10367000104F11D90BE0701C86B2B6F5A04F06D9D9
:103680000020314908700920B1E746E02AE0E069EE
:1036900000F004000028EED1E06900F008000828DE
:1036A00020D1032D1ED00026D4F80801070CD4F831
:1036B00028010A21B1EB104F14D3D4F82801B7EB3D
:1036C000104F0FD909E0701C86B2B6F5A04F04D98F
:1036D00000201D490870092089E7E06900F0080012
:1036E0000028F0D1B8F1000F0AD0B8F1010F0FD1C6
:1036F000E0690121A94001F00F010843E06107E002
:10370000E0690121A9400F228A431040E06100BF17
:1037100000BF00200C49087069E7012067E700003E
:1037200000300540003405402E2E5C6472697665D9
:10373000725C7372635C68633332663436785F64DC
:103740006D61632E63000000088EFF1F2DE9F041BC
:1037500005460C461646002700BF2F48854202D07A
:103760002E48854200D104E040F261212CA000F0F7
:1037700057FA00BF00BF2CB1012C03D0022C01D09E
:10378000032C00D104E040F2622125A000F048FAA9
:1037900000BF00BF2EB1012E03D0022E01D0032E98
:1037A00000D104E040F263211DA000F039FA00BF0F
:1037B0003CB1012C05D0022C03D0032C01D00427EE
:1037C00026E036B1012E0AD0022E10D0032E1CD1D5
:1037D00013E068690121A1400843686117E0686946
:1037E00004F1100101228A40104368610FE0A869CA
:1037F0000121A1400843A86109E0A86904F1100172
:1038000001228A401043A86101E0042700BF00BFE5
:103810003846BDE8F0810000003005400034054026
:103820002E2E5C6472697665725C7372635C686389
:103830003332663436785F646D61632E6300000056
:1038400070B504460D4600BF0E48844202D00E48B3
:10385000844200D104E040F295110CA000F0E0F9A0
:1038600000BF00BF0DB1012D00D104E04FF4CB71BA
:1038700006A000F0D5F900BF206865F300002060C5
:1038800070BD000000300540003405402E2E5C6401
:1038900072697665725C7372635C68633332663436
:1038A00036785F646D61632E630000002DE9F0419E
:1038B00005460C461646002700BF2B48854202D01D
:1038C0002A48854200D104E040F22B2128A000F0D4
:1038D000A7F900BF00BF2CB1012C03D0022C01D0EE
:1038E000032C00D104E04FF40B7121A000F098F9F3
:1038F00000BF00BF2EB1012E03D0022E01D0032E37
:1039000000D104E040F22D2119A000F089F900BF98
:1039100036B1012E0AD0022E10D0032E1CD113E096
:1039200068680121A14000EA010716E0686804F117
:10393000100101228A4000EA02070EE0A868012176
:10394000A14000EA010708E0A86804F11001012283
:103950008A4000EA020700E000BF00BF17B1012063
:10396000BDE8F0810020FBE7003005400034054051
:103970002E2E5C6472697665725C7372635C686338
:103980003332663436785F646D61632E6300000005
:1039900070B505460C46164600BF7948854202D0F0
:1039A0007848854200D104E040F2B46176A000F08E
:1039B00037F900BF00BF2CB1012C03D0022C01D07D
:1039C000032C00D104E040F2B5616FA000F028F9AB
:1039D00000BF00BF308800F47C4000B904E040F232
:1039E000B66169A000F01CF900BF00BFB0780020EC
:1039F00000B904E040F2B76163A000F011F900BF24
:103A000000BFB0896FF3090000B904E04FF4D7613B
:103A10005DA000F005F900BF00BFF0896FF3090059
:103A200000B904E040F2B96157A000F0F9F800BF16
:103A300001212846FFF704FF05F15C0000EB84102C
:103A4000006820F4805105F15C0000EB84100160F7
:103A500005F1400000EB84107168016005F144003D
:103A600000EB8410B168016000BF05F1480000EB75
:103A7000841000686FF309003188084305F148019C
:103A800001EB8411086000BF00BF718805F1480098
:103A900000EB8410006861F31F4005F1480101EB61
:103AA0008411086000BF00BF05F14C0000EB8410DA
:103AB00000686FF30900B189084305F14C0101EB7F
:103AC0008411086000BF00BF05F14C0000EB8410BA
:103AD000006835490840F18940EA014105F14C0090
:103AE00000EB8410016000BF00BF05F1500000EB47
:103AF000841000686FF313007169084305F15001E9
:103B000001EB8411086000BF00BF318B05F150004C
:103B100000EB8410006861F31F5005F1500101EBC8
:103B20008411086000BF00BF05F1540000EB841051
:103B300000686FF31300F169084305F1540101EBCC
:103B40008411086000BF00BF318C05F1540000EB08
:103B50008410006861F31F5005F1540101EB8411DA
:103B6000086000BF05F1580000EB84103169016066
:103B700006F1240221462846FFF774FB70BD0000C1
:103B800000300540003405402E2E5C647269766575
:103B9000725C7372635C68633332663436785F6478
:103BA0006D61632E63000000FFFF00FC70B50446EA
:103BB0000D46164600BF0F48844202D00E4884428C
:103BC00000D104E040F234610CA000F029F800BFFD
:103BD0000848844205D1114901EB8500C0F81468FA
:103BE00007E00548844204D10C4901EB8500C0F888
:103BF000246870BD00300540003405402E2E5C6402
:103C000072697665725C7372635C686333326634C2
:103C100036785F646D61632E630000000000014030
:103C200070B504460D462A46214602A006F038FB30
:103C300000BFFEE757726F6E6720706172616D653D
:103C4000746572732076616C75653A2066696C657F
:103C5000202573206F6E206C696E652025640D0A27
:103C60000000000010B5AFF3008010BD04494860AB
:103C700000BF03490968C1F380110029F9D07047DA
:103C8000001002400021044A116000BF0249096887
:103C90008142FBD3704700000C8EFF1F0149086072
:103CA000704700001404014010B5044600BF0CB179
:103CB000012C00D104E04FF4A57105A0FFF7B0FF7F
:103CC00000BF0B48006864F300000949086010BD9C
:103CD0002E2E5C6472697665725C7372635C6863D5
:103CE0003332663436785F65666D2E6300000000FF
:103CF0000C04014010B5044600BF0CB1012C00D1EA
:103D000003E0DA2107A0FFF78BFF00BF012C01D0F1
:103D1000012100E000210B48006861F3000009491F
:103D2000086010BD2E2E5C6472697665725C7372D9
:103D3000635C68633332663436785F65666D2E6324
:103D4000000000000404014010B5044600BF012C2F
:103D50000CD0022C0AD0042C08D0082C06D0102C31
:103D600004D0202C02D0B4F5807F00D104E04FF4C1
:103D7000DA7106A0FFF754FF00BF0C48006820402E
:103D800008B1012010BD0020FCE700002E2E5C646D
:103D900072697665725C7372635C68633332663431
:103DA00036785F65666D2E630000000010040140E8
:103DB00010B5044600BF0CB1012C00D104E040F264
:103DC0000F1105A0FFF72CFF00BF0B48006864F33C
:103DD00010400949086010BD2E2E5C64726976653A
:103DE000725C7372635C68633332663436785F6525
:103DF000666D2E630000000008040140044800685E
:103E0000012804D143F2102001490860086070477E
:103E1000000401402DE9F04104460026002700BFC0
:103E20001CB11CB12448844200D804E040F21B318C
:103E300022A0FFF7F5FE00BF3F20FFF72FFF274826
:103E40000068C0F300452548006820F4803023490D
:103E500008600120FFF728FF2048001D006820F0BF
:103E6000700040301D49091D08601D48206005E0B4
:103E7000701C86B2B6F5805F00D909271748083054
:103E80000068C0F300200028F2D01020FFF706FFE2
:103E90001248001D006820F070001049091D0860DC
:103EA0000020FFF701FF0D48006865F310400B4943
:103EB00008603846BDE8F081DFFF07002E2E5C6405
:103EC00072697665725C7372635C68633332663400
:103ED00036785F65666D2E630000000008040140BF
:103EE0007856341210B5044600BFECB1012C1BD03B
:103EF000022C19D0032C17D0042C15D0052C13D06C
:103F0000062C11D0072C0FD0082C0DD0092C0BD06B
:103F10000A2C09D00B2C07D00C2C05D00D2C03D06B
:103F20000E2C01D00F2C00D103E0FB2105A0FFF7E0
:103F300077FE00BF0B48006864F30710094908606A
:103F400010BD00002E2E5C6472697665725C73721F
:103F5000635C68633332663436785F65666D2E6302
:103F600000000000080401402DE9F04104460D4620
:103F70004FF00008002700BF1CB11CB12748844245
:103F800000D804E040F23A2125A0FFF749FE00BF27
:103F90003F20FFF783FE2A480068C0F30046284808
:103FA000006820F48030264908600120FFF77CFE7D
:103FB0002348001D006820F0700010302049091DC2
:103FC0000860256006E0781C87B2B7F5805F01D9EC
:103FD0004FF009081A4808300068C0F30020002894
:103FE000F1D02068A84201D04FF001081020FFF75F
:103FF00055FE1348001D006820F070001049091D8F
:1040000008600020FFF750FE0D48006866F310407E
:104010000B4908604046BDE8F0810000DFFF070063
:104020002E2E5C6472697665725C7372635C686381
:104030003332663436785F65666D2E6300000000AB
:104040000804014040F223100249086043F21020A6
:1040500008607047000401400021016141688160EF
:104060004168C16070470146086908B9012070477E
:104070000020FCE730B500232AE0046904B930BD14
:104080004568C468641B0569B5EB640F07D9056909
:104090000468641BC56805EB4404846004E0D0E94F
:1040A0000345A4EB45048460846824880C808468FC
:1040B000A41C8460891C0469641E0461D0E9005456
:1040C00004EB45048568AC4201D8446884605B1CFD
:1040D0009342D2D300BFD2E730B5002319E0046881
:1040E000641E0569A54200D930BD0C88C5682C80C6
:1040F000C468A41CC460891C0469641C0461D0E900
:10410000005404EB4504C568AC4201D84468C4605F
:104110005B1C9342E3D300BFE6E713B504460122DC
:1041200001A92046FFF7D8FF1CBD00002DE9F14F83
:104130002DED0A0B2DED108BADF5A44D0646B0EE1E
:1041400040AAF0EE60AAB0EE41BAF0EE61BAB0EE6D
:10415000439AF0EE639AB0EE44CAF0EE64CA4FF4AC
:10416000805145F2E8106844FDF717FE00210DF577
:10417000A040C0F8E41100240027002589468846A5
:104180009FEDFE0A80ED760A9FEDFC0AF0EE408A74
:104190009FEDFA0AB0EE40FA9FEDF80A10EE10AA71
:1041A0009FEDF60A10EE10BA9FEDF40AB0EE408AC9
:1041B0009FEDF20AF0EE40FA00BF13E036F9150069
:1041C00000EE100AB8EEC00AED4800EB8500D0ED15
:1041D000000A20EE200AEB4800EB850080ED000A83
:1041E000681C85B2B5F5805FE8DB0023E64AE54947
:1041F00045F2E8106844FDF7ADFD4FF48052E34905
:10420000E148FDF7E9F800240FE0E04800EB840006
:1042100090ED000ADFEDDE0A80EE201ADB4800EBAD
:10422000840080ED001A601C84B2B4F5006FECDBF2
:10423000002410E0D549601C01EB800090ED000ADD
:10424000F0EE000A20EE200A601C01EB800080EDF9
:10425000000A601C84B2B4F5006FEBDB00240BE0B5
:10426000CA4800EB840090ED000ACA4800EB8400C5
:1042700080ED000A601C84B2B4F5006FF0DBC64824
:104280000068FCF770FA41EC1D0B24ABBD4AB0EEA0
:104290004D2AF0EE6D2A9FEDC11B9FEDC20B4FF42E
:1042A0000061BC480BF0A8FA24981FFA80F900249A
:1042B00011E0B44901EB840090ED000A0DF5A04037
:1042C00080ED760A90ED760AB24901EB840080ED2C
:1042D000000A601C84B24C45EBDB00240EE0AD48C4
:1042E00000EB840090ED000A601CC0F54870AF49F7
:1042F00001EB800080ED000A601C84B2B4F5487FB9
:10430000EDDB00240DE0A34800EB840090ED000AF3
:10431000A04904F5487001EB800080ED000A601CA4
:1043200084B2B4F5487FEEDB00240BE09F4800EB3D
:10433000840090ED000A974800EB840080ED000AAD
:10434000601C84B2B4F5487FF0DB002412E0914891
:1043500000EB840090ED000AB4EEE80AF1EE10FAEA
:1043600006DD8C4800EB840090ED000AF0EE408AF8
:10437000601C84B2B4F5C86FE9DB00245CE08548BA
:1043800000EB840090ED000A10EE10AA9FED880B60
:1043900006F0C2F88DED100B18EE900AFCF739FA12
:1043A000CDE90A015046FCF734FACDE906019DED4E
:1043B000060B06F0A5F88DED080B9DED0A0B53ECEE
:1043C000102B9DED080B51EC100BFCF75DF941EC47
:1043D0001E0B9FED790B53EC102BFCF73CF8CDE94D
:1043E0000C019DED0C0B06F097F8B0EE40DAF0EE04
:1043F00060DA9FED6F0B53EC102B51EC1D0BFCF7AB
:10440000D1F8CDE90E019DED100B53EC102B9DED75
:104410000E0B51EC100BFCF737F9CDE912019DEDB5
:10442000120B51EC100BFCF737FA43F6D801694434
:1044300041F82400601C84B2B4F5C86F9FDB41F6DC
:10444000D870684445F2DC136B4426AA00900DF541
:10445000A04090ED942BB0EE4B1AF0EE6B1AB0EE3C
:104460004A0AF0EE6A0A4FF4C8614A4807F0BAFFF8
:104470000DF5A040D0F8E0011FFA80F8002416E006
:1044800041F6D870684400EB840090ED000AB4EE69
:10449000CF0AF1EE10FA08DD41F6D870684400EB5F
:1044A000840090ED000AB0EE40FA601C84B24445EE
:1044B000E6DB00245EE041F6D870684400EB84003F
:1044C00090ED000A10EE10BA9FED390B06F024F8BB
:1044D000B0EE40DAF0EE60DA1FEE100AFCF799F960
:1044E000CDE90A015846FCF794F9CDE906019DEDA6
:1044F000060B06F005F88DED080B9DED0A0B53EC4D
:10450000102B9DED080B51EC100BFCF7BDF89FED47
:104510002A0B53EC102BCDE90C019DED0C0B51EC4B
:10452000100BFBF798FFCDE90E019DED0E0B05F08A
:10453000F3FF8DED100B9FED1E0B53EC102B9DED3B
:10454000100B51EC100BFCF72DF853EC1D2BCDE9A3
:1045500012019DED120B51EC100BFCF795F841EC9C
:104560001E0BFCF799F941F6D871694441F8240013
:10457000601C84B244459EDB22E000000000000085
:1045800068140100C8410020C8810020C8C1002073
:104590000000804548150020248EFF1F0000000009
:1045A00000000040000000000000304048350020BE
:1045B0000000000000002440000000000000F03F68
:1045C00040F21F34F8E053EC1B2B51EC1A0BFBF7B5
:1045D00042FF1FED0E0B53EC102BCDE910019DEDAA
:1045E000100B51EC100BFCF74FF841EC1E0B204662
:1045F000FCF7CAF853EC1E2BCDE912019DED120B0E
:1046000051EC100BFBF7C8FF41EC1D0BFCF7E8F871
:1046100087B243F6D800684400EB840090ED000AAE
:1046200041F6D870684400EB8700D0ED000A30EE08
:10463000600AB0EE408AB4EEEF8AF1EE10FA01DDC6
:10464000F0EE48FA41F6D870684400EB870090ED30
:10465000000A10EE101A0846FCF7DBF853EC192B91
:10466000CDE912019DED120B51EC100BFBF7F3FE9F
:1046700041EC1D0B43F6D800684400EB840090ED3C
:10468000000A10EE101A0846FCF7C3F841EC1E0BA6
:1046900053EC1D2BFCF7E8F87ED201200DF5A0426B
:1046A000C2F8E40118EE100AFCF7B3F841EC1D0B58
:1046B0008DED009B53EC1D2B55A114A805F000FEB9
:1046C00014AA5FA1002003F094F99FED5E0A28EE82
:1046D000000AF1EE000A80EE201A5B4880ED001A15
:1046E00090ED000AF1EE080AB4EEE00AF1EE10FADD
:1046F00004D2B1EE080A80ED000A0DE0524890EDB8
:10470000000AF3EE0E0AB4EEE00AF1EE10FA03DD51
:10471000B3EE0E0A80ED000A4B4890ED000A4B48BC
:10472000D0ED000AB4EE600AF1EE10FA18D0484855
:10473000006878B14448D0ED000AB7EE001AB6EE32
:10474000000A00EE810ABDEEC00A10EE101AAA207F
:104750000AF0AEFA3C4890ED000A3C4880ED000AB1
:104760006420FFF78FFA3B4890ED000AB4EE408AD0
:10477000F1EE10FA1DD080ED008A3748006801285C
:1047800012D1364890ED000AB4EEC80AF1EE10FAE4
:1047900001D280ED008A00E00CE0304890ED000A84
:1047A0002F4880ED000A04E01FED8C0A2B4880EDB5
:1047B000000A20E0601C84B253EC1C2B9FED290BF7
:1047C00051EC100BFBF747FE41EC1E0B1FED8B0B62
:1047D00053EC102BFBF7E6FECDE912012046FBF768
:1047E000D3FF41EC1D0B9DED120B53EC102BFCF78E
:1047F00023F8FFF4E8AE00BF0DF5A040D0F8E401C7
:104800000DF5A44DBDEC108B0BB0BDE8F08F000092
:104810006672657120646F6D61696E206366617296
:1048200020747269676765722076616C75653A20DD
:10483000252E336C662D252E336C660D0A00000084
:104840002573000000007042888DFF1F348EFF1F0B
:10485000B08DFF1F2C8EFF1F908DFF1F308EFF1F0E
:10486000A08DFF1F000000000000494010B5AFF30D
:10487000008010BD10B50348006810B101490868F8
:10488000804710BD1413002010B50348406810B1D4
:1048900001494868804710BD1413002010B5034833
:1048A000806810B101498868804710BD141300204A
:1048B00010B50348C06810B10149C868804710BDF1
:1048C0001413002010B50348006910B101490869AC
:1048D000804710BD1413002010B50348406910B183
:1048E00001494869804710BD1413002010B50348E2
:1048F000806910B101498869804710BD14130020F8
:1049000010B50348C06910B10149C869804710BD9E
:104910001413002010B50348006A10B10149086A59
:10492000804710BD1413002010B50348406A10B131
:104930000149486A804710BD1413002010B5034890
:10494000806A10B10149886A804710BD14130020A5
:1049500010B50348C06A10B10149C86A804710BD4C
:104960001413002010B50348006B10B10149086B07
:10497000804710BD1413002010B50348406B10B1E0
:104980000149486B804710BD1413002010B503483F
:10499000806B10B10149886B804710BD1413002053
:1049A00010B50348C06B10B10149C86B804710BDFA
:1049B0001413002010B50348006C10B10149086CB5
:1049C000804710BD1413002010B50348406C10B18F
:1049D0000149486C804710BD1413002010B50348EE
:1049E000806C10B10149886C804710BD1413002001
:1049F00010B50348C06C10B10149C86C804710BDA8
:104A00001413002010B50348006D10B10149086D62
:104A1000804710BD1413002010B50348406D10B13D
:104A20000149486D804710BD1413002010B503489C
:104A3000806D10B10149886D804710BD14130020AE
:104A400010B50348C06D10B10149C86D804710BD55
:104A50001413002010B50348006E10B10149086E10
:104A6000804710BD1413002010B50348406E10B1EC
:104A70000149486E804710BD1413002010B503484B
:104A8000806E10B10149886E804710BD141300205C
:104A900010B50348C06E10B10149C86E804710BD03
:104AA0001413002010B50348006F10B10149086FBE
:104AB000804710BD1413002010B50348406F10B19B
:104AC0000149486F804710BD1413002010B50348FA
:104AD000806F10B10149886F804710BD141300200A
:104AE00010B50348C06F10B10149C86F804710BDB1
:104AF0001413002010B50448D0F8800018B1024902
:104B0000D1F88000804710BD1413002010B5044870
:104B1000D0F8840018B10249D1F88400804710BD54
:104B20001413002010B50448D0F8880018B10249C9
:104B3000D1F88800804710BD1413002010B5044838
:104B4000D0F88C0018B10249D1F88C00804710BD14
:104B50001413002010B50448D0F8900018B1024991
:104B6000D1F89000804710BD1413002010B5044800
:104B7000D0F8940018B10249D1F89400804710BDD4
:104B80001413002010B50448D0F8980018B1024959
:104B9000D1F89800804710BD1413002010B50448C8
:104BA000D0F89C0018B10249D1F89C00804710BD94
:104BB0001413002010B50448D0F8A00018B1024921
:104BC000D1F8A000804710BD1413002010B5044890
:104BD000D0F8A40018B10249D1F8A400804710BD54
:104BE0001413002010B50448D0F8A80018B10249E9
:104BF000D1F8A800804710BD1413002010B5044858
:104C0000D0F8AC0018B10249D1F8AC00804710BD13
:104C10001413002010B50448D0F8B00018B10249B0
:104C2000D1F8B000804710BD1413002010B504481F
:104C3000D0F8B40018B10249D1F8B400804710BDD3
:104C40001413002010B50448D0F8B80018B1024978
:104C5000D1F8B800804710BD1413002010B50448E7
:104C6000D0F8BC0018B10249D1F8BC00804710BD93
:104C70001413002010B50448D0F8C00018B1024940
:104C8000D1F8C000804710BD1413002010B50448AF
:104C9000D0F8C40018B10249D1F8C400804710BD53
:104CA0001413002010B50448D0F8C80018B1024908
:104CB000D1F8C800804710BD1413002010B5044877
:104CC000D0F8CC0018B10249D1F8CC00804710BD13
:104CD0001413002010B50448D0F8D00018B10249D0
:104CE000D1F8D000804710BD1413002010B504483F
:104CF000D0F8D40018B10249D1F8D400804710BDD3
:104D00001413002010B50448D0F8D80018B1024997
:104D1000D1F8D800804710BD1413002010B5044806
:104D2000D0F8DC0018B10249D1F8DC00804710BD92
:104D30001413002010B50448D0F8E00018B102495F
:104D4000D1F8E000804710BD1413002010B50448CE
:104D5000D0F8E40018B10249D1F8E400804710BD52
:104D60001413002010B50448D0F8E80018B1024927
:104D7000D1F8E800804710BD1413002010B5044896
:104D8000D0F8EC0018B10249D1F8EC00804710BD12
:104D90001413002010B50448D0F8F00018B10249EF
:104DA000D1F8F000804710BD1413002010B504485E
:104DB000D0F8F40018B10249D1F8F400804710BDD2
:104DC0001413002010B50448D0F8F80018B10249B7
:104DD000D1F8F800804710BD1413002010B5044826
:104DE000D0F8FC0018B10249D1F8FC00804710BD92
:104DF0001413002010B50448D0F8000118B102497E
:104E0000D1F80001804710BD1413002010B50448EC
:104E1000D0F8040118B10249D1F80401804710BD4F
:104E20001413002010B50448D0F8080118B1024945
:104E3000D1F80801804710BD1413002010B50448B4
:104E4000D0F80C0118B10249D1F80C01804710BD0F
:104E50001413002010B50448D0F8100118B102490D
:104E6000D1F81001804710BD1413002010B504487C
:104E7000D0F8140118B10249D1F81401804710BDCF
:104E80001413002010B50448D0F8180118B10249D5
:104E9000D1F81801804710BD1413002010B5044844
:104EA000D0F81C0118B10249D1F81C01804710BD8F
:104EB0001413002010B50448D0F8200118B102499D
:104EC000D1F82001804710BD1413002010B504480C
:104ED000D0F8240118B10249D1F82401804710BD4F
:104EE0001413002010B50448D0F8280118B1024965
:104EF000D1F82801804710BD1413002010B50448D4
:104F0000D0F82C0118B10249D1F82C01804710BD0E
:104F10001413002010B50448D0F8300118B102492C
:104F2000D1F83001804710BD1413002010B504489B
:104F3000D0F8340118B10249D1F83401804710BDCE
:104F40001413002010B50448D0F8380118B10249F4
:104F5000D1F83801804710BD1413002010B5044863
:104F6000D0F83C0118B10249D1F83C01804710BD8E
:104F70001413002010B50448D0F8400118B10249BC
:104F8000D1F84001804710BD1413002010B504482B
:104F9000D0F8440118B10249D1F84401804710BD4E
:104FA0001413002010B50448D0F8480118B1024984
:104FB000D1F84801804710BD1413002010B50448F3
:104FC000D0F84C0118B10249D1F84C01804710BD0E
:104FD0001413002010B50448D0F8500118B102494C
:104FE000D1F85001804710BD1413002010B50448BB
:104FF000D0F8540118B10249D1F85401804710BDCE
:105000001413002010B50448D0F8580118B1024913
:10501000D1F85801804710BD1413002010B5044882
:10502000D0F85C0118B10249D1F85C01804710BD8D
:105030001413002010B50448D0F8600118B10249DB
:10504000D1F86001804710BD1413002010B504484A
:10505000D0F8640118B10249D1F86401804710BD4D
:105060001413002010B50448D0F8680118B10249A3
:10507000D1F86801804710BD1413002010B5044812
:10508000D0F86C0118B10249D1F86C01804710BD0D
:105090001413002010B50448D0F8700118B102496B
:1050A000D1F87001804710BD1413002010B50448DA
:1050B000D0F8740118B10249D1F87401804710BDCD
:1050C0001413002010B50448D0F8780118B1024933
:1050D000D1F87801804710BD1413002010B50448A2
:1050E000D0F87C0118B10249D1F87C01804710BD8D
:1050F0001413002010B50448D0F8800118B10249FB
:10510000D1F88001804710BD1413002010B5044869
:10511000D0F8840118B10249D1F88401804710BD4C
:105120001413002010B50448D0F8880118B10249C2
:10513000D1F88801804710BD1413002010B5044831
:10514000D0F88C0118B10249D1F88C01804710BD0C
:105150001413002010B50448D0F8900118B102498A
:10516000D1F89001804710BD1413002010B50448F9
:10517000D0F8940118B10249D1F89401804710BDCC
:105180001413002010B50448D0F8980118B1024952
:10519000D1F89801804710BD1413002010B50448C1
:1051A000D0F89C0118B10249D1F89C01804710BD8C
:1051B0001413002010B50448D0F8A00118B102491A
:1051C000D1F8A001804710BD1413002010B5044889
:1051D000D0F8A40118B10249D1F8A401804710BD4C
:1051E0001413002010B50448D0F8A80118B10249E2
:1051F000D1F8A801804710BD1413002010B5044851
:10520000D0F8AC0118B10249D1F8AC01804710BD0B
:105210001413002010B50448D0F8B00118B10249A9
:10522000D1F8B001804710BD1413002010B5044818
:10523000D0F8B40118B10249D1F8B401804710BDCB
:105240001413002010B50448D0F8B80118B1024971
:10525000D1F8B801804710BD1413002010B50448E0
:10526000D0F8BC0118B10249D1F8BC01804710BD8B
:105270001413002010B50448D0F8C00118B1024939
:10528000D1F8C001804710BD1413002010B50448A8
:10529000D0F8C40118B10249D1F8C401804710BD4B
:1052A0001413002010B50448D0F8C80118B1024901
:1052B000D1F8C801804710BD1413002010B5044870
:1052C000D0F8CC0118B10249D1F8CC01804710BD0B
:1052D0001413002010B50448D0F8D00118B10249C9
:1052E000D1F8D001804710BD1413002010B5044838
:1052F000D0F8D40118B10249D1F8D401804710BDCB
:105300001413002010B50448D0F8D80118B1024990
:10531000D1F8D801804710BD1413002010B50448FF
:10532000D0F8DC0118B10249D1F8DC01804710BD8A
:105330001413002010B50448D0F8E00118B1024958
:10534000D1F8E001804710BD1413002010B50448C7
:10535000D0F8E40118B10249D1F8E401804710BD4A
:105360001413002010B50448D0F8E80118B1024920
:10537000D1F8E801804710BD1413002010B504488F
:10538000D0F8EC0118B10249D1F8EC01804710BD0A
:105390001413002010B50448D0F8F00118B10249E8
:1053A000D1F8F001804710BD1413002010B5044857
:1053B000D0F8F40118B10249D1F8F401804710BDCA
:1053C0001413002010B50448D0F8F80118B10249B0
:1053D000D1F8F801804710BD1413002010B504481F
:1053E000D0F8FC0118B10249D1F8FC01804710BD8A
:1053F0001413002010B55148046851480068012872
:1054000004D104F0010008B1AFF300804C48001D46
:105410000068012804D104F0020008B1AFF3008055
:10542000474808300068012804D104F0040008B19E
:10543000AFF3008042480C300068012804D104F02A
:10544000080008B1AFF300803D4810300068012823
:1054500004D104F0100008B1AFF3008038481430D4
:105460000068012804D104F0200008B1AFF30080E7
:10547000334818300068012804D104F0400008B116
:10548000AFF300802E481C300068012804D104F0DE
:10549000800008B1AFF3008029482030006801285F
:1054A00004D104F4807008B1AFF3008024482430A4
:1054B0000068012804D104F4007008B1AFF3008043
:1054C0001F4828300068012804D104F4806008B126
:1054D000AFF300801A482C300068012804D104F48E
:1054E000006008B1AFF30080154830300068012833
:1054F00004D104F4805008B1AFF300801048343078
:105500000068012804D104F4005008B1AFF3008012
:105510000B4838300068012804D104F4804008B1F9
:10552000AFF3008006483C300068012804D104F441
:10553000004008B1AFF3008010BD00005C120540D0
:10554000800AA24270B5FE48046800260025FD4886
:10555000006801282BD1FC48006840B9FB4800686E
:10556000012804D104F0010008B1AFF30080F6482F
:105570004030006848B9F54840300068012804D13F
:1055800004F4807008B1AFF30080F148406800F087
:105590000116EF48C1684FF0011020EA010506EA44
:1055A000050020B104F4803008B1AFF30080E94871
:1055B000006801282DD1E448001D006848B9E3487F
:1055C000001D0068012804D104F0020008B1AFF307
:1055D0000080DD484430006848B9DC484430006849
:1055E000012804D104F4007008B1AFF30080D8485A
:1055F000406800F00216D648C1684FF0021020EA59
:10560000010506EA050020B104F4803008B1AFF3CB
:105610000080D148006801282DD1CB4808300068AF
:1056200048B9CA4808300068012804D104F00400D1
:1056300008B1AFF30080C4484830006848B9C34897
:1056400048300068012804D104F4806008B1AFF349
:105650000080BF48406800F00416BD48C1684FF0A4
:10566000041020EA010506EA050020B104F48030A8
:1056700008B1AFF30080B948006801282DD1B248C5
:105680000C30006848B9B1480C300068012804D1DA
:1056900004F0080008B1AFF30080AB484C3000685C
:1056A00048B9AA484C300068012804D104F40060CD
:1056B00008B1AFF30080A648406800F00816A4487F
:1056C000C1684FF0081020EA010506EA050020B184
:1056D00004F4803008B1AFF30080A14800680128CD
:1056E0002CD1A048006840B99F480068012804D127
:1056F00004F0100008B1AFF300809A484030006811
:1057000048B9994840300068012804D104F4805019
:1057100008B1AFF300809548006800F00116934887
:10572000083001684FF0011020EA010506EA050083
:1057300020B104F4003008B1AFF300808C48006859
:1057400001282ED18748001D006848B98648001DF1
:105750000068012804D104F0200008B1AFF30080F4
:1057600080484430006848B97848443000680128CF
:1057700004D104F4005008B1AFF300807B48006806
:1057800000F002167948083001684FF0021020EA54
:10579000010506EA050020B104F4003008B1AFF3BA
:1057A00000807448006801282ED16E4808300068D7
:1057B00048B96D4808300068012804D104F0400061
:1057C00008B1AFF3008067484830006848B95F48C7
:1057D00048300068012804D104F4804008B1AFF3D8
:1057E00000806248006800F00416604808300168D4
:1057F0004FF0041020EA010506EA050020B104F488
:10580000003008B1AFF300805B48006801282ED15A
:1058100054480C30006848B953480C3000680128DF
:1058200004D104F0800008B1AFF300804D484C3043
:10583000006848B945484C300068012804D104F498
:10584000004008B1AFF300804848006800F0081637
:105850004648083001684FF0081020EA010506EAC2
:10586000050020B104F4003008B1AFF300804348D4
:105870000068012809D14248006800F00F0020B1FB
:1058800004F4802008B1AFF300803C480830006881
:10589000012809D13948EC380068012804D104F402
:1058A000002008B1AFF300803448001D00680128D3
:1058B00009D13248F0380068012804D104F480107E
:1058C00008B1AFF300804FF01C40C068C0F3C010B7
:1058D00020B104F4800008B1AFF300802948866944
:1058E000456806EA050000F07F0020B104F40000DE
:1058F00008B1AFF3008024480668234814380568CF
:1059000006EA050000F07F0020B104F0807008B1C5
:10591000AFF300801D4806681C481438056806EA85
:10592000050000F07F0020B104F0007008B1AFF373
:105930000080174806681648143805682AE00000F9
:1059400060120540B00BA6420002A6420001A6422A
:1059500000300540B013A642B01BA642B023A642B9
:10596000B08BA6420082A6420081A64204340540C4
:10597000B093A642B09BA642B0A3A64200832042A9
:105980001004014000200540182405401828054057
:10599000182C054006EA050000F07F0020B104F055
:1059A000806008B1AFF3008070BD000010B52F48D3
:1059B00004682F48D0F80802012808D12D48006853
:1059C000012804D104F0010008B1AFF30080294898
:1059D00038380068012809D126484030006801287D
:1059E00004D104F0020008B1AFF30080224800683F
:1059F000012809D1204878300068012804D104F03A
:105A0000040008B1AFF300801B4840300068012853
:105A100009D11948B8300068012804D104F0080001
:105A200008B1AFF3008015480068012809D1134878
:105A300020300068012804D104F4001008B1AFF34D
:105A400000800F48006B012804D104F4800008B1E5
:105A5000AFF300800B48006800F4403020B104F43C
:105A6000000008B1AFF3008010BD000064120540D3
:105A70000000484280024842088248420008A8428A
:105A8000008098420494044070B5AA480468002637
:105A90000025A9480068012808D1A8480068012805
:105AA00004D104F0010008B1AFF30080A248001D4A
:105AB0000068012809D1A148001D0068012804D10F
:105AC00004F0020008B1AFF300809B480830006882
:105AD000012809D1994808300068012804D104F050
