:020000040000FA
:1000000078620220990200000D5B0000BD3B0000F9
:10001000055B0000F90300007D7F00000000000088
:100020000000000000000000000000000D6A000059
:10003000F53300000000000021610000ED6D0000BC
:10004000C53B0000D53B0000E53B0000F53B000050
:10005000053C0000153C0000253C0000353C00003C
:10006000453C0000553C0000653C0000753C00002C
:10007000853C0000953C0000A53C0000B53C00001C
:10008000C53C0000D53C0000E53C0000F53C00000C
:10009000053D0000153D0000253D0000353D0000F8
:1000A000453D0000553D0000653D0000753D0000E8
:1000B000853D0000953D0000A53D0000B53D0000D8
:1000C000C53D0000D93D0000ED3D0000013E0000AF
:1000D000153E0000293E00003D3E0000513E00005C
:1000E000653E0000793E00008D3E0000A13E00000C
:1000F000B53E0000C93E0000DD3E0000F13E0000BC
:10010000053F0000193F00002D3F0000413F000067
:10011000553F0000693F00007D3F0000913F000017
:10012000A53F0000B93F0000CD3F0000E13F0000C7
:10013000F53F0000094000001D4000003140000074
:1001400045400000594000006D4000008140000023
:1001500095400000A9400000BD400000D1400000D3
:10016000E5400000F94000000D4100002141000081
:1001700035410000494100005D410000714100002F
:100180008541000099410000AD410000C1410000DF
:10019000D5410000E9410000FD410000114200008E
:1001A00025420000394200004D420000614200003B
:1001B00075420000894200009D420000B1420000EB
:1001C000C5420000D9420000ED420000014300009A
:1001D00015430000294300003D4300005143000047
:1001E00065430000794300008D430000A1430000F7
:1001F000B5430000C9430000DD430000F1430000A7
:1002000005440000194400002D4400004144000052
:1002100055440000694400007D4400009144000002
:10022000A5440000B9440000CD440000E1440000B2
:10023000F5440000094500001D450000314500005F
:100240004545000075460000194A0000DD4A0000DF
:10025000694D0000DB020000DB020000DB02000051
:10026000B94E0000355100002D530000B954000074
:100270008D5500004D570000415900003D5A0000C7
:10028000DFF810D000F046FC0048004761C00000D5
:10029000AFF300807862022010484FF077010160D0
:1002A0000F484FF0770101600E484FF4885101600C
:1002B0000A484FF07601016009484FF0760101606D
:1002C0000948804709480047FEE7FEE7FEE7FEE7EA
:1002D000FEE7FEE7FEE7FEE7FEE7FEE7040805406F
:1002E0000C08054000080540E96E0000810200008E
:1002F0002DE9F05F0546002092469B46884606465B
:10030000814640241BE0284641464746224600F0ED
:10031000D8FA53465A46C01A914110D3114618468E
:10032000224600F0BFFA2D1A67EB01084F4622461D
:100330000120002100F0B6FA17EB00094E41201E03
:10034000A4F10104DFDC484631462A464346BDE8B5
:10035000F09F40EA01039B0703D009E008C9121F80
:1003600008C0042AFAD203E011F8013B00F8013B6F
:10037000521EF9D27047D2B201E000F8012B491E9B
:10038000FBD270470022F6E710B513460A46044632
:100390001946FFF7F0FF204610BD421C10F8011B64
:1003A0000029FBD1801A7047034611F8012B00F891
:1003B000012B002AF9D11846704710B5484304466E
:1003C0000BF09CFE002805D00021002C02D0641EFA
:1003D0000155FAE710BD0EB5C10F80EAE070084480
:1003E000CA07002140F233438DE80E000A460B464F
:1003F00000F0CFFA03B000BD10B5AFF3008010BD20
:10040000FFFFFFFFFFFFFFFFFFFFFFFFFFFFFFFFFC
:10041000FFFFFFFFFFFFFFFFFFFFFFFFFFFFFFFFEC
:100420002DE9FE4F804681EA0300C00F0C46009084
:1004300021F0004123F00045B8EB0200A94105D2AC
:100440004046214690461C460B46024623F000409B
:10045000104347D0270DC7F30A00C3F30A51029097
:10046000401A019040286BDAC3F3130040F4801B5C
:100470000098924620B10023D2EB030A63EB0B0BEA
:1004800001985946C0F14002504600F00BFA06466A
:100490000D4650465946019A00F023FA10EB080029
:1004A0006141002487EA115284EAE7731A4340D07D
:1004B000009A62B3019A012A4FEA075215DC001B29
:1004C00061EB02014FF0004202EA0752CDE900421F
:1004D000001C41F5801132462B4600F05AFA03B059
:1004E000BDE8F08F40462146F9E7001B61EB0201B1
:1004F000001C41F5801300185B412018A2F500177D
:1005000047EB030140EAD570B6196D4111E06D0863
:100510004FEA360645EAC0754FEA0752001B61EB09
:100520000201001C41F5801149084FEA3000001912
:10053000514132462B4603B0BDE8F04F00F01ABAE5
:100540000098012240000023D0EB020263EBE0732D
:10055000009821464FEAE074B8EB000061EB04011B
:10056000E9E783F000435BE781F0004158E72DE9BC
:10057000FE4F81EA030404F0004421F0004100949E
:100580004FF0000B23F0004350EA01045ED052EA22
:1005900003045BD0C3F30A54C1F30A552C44A4F2FC
:1005A000F3340194A0FB0254C1F3130141F4801110
:1005B000C3F3130343F4801301FB024400FB034E17
:1005C000840A970A44EA815447EA8357A4FB0768E0
:1005D00002958D0A05FB07854FEA932C04FB0C540A
:1005E0002705029D4FEA065847EA1637B5EB08057E
:1005F0006EEB070C870E920E47EA811742EA8312D0
:10060000A7FB0201B6EB0B0164EB00042B0D43EAE0
:100610000C335E1844EB1C50DA465146E7FB0201EE
:10062000C5F313044FEA0B3343EA14534FEA043281
:10063000019C43EA0603A4F10C040294009CCDE95A
:1006400000B400F0A6F903B0BDE8F08F0020014629
:10065000F9E72DE9F04D81EA030404F0004B21F0A5
:10066000004514464FF0000A23F0004150EA05020D
:1006700020D054EA01021DD0C5F30A570246C5F343
:100680001303C1F31300C1F30A5640F4801543F479
:100690008013A7EB0608101BD64608F2FD3873EB53
:1006A000050002D308F1010801E092185B41B8F19E
:1006B000000F03DA00200146BDE8F08D00204FF462
:1006C0008011064684460EE0171B73EB050705D321
:1006D000121B63EB050306434CEA010C49084FEA81
:1006E000300092185B4150EA0107EDD152EA030055
:1006F00012D082EA040083EA0501084305D0101BEA
:10070000AB4106D20122002306E000224FF0004355
:1007100002E06FF0010253101AEB06004CEB085197
:1007200010EB0A0041EB0B01BDE8F04D00F022B9DF
:100730000EB540F2334102910021CDE900110A4685
:100740000B4600F026F903B000BD70B5C1F30A52A4
:1007500001F000450024C1F3130140F2FF3341F4DE
:1007600080119A4201DA002070BD40F233439A4270
:10077000A2F2334203DC524200F0A3F800E09040C2
:100780002C43F1D0404270BDC1F30A5210B5C1F301
:10079000130140F2FF3341F480119A4201DA002044
:1007A00010BD40F233439A42A2F2334203DC52427C
:1007B00000F087F810BD904010BD00F0004230F00E
:1007C00000400AD0C10D01F56071C0F3160042EA85
:1007D0000151C2084007114370470020014670478D
:1007E00030B5041E71F1000404DB4FF000444042B8
:1007F00064EB0101141E73F1000405DB1C464FF08D
:100800000043524263EB04038B4208BF824230BD77
:1008100030B5041E71F1000404DB4FF00044404287
:1008200064EB0101141E73F1000405DB1C464FF05C
:100830000043524263EB0403994208BF904230BD2B
:1008400001F0004330B421F0004150EA010206D02B
:100850000A0DA2F56072C1F31301002A02DC30BC5C
:1008600000207047440F44EAC104C100E01830BCC6
:1008700000EBC25000F047B830B50B4601460020EF
:100880002022012409E021FA02F59D4205D303FA52
:1008900002F5491B04FA02F52844151EA2F10102D3
:1008A000F1DC30BD202A04DB203A00FA02F10020FE
:1008B00070479140C2F1200320FA03F3194390409E
:1008C0007047202A04DB203A21FA02F00021704709
:1008D00021FA02F3D040C2F12002914008431946A8
:1008E0007047202A06DBCB17203A41FA02F043EA90
:1008F000E07306E041FA02F3D040C2F120029140D9
:100900000843194670470029A8BF7047401C49009A
:1009100008BF20F00100704710B4B0FA80FC00FA64
:100920000CF050EA010404BF10BC704749B1CCF18F
:10093000200421FA04F411FA0CF118BF012121431B
:100940000843A3EB0C01CB1D4FEA00614FEA1020D6
:1009500042BF002010BC704700EBC3501044002978
:10096000A4BF10BC7047401C490008BF20F0010024
:1009700010BC704710B5141E73F1000408DA401C57
:1009800041F1000192185B411A4301D120F00100AE
:1009900010BD2DE9F04D92469B4611B1B1FA81F29E
:1009A00002E0B0FA80F220329046FFF77BFF044667
:1009B0000F4640EA0A0041EA0B0153465A460843F3
:1009C00013D0114653EA010019D0C8F14002504635
:1009D000FFF777FF05460E46504659464246FFF759
:1009E00061FF084305D0012004E020463946BDE8F8
:1009F000F08D0020054346EAE0762C4337430A9801
:100A00006305E40AA0EB08000022FD0A44EA47540B
:100A10000A3002D500200146E9E7010510196941B5
:100A2000DDE9084500196941BDE8F04DA2E770B560
:100A300021F0004303430CD0C1F30A550024D5EB49
:100A4000040564EB0403D617AD1AB34102DB0020A2
:100A5000014670BD201841EB025170BD2DE9F041F7
:100A6000054621F000400C46284309D0C4F30A5043
:100A700040F23341884205DD28462146BDE8F08139
:100A80002846FBE740F2FE31884210DC0CDB4FEADF
:100A9000043040EA155050EA053105D0104804F002
:100AA000004101430020E9E700200146E6E7A0F20B
:100AB00033404642C6F1400228462146FFF7F2FE87
:100AC00007468846284621463246FFF7FAFE434647
:100AD0003A46FFF74FFF3246BDE8F041FFF7E2BE6E
:100AE0000000F03FC1F30A52C1F3130140F2FF339B
:100AF00041F480119A4202DA00200146704740F228
:100B000033439A42A2F2334202DC5242FFF7D9BE8B
:100B1000FFF7C8BE064C074D06E0E06840F0010351
:100B200094E8070098471034AC42F6D3FFF7ACFBCB
:100B300020EC020040EC02002DE9F04D00231A46A3
:100B40001B1A8A4103DB00200146BDE8F08DC1F38A
:100B50000A52C1F3130141F480154FF0000BD10785
:100B600002D100186D41521E0027044640F2FF11C9
:100B7000384601EB620A3E468046024600204FF4AA
:100B80008011FFF79EFEC2197141BB1846EB0100B0
:100B9000B4EB030C75EB000C04D3E41A65EB000511
:100BA00017460E46241908F101006D41804634288D
:100BB000E3DDF91946EB0600091BA84103D24FF00B
:100BC000FF32134601E0002213461BEB070046EB01
:100BD0000A51BDE8F04DFFF7CDBE30B58C1810F8C6
:100BE000012B12F00F0301D110F8013B120906D1BD
:100BF00010F8012B03E010F8015B01F8015B5B1EAC
:100C0000F9D101E001F8013B521EFBD1A142E6D32C
:100C1000002030BDF0B5F1B1002300BF02EB430C62
:100C200032F813E0BCF802C02EF0030E2CF0030CD7
:100C300050F80E5050F80C6000EB0E0400EB0C075F
:100C400040F80E6040F80C507E68656802338B42B5
:100C500066607D60E2D3F0BD2DE9F04104889846DE
:100C600016460746012A0D460CD1E4B3281D21463D
:100C700090ED000A0139B1EE400A80ED000A00F162
:100C80000800F5D1FF2C0CDDB4F5806F10DBB4F556
:100C9000805F22D0B4F5006F11D0B4F5806F17D00B
:100CA00021E03F2C10DC102C12D0202C07D01AE0B1
:100CB000B4F5807F03D0B4F5007F0ED013E0384642
:100CC000294600F05FF90EE0402C06D0802C0AD1B6
:100CD0003846294600F08AF805E07A682846214619
:100CE000012300F091FCB8F1000F04D0B989BA6873
:100CF0002846FFF78FFF012E1CD100EE104A002C72
:100D0000B8EE400A08BFBDE8F081B7EE001A81EEE8
:100D1000000A00BF95ED001A95ED012A20EE011A98
:100D200022EE402A85ED001A85ED012A013C05F1ED
:100D30000805EFD1BDE8F08100224260FF294FF0A5
:100D4000FF0201800EDDB1F5806F16DB29D0B1F511
:100D5000805F2BD0B1F5006F46D146F6C043C0F29C
:100D6000010336E03F2913DC102924D020293BD190
:100D700046F6E043C0F201032BE0B1F5807F1FD0BF
:100D8000B1F5007F30D146F60053C0F2010320E0F8
:100D900040291AD0802927D146F6A043C0F201038A
:100DA00017E046F69043C0F2010312E046F6F04326
:100DB000C0F201030DE046F6B043C0F2010308E0C3
:100DC00046F6D043C0F2010303E046F61053C0F2EA
:100DD0000103191D03F108020C331B88126809680E
:100DE0008381C0E90112002250B270472DE9F0471B
:100DF0002DED028B03888046084601EB830AD8F864
:100E000004200021B1EBD30F4FEA530900F0AB806F
:100E1000D9080AEB890C00EB890E0027C4190AEBEC
:100E2000070594ED000A95ED003A94ED011A95ED51
:100E3000014A0EEB07030CEB070694ED022A95ED31
:100E4000025A70EE035A93ED006AD6ED001AD6ED01
:100E5000012AD6ED023AD6ED034AC4ED005A71EEEE
:100E6000045A93ED017AC4ED015A72EE055AD3ED9E
:100E7000020AC4ED025AD4ED035AD5ED036A31EEED
:100E8000441A35EEA68A36EE214AD3ED037A84ED74
:100E9000038A83ED004A37EE224A83ED014A30EEA1
:100EA000A34A83ED024A37EEA44A83ED034AD319DD
:100EB00031EEC64A33EEE06AD3ED000AD3ED011AF3
:100EC00030EE430A32EE452A32EEC75A60EE202A4F
:100ED00061EE213A21EE201A20EE210A31EE400A7D
:100EE00085ED010A24EE210A25EE211A25EE205A6D
:100EF00072EEA32A24EE204A30EE450AC5ED002A00
:100F000086ED000A34EE010A86ED010A93ED020A2D
:100F100093ED031A35EEE63A22EE004A23EE015A2B
:100F200023EE003A22EE012A34EEE77A33EE422A2B
:100F300085ED032A26EE012A27EE011A27EE003A54
:100F400026EE000A34EE054A32EE432A30EE010A5C
:100F5000013907F1100785ED024A86ED022A86ED78
:100F6000030A7FF45BAF4946022300F04DFBD8F83B
:100F70000420504649460223BDEC028BBDE8F047F1
:100F800000F042BB2DE9F04F81B02DED088B8EB003
:100F900002880346500801EB800505EB800691EDC1
:100FA000000A91ED011A96ED002A96ED013A04939C
:100FB0005B6806EB800730EE024A30EE420A31EE03
:100FC000032A31EE431A95ED013A95ED005A059347
:100FD000930897ED017AD7ED000A029374EE452A43
:100FE00072EE433A34EE054A32EE032A6FF0010303
:100FF00034EE204A32EE072A03EB920230EE036A07
:1010000071EE451A30EE430A31EE051A81ED004AC1
:101010000A9181ED012A510836EE476A71EEA01A55
:1010200072EEE02A73EEC73A30EE070A31EE601A2C
:101030000095019603970D91C10085ED006AC5EDFD
:10104000011AC6ED002AC6ED013A87ED000A87EDC8
:10105000011A0C9100EB40016FF007036FF00307DA
:101060004FEA800E07EBC00B07EB800A03EB001979
:1010700003EB81028C000020002500210B9100BFB2
:101080000A9E059B07900695089406EB04080C9CA5
:10109000311806EB040C06EB0E0491ED020A9CEDF0
:1010A000022AD4ED020A30EE026AD8ED022A36EEA8
:1010B000204A34EE224A91ED031A9CED033AD4ED16
:1010C000031AD8ED033A81ED024A94ED034A31EE5A
:1010D000037A98ED035A37EE044ACDF824E034EE53
:1010E000054A81ED034A0B9930EE420A31EE431A6C
:1010F00030EE212A03EB010E32EE634A31EE602A14
:101100000D9932EE225A36EE602A37EE613A30EE11
:10111000610A31EE201A1F18581932EE622A33EE96
:10112000633A30EE230A002931EE621A00F0CC80D7
:101130000A998E1801EB0A0301EB0905594493ED56
:10114000007AD6ED010AD1ED003A77EE202AD5EDEE
:10115000014A72EEA35A75EEA45A13ED016AD6ED58
:10116000001A51ED016AD5ED007AC3ED005A11ED78
:10117000018A76EE215A95ED009A35EE888A38EE8E
:10118000098A03ED018A97ED028A97ED039A24EE0E
:1011900008AA25EE09BA25EE085A24EE094A35EECA
:1011A000444A37EE605A84ED034A36EE614A35EE22
:1011B000666A33EEE47A36EE276A74EE070A66EE64
:1011C000091A20EE899A60EE880A26EE086A3AEE3D
:1011D0000BAA71EEE00A36EE096A84ED02AAC1EDAF
:1011E000000A01ED016A90ED046AD0ED050A62EE95
:1011F000061A23EE208A23EE063A22EE202A33EE48
:10120000422A8CED032A32EEE32A35EEE63A71EEFD
:10121000881A33EE673A32EE642A0D98CCED021A42
:1012200062EE461A23EE066A23EE203A22EE202AC8
:1012300031EEC33A32EE462A013886ED013A86EDA8
:10124000002A0D909EED062A9EED073A0C9820EE9E
:10125000026A61EE030A21EE021A20EE030A083048
:1012600031EE400A37EEE61ADDF824E00C9088ED06
:10127000030A37EE440A31EE451A0B9821EE034A71
:1012800020EE033A20EE020A36EE206A21EE021A20
:1012900034EE400A183088ED026A85ED010A31EE1D
:1012A000030A089C0B9085ED000A069D07980EF135
:1012B000080E083410350830A9F10809083AABF1D6
:1012C000080BAAF1080ADBE697ED026A97ED037AAC
:1012D00064EE060A65EE071A25EE065A24EE074A62
:1012E00030EEA16A35EE444A84ED026A84ED034A89
:1012F00090ED044A90ED055A22EE046A23EE057A39
:1013000023EE043A22EE052A36EE074A33EE422A4D
:101310008CED024A8CED032A9EED062A9EED073ADB
:10132000029D20EE024A21EE035A21EE021A20EE1F
:10133000030A0A98059A34EE052A31EE400A294636
:10134000042388ED022A88ED030A00F05DF9049C6D
:10135000009862682946042300F056F962680198F3
:101360002946042300F050F96268039829460423B3
:101370000EB0BDEC088B01B0BDE8F04F00F044B9F1
:101380002DE9F04381B02DED028B0C4600219046F3
:10139000B1EB920F054674D04FEA980795ED000A1D
:1013A00095ED011A20EE000A21EE011A30EE018AB5
:1013B000B0EE480A08F008FAB4EE400AF1EE10FA6E
:1013C00049D684ED000A95ED020A95ED031A20EE48
:1013D000000A21EE011A30EE018AB0EE480A08F048
:1013E000F3F9B4EE400AF1EE10FA39D684ED010AB1
:1013F00095ED040A95ED051A20EE000A21EE011A7A
:1014000030EE018AB0EE480A08F0DEF9B4EE400A88
:10141000F1EE10FA29D684ED020A95ED060A95ED53
:10142000071A20EE000A21EE011A30EE018AB0EE12
:10143000480A05F1200904F1100608F0C5F9B4EED8
:10144000400AF1EE10FA15D684ED030A013F4D462D
:101450003446A3D113E0B0EE480A08F0B5F9B0E77E
:10146000B0EE480A08F0B0F9C0E7B0EE480A08F05C
:10147000ABF9D0E7B0EE480A08F0A6F9E4E7344645
:101480004D4618F0030620D095ED000A95ED011A9F
:1014900020EE000A21EE011A30EE018AB0EE480A71
:1014A000271D08F091F9B4EE400AF1EE10FA07D6C4
:1014B00084ED000A013E05F108053C46E4D104E054
:1014C000B0EE480A08F080F9F2E7BDEC028B01B0FB
:1014D000BDE8F083F0B590ED000A4C1E4FF0000C13
:1014E000BCEB940F00F1040E3BD001272646A50863
:1014F00067F301064FF0000C042700BF9EED001AB1
:101500009EED012A9EED023AB4EE410A9EED034A99
:10151000F1EE10FABCBFB0EE410AA7F1030CB4EE35
:10152000420AF1EE10FABCBFB0EE420AA7F1020C7B
:10153000B4EE430AF1EE10FABCBFB0EE430AA7F1D5
:10154000010CB4EE440AF1EE10FABCBFB0EE440A4E
:10155000BC46013D07F104070EF1100ECED100EBA1
:10156000860E14F003000ED0404200BFBEEC011AFC
:10157000B4EE410AF1EE10FABCBFB0EE410A01EB45
:10158000000C0130F2D382ED000AC3F800C0F0BDB8
:1015900080B50023B3EB910F1ED09FED1A0A4FEADE
:1015A000910E21F0030C034693ED001A93ED012AEE
:1015B00093ED023A30EE010A93ED034A30EE020A4F
:1015C00030EE030A30EE040ABEF1010E03F11003FF
:1015D000EAD100EB8C0001E09FED0A0A11F0030351
:1015E00006D000BFB0EC011A013B30EE010AF9D180
:1015F00001EE101AB8EE411A80EE010A82ED000ADF
:1016000080BD00BF000000002DE9F04F81B02DED3E
:10161000108BA0B0DFED04CA00900430CDE9023297
:101620000190CDE91E1101E0F304353F1F9A4FF000
:10163000000AD308DF00A7EBD200C0001D904FEADC
:10164000C20C03EB430503EB8302580106931E0112
:10165000019B2C014FEAC20EED00CDE90C0ECDE945
:101660000A5600BF0A9D191803EB05091D9D03EBDF
:101670000E0003EB070810ED014A86469A19181967
:1016800003EB050B13ED011A11ED012A18ED013AD8
:1016900012ED017A50ED010A59ED011A5BED012AB4
:1016A00031EE025A33EE046A77EE203A71EEA24A26
:1016B00075EE235A76EE246A75EEA67A43ED017A2A
:1016C00075EEE65AD8ED007A9EED008A99ED00BAE3
:1016D0009BED00CAD3ED006A41ED015AD1ED005AED
:1016E00092ED009A90ED00AA37EE88EA7BEE0C8A24
:1016F00036EEA5DA39EE0AFA35EE635A36EE646A4A
:101700007EEE684A7DEE0F9A7DEE4F3A35EE24DA92
:1017100035EE645A7EEE28AA02ED01DA33EEC6DA1F
:1017200000ED015A36EE235A31EE421A33EE442AC6
:1017300037EE603A31EEE24A37EEC86A7BEE4C0A89
:1017400079EEAABA79EEEA9A72EE441A32EE042AD7
:1017500036EE604A36EE206AC3ED00BAC1ED009A5B
:1017600082ED00DA80ED005A36EEE55A39EE4A7A1B
:1017700061EEAC1A22EE2C2A24EE2C4A26EE2C6ABC
:1017800071EE210A73EE022A75EE043A77EE064AEC
:1017900031EE611A33EE422A35EE443A37EE464ACC
:1017A0002646744670EEA45A70EEE40A31EE045AEE
:1017B0001F9A1E9948ED015A73EEE25A4BED010A49
:1017C00072EEA30A204604ED015A33EE425ADDF8C8
:1017D00034E0C8ED005ACBED000A84ED005A0C98B5
:1017E00031EE441A34460B9E924409ED011A32EE52
:1017F000031A8A45634489ED001AFFF433AF1F983A
:101800004028C0F0D4810298009E80B205900698CE
:10181000CDE90E4CC0EBC000C0000024012510979C
:10182000049000BF0598039B044403EBC40191EDB1
:10183000000A03EB04128DED1D0A92ED000A04EB81
:10184000440203EBC2008DED1C0A90ED000A03EB8D
:1018500044118DED1B0A91ED000A04EB8401C800D0
:1018600003EBC1018DED1A0A91ED000A4FEAC20A9D
:101870004FEA021B03EB02128DED190A92ED000AEA
:10188000C4EBC4024FEAC40CD10003EBC2028DEDDD
:10189000180A92ED000A0CF104024FEA041E1A44E1
:1018A0008DED170A92ED000A0EF104021A448DED37
:1018B000160A92ED000A0AF104024FEA44191A448A
:1018C0008DED150A92ED000A09F104021A448DED1E
:1018D000140A92ED000A043018448DED130A90EDBD
:1018E000000A0BF1040018448DED120A90ED000A75
:1018F000081D18440994D0ED006A0796B44608956F
:101900002B46DDE90C54DDE90A76DDF810808DED1B
:10191000110A00BF10980E990CEB05090CEB000E94
:101920000CEB04000CEB060B0CEB010A0CEB0702B2
:101930000CEB0801DCED027A99ED028A9EED029A29
:1019400090ED02AA9BED02DA9AED02EA92ED02FA1C
:10195000D1ED028A37EE88BA39EE0ACA7DEE0E9AC8
:101960007FEE28AA7BEE29BAF0EE6C3A7CEE2ACA0A
:101970007BEEACDACCED02DA7BEEECBADCED03CA3E
:10198000D9ED03DADEED03EAD0ED03FA9BED030AAD
:101990009AED031A92ED032A91ED033A3CEEAD4A1B
:1019A0003EEEAF5A30EE016A32EE037A74EE060A6A
:1019B00075EE071ADDED1A4ADDED135A70EEA12A15
:1019C00070EEE10ACCED032A64EEAB1A65EEA02AB4
:1019D00071EEA21A64EEA00A65EEAB2A70EEE20A7E
:1019E000C9ED021AC9ED030A7BEE690A7CEE6A1A98
:1019F00034EE464A35EE475A9DED1CCADDED154AD8
:101A000030EE856A34EE617A6CEE062A24EE87BAEF
:101A10002CEE077A24EE866A30EEC55A31EE844AFF
:101A2000DDED180ADDED111A37EE466A8BED036A1B
:101A300020EE856A21EE847A20EE844A21EE855AD2
:101A400037EE066A34EE454A39EE4A5A3FEE687A76
:101A50007EEEEF1A30EE410A32EE431A7BEE222A76
:101A600035EE472A35EE073A31EEC15A31EE811A8A
:101A7000CBED022A8AED026A8AED034A37EEC84AA4
:101A80003DEE4E6A7CEEED0A22EE232A23EE233A47
:101A900025EE235A21EE231AF0EE63CA34EE027AC1
:101AA00076EE031A70EE852A70EE017ADDED1D3AAE
:101AB000DDED164A37EE278A32EEE19A23EE88AA48
:101AC00024EE89BA23EE899ADDED173A37EE677A6C
:101AD00071EEA21A63EE872A66EEA17A63EEA11A6E
:101AE00026EE877A24EE888A31EEC77A34EE422ACF
:101AF00036EE433A30EEC54A30EE410ADDED190AC2
:101B0000DDED121A39EE488A32EE001A34EE435AED
:101B10008EED038A81ED037A20EE816A21EE857ACB
:101B200020EE855A21EE811A3AEE0BAA72EEA72A10
:101B300036EE076A35EE411A8EED02AAC1ED022A91
:101B400080ED026A80ED031A1F9833EE041A0344F5
:101B50001E989DED1B4A9DED145A32EE400A8342B9
:101B60000F9824EE002A25EE013A24EE011A25EE04
:101B7000000A32EE032A31EE400A844482ED022A42
:101B800082ED030AFFF4C6AE089D0698079E013554
:101B9000099C854206F10806FFF444AE0298C00095
:101BA00002901F983F2806981F903FF63FAD20B047
:101BB000BDEC108B01B0BDE8F08F10B578B14FF4DB
:101BC00000710446FFF7B8F850B94FF480602082E6
:101BD00046F6A040C0F202006061002000E0FF2055
:101BE00040B210BD10B568B140210446FFF7A4F81B
:101BF00048B98020208247F6A040C0F20200606110
:101C0000002000E0FF2040B210BD10B578B14FF4C5
:101C100080610446FFF790F850B94FF400602082CD
:101C200047F6A060C0F202006061002000E0FF20E3
:101C300040B210BD10B570B180210446FFF77CF8AA
:101C400050B94FF48070208249F6A060C0F20200C3
:101C50006061002000E0FF2040B210BD10B568B107
:101C600010210446FFF768F848B9202020824AF284
:101C7000A020C0F202006061002000E0FF2040B21E
:101C800010BD10B578B14FF400610446FFF754F869
:101C900050B94FF4805020824AF22030C0F2020046
:101CA0006061002000E0FF2040B210BD10B578B1A7
:101CB0004FF480710446FFF73FF850B94FF40070BD
:101CC00020824EF22030C0F202006061002000E06D
:101CD000FF2040B210BD10B568B120210446FFF7C7
:101CE0002BF848B9402020824EF62030C0F2020086
:101CF0006061002000E0FF2040B210BDF0B581B06F
:101D000014460E46054673B12846314622461F4604
:101D100000F00EF9284621463A46012301B0BDE8FD
:101D2000F040FEF799BF2846314600220123FEF716
:101D300093FF28463146224601B0BDE8F04000F04E
:101D400051B9B1F5007F0ADA7F2916DC202929D0A4
:101D500040293BD141F6D741C0F200010847B1F517
:101D6000006F14DAB1F5007F21D0B1F5806F2DD16D
:101D700041F6BB31C0F20001084780291CD0B1F503
:101D8000807F23D141F63541C0F200010847B1F50B
:101D9000805F16D0B1F5006F18D141F60B41C0F24B
:101DA0000001084741F65D41C0F20001084741F6D5
:101DB000AD41C0F20001084741F6E531C0F2000133
:101DC000084741F68341C0F2000108474FF0FF3059
:101DD0007047000010B52DED028B82B0144601AAA9
:101DE00000F020F89DED018AB5EE408AF1EE10FA80
:101DF00002DA9FED0B0A08E0B0EE480A07F0E4FCB7
:101E0000B4EE400AF1EE10FA05D684ED000A02B0F5
:101E1000BDEC028B10BDB0EE480A07F0D5FCF4E72C
:101E200000000000B0B5022902D29FED400A79E01F
:101E30000023B3EB910F4FEA910C1CD09FED3B1A9E
:101E400021F0030E0446634694ED000A94ED012A46
:101E500094ED023A31EE000A94ED034A30EE020AA4
:101E600030EE030A30EE041A013B04F11004EBD10A
:101E700000EB8E0302E09FED2D1A034611F00305DF
:101E800006D02C46B3EC010A013C31EE001AF9D120
:101E900000EE101AB8EE400A81EE001ABCF1000FF5
:101EA0002CD09FED222A21F0030E014691ED003A3D
:101EB00091ED014A33EE413A23EE033A91ED025A95
:101EC00032EE032A34EE413A23EE033A91ED036AEF
:101ED00032EE032A35EE413A23EE033A32EE032A7C
:101EE00036EE413A23EE033A32EE032ABCF1010CFE
:101EF00001F11001DAD100EB8E0001E09FED0B2A19
:101F000055B100BFB0EC013A013D33EE413A23EE4A
:101F1000033A32EE032AF5D1BFEE001A30EE010A81
:101F200082EE000A82ED000AB0BD00BF0000000092
:101F300080B591ED001A91ED012AD0F814E00088E7
:101F400031EE023AB6EE000A31EE421AB0F1010C5F
:101F500023EE003A21EE001A82ED003A82ED011ADA
:101F600008BF80BD01F1080301EBCC010EF10800B0
:101F70000832043111ED011A91ED002A93ED003A77
:101F800093ED014A90ED005A90ED016A33EE417AEB
:101F900072EE040A67EE051A60EE862A27EE066ADC
:101FA00031EE031A34EE422A25EE205A31EE611A40
:101FB00032EE062A31EE621A32EE452A21EE001A7E
:101FC00022EE002A82ED001A82ED012ABCF1010CFA
:101FD00003F1080300F1080002F10802A1F1080171
:101FE000C8D180BD91ED000A91ED011A03884069C6
:101FF00030EE002A31EE011AA3F1010C32EE013A63
:10200000B6EE000A32EE411A23EE003A21EE001A33
:1020100000F1080301F1080001EBCC0182ED003A68
:1020200082ED011A0832043111ED011A90ED003AE7
:1020300091ED002A90ED014A93ED005A93ED016A6B
:1020400031EE437A72EE040A67EE051A27EE067A3D
:1020500031EE031A34EE422A25EE205A20EE866A2B
:1020600031EE211A32EE072A31EE061A32EE452AF7
:1020700021EE001A22EE002A82ED001A82ED012ADA
:10208000BCF1010C03F1080300F1080002F10802A1
:10209000A1F10801C8D1704770B504000D464FF09A
:1020A000040042D0002D40D0297901293DD81F4E8F
:1020B000B44207D01E48844204D040F23A211DA009
:1020C00001F078F9B44214D128682979C0F31000DE
:1020D00039B1218A01432182618A41EA104161823A
:1020E0000FE0A1890143A181E18941EA1041E18129
:1020F00007E028882979C0F3080031B1218A01431B
:1021000021820022114620340DE0A1890143A181E2
:10211000F7E7C30704D0AB685B5CA354491CC9B2A2
:102120004008521CD2B20028F3D170BD0000044018
:10213000000404402E2E5C6472697665725C7372D2
:10214000635C68633332663436785F6164632E6340
:102150000000000070B504000D464FF004001ED0D2
:102160000F4EB44207D00F48844204D04FF441715F
:102170000DA001F01FF9B44202D1C5F3100001E037
:10218000C5F30800A28A4FEA104142EA0002A28287
:1021900003D1E08A40EA0100E0824FF0000070BD08
:1021A00000000440000404402E2E5C6472697665D1
:1021B000725C7372635C68633332663436785F6175
:1021C00064632E6300000000034931F8CC2FC0F394
:1021D000080002430A8070470000044070B5040004
:1021E0000D464FF0040018D00C48844207D00C482C
:1021F000844204D040F2E1210AA001F0DBF83DB1B5
:10220000681E062804D940F2E22106A001F0D2F8A7
:10221000608865F30A206080002070BD00000440E3
:10222000000404402E2E5C6472697665725C7372E1
:10223000635C68633332663436785F6164632E634F
:102240000000000070B50D46040007D0601E0D2888
:1022500004D940F20E410BA001F0ACF8012D05D0DD
:1022600025B140F20F4107A001F0A4F80D4830F865
:10227000C21F64F303010180818965F3000181813C
:1022800070BD00002E2E5C6472697665725C73729C
:10229000635C68633332663436785F6164632E63EF
:1022A000000000000000044070B504000D464FF02F
:1022B00004005DD0002D5BD02E48844207D02E480C
:1022C000844204D04FF483712CA001F073F8287875
:1022D000022807D0012805D020B140F2071127A01D
:1022E00001F068F8687830B1012804D04FF48471A7
:1022F00022A001F05FF8A878012805D020B140F2B3
:1023000009111EA001F056F8E87850B1012808D054
:10231000022806D0032804D04FF4857117A001F0DD
:1023200049F8287930B1012804D040F20B1113A0EC
:1023300001F040F8002121702A78608862F30510CE
:1023400060806A78608862F3C7106080AA786088CD
:1023500062F386106080EA78608862F30100608032
:102360002A79A08862F38200A08084F847100020B8
:1023700070BD000000000440000404402E2E5C6488
:1023800072697665725C7372635C6863333266345B
:1023900036785F6164632E630000000010B50A4C5C
:1023A00030B101280AD04FF4846108A001F002F88E
:1023B00034F8C00F20F00F00208010BD34F8C00F9B
:1023C00020F00F000E30F7E7000004402E2E5C6472
:1023D00072697665725C7372635C6863333266340B
:1023E00036785F6164632E630000000010B504005E
:1023F0004FF004000DD00748844207D006488442BD
:1024000004D040F2864105A000F0D4FF01202070E6
:10241000002010BD00000440000404402E2E5C6427
:1024200072697665725C7372635C686333326634BA
:1024300036785F6164632E63000000002DE9FF477A
:102440001AA04FF41074006803900020CDE90040FA
:102450008DF8040003A8164F00264FF00208A1468D
:1024600035460290E00704D0A819C0B2414600F0FA
:102470009BF805F101056408EDB2F3D169463846D1
:10248000FFF70AFE07213846FFF7A8FE49463846FF
:10249000FFF760FE01210320FFF7D4FE4020FFF785
:1024A00093FE0120FFF77AFFBDE8FF8714140000B8
:1024B0000000044010B500F05FF8FFF7BFFFBDE873
:1024C000104000F001B8000010B58CB03021684613
:1024D000FDF758FF11210020ADF80010ADF80E10E7
:1024E000ADF80C10214A0121ADF8020001920490D0
:1024F00005908DF828001E4A8DF824108DF82900CB
:102500000292ADF818008DF825108DF82A10ADF85C
:10251000200007908DF826108DF82B008DF82D00E7
:102520008DF82710880303F033FD124C6A46002112
:10253000204600F07BFE0121204600F0F1FD012243
:102540000021204600F0B4FC02220021204600F0C9
:1025500083FD0121480403F01BFD4FF4E0720021CC
:10256000204600F0F3FE0CB010BD00005000044007
:1025700074070020003005401CB5002000908DF845
:10258000000001908DF8010001208DF802008DF807
:102590000300014603F094FD69460248FFF784FEFC
:1025A0001CBD0000000004401CB5034600200C4682
:1025B0000121009001908DF800408DF80400102B4F
:1025C0001FD2DFE803F01B080A0C0E1012141618B5
:1025D0001A1F21232527022110E004210EE00821E3
:1025E0000CE010210AE0202108E0402106E08021D3
:1025F00004E0012002E00120EDE702206A4603F03A
:10260000E3FA1CBD0220E6E70220E6E70220E6E747
:102610000220E6E70220E6E72DE9F0410E461546E6
:102620000746002105F02CF804460121384605F044
:1026300027F8012D04D03146384605F021F801E095
:10264000012C01D001280BD10649002042F2107262
:10265000096801E000BF401CB1FBF2F38342F9D8E6
:10266000BDE8F0810480FF1FF0B500285ED0304A3D
:1026700092F826102F4C01F007032F4F25684FF4D6
:102680000041052B0AD2DFE803F003050705070028
:10269000056021E007601FE001601DE0D2F8001135
:1026A000C1F3C016D2F800110B0FD2F80011C1F31C
:1026B0000824D2F8001101F01F014EB166B1491C87
:1026C000B5FBF1F1641C61435B1CB1FBF3F1E3E783
:1026D000491CB7FBF1F1F5E70168136AC3F3026324
:1026E00021FA03F34360136AC3F3025321FA03F39D
:1026F0008360136A03F0070321FA03F3C360136ACC
:10270000C3F3021321FA03F30361136AC3F3022331
:1027100021FA03F34361136AC3F3023321FA03F38B
:102720008361126AC2F30242D140C161F0BD000070
:10273000004005400080FF1F00127A0010B5040021
:102740000CD0012C0AD0022C08D0032C06D0042C6B
:1027500004D040F2426111A000F02CFE174844B1B1
:10276000012C0BD0022C0ED0032C11D090F841007C
:1027700001E090F83C00C0F3000010BD90F83C0070
:10278000C0F3C00010BD90F83C00C0F3401010BD75
:1027900090F83C00C0F3801010BD00002E2E5C6449
:1027A00072697665725C7372635C68633332663437
:1027B00036785F636C6B2E630000000000400540BC
:1027C000F8B50021214D0C460091B5F8FE134AF2F0
:1027D00001521143A5F8FE1310B3012804D040F2B2
:1027E00043211BA000F0E6FD95F8360020F0010023
:1027F00085F836004FF480560020FFF79FFF0099C0
:10280000491C0091B14201D20128F5D1B5F8FE036F
:1028100020F0010040F42540A5F8FE032046F8BD55
:1028200095F8260040070ED0D5F80001000603D524
:1028300095F82A00C00706D095F8360040F0010050
:1028400085F83600E2E70124E0E70000004005409B
:102850002E2E5C6472697665725C7372635C686369
:102860003332663436785F636C6B2E630000000091
:10287000F8B506004FF000000546009006D0012E86
:1028800004D040F24F311BA000F094FD214CB4F86D
:10289000FE034AF201510843A4F8FE03DEB194F8A6
:1028A0002A0020F0010084F82A004FF4805602200C
:1028B000FFF744FF0099491C0091B14201D2012861
:1028C000F5D1B4F8FE0320F0010040F42540A4F84F
:1028D000FE032846F8BD94F8260000F007000528FE
:1028E00006D094F82A0040F0010084F82A00E8E7B6
:1028F0000125E6E72E2E5C6472697665725C737260
:10290000635C68633332663436785F636C6B2E6366
:10291000000000000040054070B504007ED0206833
:10292000801E0E2804D940F21D3142A000F042FD65
:102930006068401E0F2804D940F21E313DA000F00F
:1029400039FDA068801E0E2804D940F21F3139A03D
:1029500000F030FDE0681438B0F5E67F04D94FF49C
:10296000487134A000F026FD2069401E172804D9C4
:1029700040F221312FA000F01DFD364DD5F80001A9
:10298000000601D4344801E0344800682169E66853
:10299000B0FBF1F03249464308443249884204D939
:1029A0004FF44A7123A000F005FD2F482E49304412
:1029B0004942884204D940F229311EA000F0FAFCB5
:1029C000B5F8FE034AF201510843A5F8FE0320784A
:1029D000D5F80011401E60F31F71C5F80011207971
:1029E000D5F80011401E60F31B61C5F80011207A74
:1029F000D5F80011401E60F31751C5F80011A089E9
:102A0000D5F80011401E60F31021C5F80011207C9C
:102A1000D5F80011401E60F3040100E009E0C5F89C
:102A20000011B5F8FE0320F0010040F42540A5F8A0
:102A3000FE0370BD2E2E5C6472697665725C7372E3
:102A4000635C68633332663436785F636C6B2E6325
:102A5000000000000040054000127A000080FF1FC7
:102A6000C0BDF0FFC0F35E0100E4B1F110B5040099
:102A700006D0012C04D040F2FE210DA000F09AFCFB
:102A80001349B1F8FE034AF201521043A1F8FE03C4
:102A9000D1F8000164F3C710C1F80001B1F8FE03DA
:102AA00020F0010040F42540A1F8FE0310BD000015
:102AB0002E2E5C6472697665725C7372635C686307
:102AC0003332663436785F636C6B2E63000000002F
:102AD0000040054070B586B02D4D4FF00006040053
:102AE00000962868019068680290A8680390E868DA
:102AF000049007D0601E042804D940F2DF3125A0DD
:102B000000F058FC2B4828612B4991F8260000F072
:102B10000700052801D0052C0AD128482860C012DA
:102B20006860A860E8600098401C0090B028FAD364
:102B3000B1F8FE034AF201521043A1F8FE0311F866
:102B4000260F64F302000870B1F8D80320F00100EA
:102B500040F42540A1F8D80300960098401C00904E
:102B6000B028FAD301982860029868600398A8609A
:102B70000498E8600F48401E286100960098401CA9
:102B80000090B028FAD306B0BDE8704004F060B9F8
:102B9000008004402E2E5C6472697665725C7372EC
:102BA000635C68633332663436785F636C6B2E63C4
:102BB000000000000100A5A500400540EEFAFFFF5F
:102BC00070B586B0424D4FF00006040000962868AC
:102BD000019068680290A8680390E86804903D48F6
:102BE000286172D02178E27891421BD863799942AA
:102BF00018D8A079814215D8A178914212D899426B
:102C000010D82279111A032911D002290FD00129D5
:102C10000DD082420BD0801A012808D0022806D09D
:102C2000032804D040F23E412BA000F0C3FB324900
:102C300091F8260000F0070005280AD12F482860E7
:102C4000C0126860A860E8600098401C0090B0283E
:102C5000FAD3B1F8FE034AF201521043A1F8FE0381
:102C6000A078E278637940EA02102279120242EAFF
:102C700003321043A27940EA0240627840EA0252ED
:102C8000207842EA006242EA00700862B1F8FE036E
:102C900020F0010040F42540A1F8FE0300960098C2
:102CA000401C0090B028FAD3019828600298686010
:102CB0000398A8600498E8600648401E28610096C2
:102CC0000098401C0090B028FAD306B070BD0000F8
:102CD000008004400100A5A52E2E5C647269766513
:102CE000725C7372635C68633332663436785F6338
:102CF0006C6B2E630000000000400540EEFAFFFF01
:102D000070B50646604814460D46864207D05F48B7
:102D1000864204D040F273615DA000F04BFB55B1D8
:102D2000012D08D0022D06D0032D04D040F274618D
:102D300057A000F03FFB207840B1012806D00228C0
:102D400004D040F2756152A000F034FB607840B1CD
:102D5000012806D0022804D040F276614CA000F091
:102D600029FBA07830B1012804D040F2776148A057
:102D700000F020FBE07830B1012804D04FF4CF619F
:102D800043A000F017FB207930B1012804D040F2B5
:102D900079613FA000F00EFB607930B1012804D0CA
:102DA00040F27A613AA000F005FBA07940B1012819
:102DB00006D0022804D040F27B6135A000F0FAFA78
:102DC000E07930B1012804D040F27C6130A000F0FD
:102DD000F1FA207A30B1012804D040F27D612CA0B4
:102DE00000F0E8FA607A30B1012804D040F27E6148
:102DF00027A000F0DFFA06EB8510C16D227821F0E4
:102E000003011143C165C16D627821F00C0141EAF3
:102E10008201C165C16DA27821F0100141EA021161
:102E2000C165C16DE27821F0200141EA4211C1651E
:102E3000C16D227921F0400141EA8211C165C16D65
:102E4000627921F0800141EAC211C165C16DA279A8
:102E500021F4407141EA0221C165C16DE27921F49A
:102E6000806141EA8221C165C16D227A21F400614D
:102E700041EAC221C165C16D627A21F4805141EA03
:102E80000231C16570BD00000030054000340540CE
:102E90002E2E5C6472697665725C7372635C686323
:102EA0003332663436785F646D61632E63000000F0
:102EB0002DE9F04704465D48002617460D4684423A
:102EC00007D05B48844204D040F29A2159A000F018
:102ED00071FA55B1012D08D0022D06D0032D04D072
:102EE00040F29B2153A000F065FA37B1012F04D0C6
:102EF0004FF427714FA000F05DFA5649087810B1E1
:102F00000120BDE8F08701230B70E069AB409843D6
:102F10004FF0000279D0E0694FF00A0CC0074FF47F
:102F2000A04917D0B5B1A06CD4F86880000CBCEBF8
:102F3000184F0FD3D4F86880B0EB184F0AD9484621
:102F4000D4F81C805FEAC87804D0761CB6B28642FA
:102F5000F6D956E0E06980071AD5012D18D0D4F8CB
:102F60008800D4F8A860000CBCEB164F10D3D4F83E
:102F7000A860B0EB164F0BD900204E4603E0401C72
:102F800080B2B0423DD8D4F81C805FEA8878F6D48D
:102F9000E06940071AD5022D18D0D4F8C860002087
:102FA000D4F8E880360CBCEB184F0FD3D4F8E88087
:102FB000B6EB184F0AD94E46D4F81C805FEA487821
:102FC00004D5401C80B2B042F6D91AE0E06900078F
:102FD0001BD5032D19D0D4F808510020D4F828614E
:102FE0002D0CBCEB164F10D3D4F82861B5EB164F5F
:102FF0000BD94D46E669360707D5401C80B2A8427A
:10300000F8D90A7009207CE7FFE737B1012F09D111
:10301000E06903F00F03184303E0E0690F259D43C7
:103020002840E0610A7000206BE700000030054096
:10303000003405402E2E5C6472697665725C737292
:10304000635C68633332663436785F646D61632E27
:1030500063000000D480FF1F2DE9F041054626489B
:10306000002716460C46854207D02448854204D0E6
:1030700040F2612122A000F09DF954B1012C08D04A
:10308000022C06D0032C04D040F262211CA000F0D8
:1030900091F956B1012E08D0022E06D0032E04D08D
:1030A00040F2632116A000F085F92CB1012C03D069
:1030B000022C01D0032C0BD10120A04066B10121CC
:1030C0001034A140012E0BD0022E0DD0032E0FD0B4
:1030D00004273846BDE8F081696901436961F8E772
:1030E000686908436861F4E7A9690143A961F0E7E9
:1030F000A8690843A861ECE70030054000340540AA
:103100002E2E5C6472697665725C7372635C6863B0
:103110003332663436785F646D61632E630000007D
:1031200070B504460C480D46844207D00B488442D3
:1031300004D040F295110AA000F03CF935B1012D00
:1031400004D04FF4CB7106A000F034F9206865F389
:103150000000206070BD00000030054000340540D4
:103160002E2E5C6472697665725C7372635C686350
:103170003332663436785F646D61632E630000001D
:1031800070B505461F4816460C46854207D01E48B6
:10319000854204D040F22B211CA000F00BF954B161
:1031A000012C08D0022C06D0032C04D04FF40B7154
:1031B00016A000F0FFF856B1012E08D0022E06D05E
:1031C000032E04D040F22D2110A000F0F3F80121CD
:1031D000A1404EB101221034A240012E06D0022E91
:1031E00006D0032E0CD106E0686802E0686803E0B0
:1031F000A868084001E0A868104008B1012070BD2F
:10320000002070BD00300540003405402E2E5C6467
:1032100072697665725C7372635C686333326634BC
:1032200036785F646D61632E6300000070B50646FA
:103230003B4814460D46864207D03A48864204D0A1
:1032400040F2B46138A000F0B5F855B1012D08D0B6
:10325000022D06D0032D04D040F2B56132A000F05B
:10326000A9F82088800A04D040F2B6612EA000F0B0
:10327000A1F8A089800A04D04FF4D7612AA000F0F9
:1032800099F8E089800A04D040F2B96126A000F0E4
:1032900091F801213046FFF743FF06EB8513D86D07
:1032A00020F48050D86560681864A0685864986CF1
:1032B00021886FF30900084398646188986C61F372
:1032C0001F409864D86CA1896FF309000843D86443
:1032D000D86C1D490840E18940EA0140D864186D66
:1032E00061696FF3130008431865218B186D61F352
:1032F0001F501865586DE1696FF313000843586556
:10330000218C586D61F31F5058652069986504F150
:10331000240229463046BDE87040FFF7F1BC0000AA
:1033200000300540003405402E2E5C6472697665DD
:10333000725C7372635C68633332663436785F64E0
:103340006D61632E63000000FFFF00FC2DE9F0417A
:103350000D4E0E4F154688460446B04206D0BC427C
:1033600004D040F234610AA000F024F81049B442BD
:1033700001EB880003D1C0F81458BDE8F081BC42CD
:10338000FBD1C0F82458F8E7003005400034054070
:103390002E2E5C6472697665725C7372635C68631E
:1033A0003332663436785F646D61632E63000000EB
:1033B0000000014010B50A46014602A005F0DAF807
:1033C000FEE7000057726F6E6720706172616D6575
:1033D000746572732076616C75653A2066696C65F8
:1033E000202573206F6E206C696E652025640D0AA0
:1033F0000000000010B5AFF3008010BD0249486026
:1034000008684006FCD570470010024003490022BE
:103410004A604A688242FCD370470000D880FF1F90
:1034200010B5084C28B1012807D0DA2106A0FFF713
:10343000C1FF206840F0010002E0206820F0010098
:10344000206010BD040401402E2E5C647269766514
:10345000725C7372635C68633332663436785F65BE
:10346000666D2E630000000010B50446012811D0DF
:10347000022C0FD0042C0DD0082C0BD0102C09D00E
:10348000202C07D0B4F5807F04D04FF4DA7104A06B
:10349000FFF790FF0A480068204000D0012010BDCF
:1034A0002E2E5C6472697665725C7372635C68630D
:1034B0003332663436785F65666D2E630000000037
:1034C0001004014010B5040006D0012C04D040F2D5
:1034D0000F1104A0FFF76EFF0A48016864F3104162
:1034E000016010BD2E2E5C6472697665725C737229
:1034F000635C68633332663436785F65666D2E636D
:10350000000000000804014004480168012903D1BB
:1035100043F2102101600160704700000004014087
:1035200010B5040021D0012C1FD0022C1DD0032C7B
:103530001BD0042C19D0052C17D0062C15D0072C25
:1035400013D0082C11D0092C0FD00A2C0DD00B2C25
:103550000BD00C2C09D00D2C07D00E2C05D00F2C25
:1035600003D0FB2104A0FFF725FF0B48016864F39B
:103570000711016010BD00002E2E5C647269766533
:10358000725C7372635C68633332663436785F658D
:10359000666D2E630000000008040140034840F2FD
:1035A0002311016043F210210160704700040140C3
:1035B000006970470021016141688160C160704706
:1035C00070B5002421E00369002B20D04668C5684F
:1035D000AE1BB3EB660F04D90668F31A05EB430381
:1035E00001E0A5EB430383601B8821F8023B83685D
:1035F0009B1C836005696D1E0561D0E9006505EBC4
:1036000046069E4200D88560641C9442DBD370BDA0
:1036100070B5002316E004680569641EA54213D83E
:10362000C56831F8024B2C80C468A41CC4600569CD
:103630006D1C0561D0E9006505EB4606A64200D881
:10364000C5605B1C9342E6D370BD03B5012201A99E
:10365000FFF7DEFF0CBD00002DE9F14F2DED0A0B49
:1036600045F2981706464FF4805529462DED108BEC
:10367000ADF5A44D6F44B0EE43DAF0EE63DAB0EE90
:1036800041FAF0EE61FA3846FEF75BFB4FF00009B5
:103690004846DFEDFDEAFD49FD4CB0EE6ECAF0EEA6
:1036A0004CCAB0EE4CEA36F9102000EE102A01EBBD
:1036B0008002B8EEC00AD2ED000A04EB8002401C82
:1036C00020EE200A80B2A84282ED000AEBD300234C
:1036D000F04AEF493846FEF711FB2A46EE49ED481D
:1036E000FDF74EFE00209FEDED0AEB4A4FF4006619
:1036F00002EB8001401CD1ED000A80B2B04260EEC6
:10370000800AC1ED000AF3D30020B0EE000A02EBFC
:103710008001401CD1ED010A80B2B04260EE800A07
:10372000C1ED010AF3D3DE4D002002EB800191EDE3
:10373000000A05EB8001401C80B281ED000AB04216
:10374000F3D3DFF860A3DAF80000FCF744FE41ECA5
:10375000120B04ABCE4A9FEDD41B9FEDD50B314627
:10376000CF4808F0FFFE049881B2002009E004EB86
:10377000800292ED000A05EB8002401C82ED000AF7
:1037800080B28842F3D3CC4A00204FF4487305EB53
:10379000800191ED000AA2EB800101F54061401C1F
:1037A00080B281ED1F0A9842F1D3002005EB800121
:1037B000401C91ED000A01F5406180B281ED200AC4
:1037C0009842F3D3002002EB800191ED000A05EB53
:1037D0008001401C80B281ED000A9842F3D30020A2
:1037E0004FF4C86605EB800191ED000AB4EEEC0AD7
:1037F000F1EE10FA01DDF0EE40CA401C80B2B0429A
:10380000F0D300249FEDADAB41F658776F4405EB44
:103810008400B0EE4A0AD0ED00BAF0EE6A0A04F075
:10382000C7FFB0EE409AF0EE609A1CEE900AFCF7EB
:10383000C4FF41EC180BB0EEEB0A10EE100AFCF7D7
:10384000BCFF53EC182BFCF704FF9FED9EBB53EC21
:103850001B2BFCF7E5FD41EC100B04F0A9FF53EC2A
:103860001A2B51EC100BFCF782FE53EC192BFCF7D2
:10387000F0FEFCF7E5FF47F82400641CA4B2B44254
:10388000C5D343F658046C440DF5A041009491ED66
:10389000942B91ED900B02AB06AAB0EE4F1AF0EE0E
:1038A0006F1A31467E4806F0CFFE0398A04685B2D7
:1038B00000200CE008EB800191ED000AB4EECC0A88
:1038C000F1EE10FA01DDB0EE40CA401C80B2A84211
:1038D000F0D3002434E008EB8406B0EE4A0AD6EDBB
:1038E00000CAF0EE6A0A04F063FFB0EE409AF0EE10
:1038F000609A1CEE100AFCF760FF41EC180BB0EE6A
:10390000EC0A10EE100AFCF758FF53EC182BFCF7EA
:10391000A0FE53EC1B2BFCF783FD41EC100B04F0D5
:1039200047FF53EC1A2B51EC100BFCF720FE53EC25
:10393000192BFCF78EFEFCF783FF641CA4B23060E9
:10394000AC42C8D340F21F349FED599B9FED5F0BF3
:103950000DF5A04292ED981B53EC102B51EC110B7E
:10396000FCF75EFD83460091FFE00DF5A04153ECAE
:103970001F2B91ED900B51EC100BFCF751FD9FEDBF
:10398000551B53EC112BFCF7F2FD41EC100B46ECF0
:10399000115B53EC102B51EC110BFCF7E2FDFCF723
:1039A000F3FE80B207EB840108EB8000D1ED008AC2
:1039B00090ED000A38EEC08AB4EECE8AF1EE10FA2D
:1039C00001DDB0EE48EA10EE100AFCF7F6FE53EC0B
:1039D0001D2BFCF725FD41EC1A0B18EE900AFCF7A5
:1039E000ECFE53EC1A2BFCF713FF4CD24FF00109FD
:1039F00018EE100AFCF7E1FE41EC100B45F25814EA
:103A00006C448DED00DB53EC102B34A1204604F008
:103A1000C1FD22463DA1002002F0F9FC3C4800789F
:103A200080BB9FED3C0AF5EE000A3B4D28EE000AF4
:103A3000F6EE008A544620EE200A85ED000ADAED03
:103A4000030AB4EE600AF1EE10FA10D0B2EE041AD6
:103A5000F0EE680AAA2040EE010ABDEEE00A10EE80
:103A6000101A08F043FC95ED000A84ED030A642067
:103A7000FFF7CCFC94ED010AB4EE408AF1EE10FAA7
:103A800000D04BE08BE06EE00000000070D600003C
:103A9000183400201874002018B400200000803969
:103AA00098070020E480FF1F000000000000004095
:103AB00000000000000030409827002000000000B7
:103AC00000002440000000000000F03F0000000063
:103AD00000004940000000000000E03F6672657190
:103AE00020646F6D61696E20636661722074726913
:103AF000676765722076616C75653A20252E336C98
:103B0000662D252E336C660D0A000000257300001B
:103B10000A80FF1F00007042C480FF1F9FED240A2F
:103B2000A32048EE008ABDEEE80A10EE101A08F055
:103B3000DDFB204884ED018A0068012804D0B0EE46
:103B40006E0A84ED020A2AE094ED020AB4EEC80A75
:103B5000F1EE10FA01D284ED028A174894ED020AC0
:103B600080ED000A1BE0641CA4B2009953EC192BF1
:103B700041EC10BB51EC100BFCF7F9FC41EC180BBD
:103B80002046FCF7D5FD0E4646EC100B054653ECDF
:103B9000182B51EC100BFCF723FEFFF4E6AE0DF5ED
:103BA000A44D4846BDEC108B0BB0BDE8F08F000073
:103BB00000007A447080FF1F8080FF1F10B5AFF3B4
:103BC000008010BD02480068002800D00047704700
:103BD0007405002002484068002800D00047704764
:103BE0007405002002488068002800D00047704714
:103BF000740500200248C068002800D000477047C4
:103C00007405002002480069002800D00047704772
:103C10007405002002484069002800D00047704722
:103C20007405002002488069002800D000477047D2
:103C3000740500200248C069002800D00047704782
:103C4000740500200248006A002800D00047704731
:103C5000740500200248406A002800D000477047E1
:103C6000740500200248806A002800D00047704791
:103C7000740500200248C06A002800D00047704741
:103C8000740500200248006B002800D000477047F0
:103C9000740500200248406B002800D000477047A0
:103CA000740500200248806B002800D00047704750
:103CB000740500200248C06B002800D00047704700
:103CC000740500200248006C002800D000477047AF
:103CD000740500200248406C002800D0004770475F
:103CE000740500200248806C002800D0004770470F
:103CF000740500200248C06C002800D000477047BF
:103D0000740500200248006D002800D0004770476D
:103D1000740500200248406D002800D0004770471D
:103D2000740500200248806D002800D000477047CD
:103D3000740500200248C06D002800D0004770477D
:103D4000740500200248006E002800D0004770472C
:103D5000740500200248406E002800D000477047DC
:103D6000740500200248806E002800D0004770478C
:103D7000740500200248C06E002800D0004770473C
:103D8000740500200248006F002800D000477047EB
:103D9000740500200248406F002800D0004770479B
:103DA000740500200248806F002800D0004770474B
:103DB000740500200248C06F002800D000477047FB
:103DC000740500200348D0F88000002800D0004788
:103DD00070470000740500200348D0F884000028D4
:103DE00000D0004770470000740500200348D0F859
:103DF0008800002800D000477047000074050020AC
:103E00000348D0F88C00002800D00047704700001D
:103E1000740500200348D0F89000002800D0004727
:103E200070470000740500200348D0F89400002873
:103E300000D0004770470000740500200348D0F808
:103E40009800002800D0004770470000740500204B
:103E50000348D0F89C00002800D0004770470000BD
:103E6000740500200348D0F8A000002800D00047C7
:103E700070470000740500200348D0F8A400002813
:103E800000D0004770470000740500200348D0F8B8
:103E9000A800002800D000477047000074050020EB
:103EA0000348D0F8AC00002800D00047704700005D
:103EB000740500200348D0F8B000002800D0004767
:103EC00070470000740500200348D0F8B4000028B3
:103ED00000D0004770470000740500200348D0F868
:103EE000B800002800D0004770470000740500208B
:103EF0000348D0F8BC00002800D0004770470000FD
:103F0000740500200348D0F8C000002800D0004706
:103F100070470000740500200348D0F8C400002852
:103F200000D0004770470000740500200348D0F817
:103F3000C800002800D0004770470000740500202A
:103F40000348D0F8CC00002800D00047704700009C
:103F5000740500200348D0F8D000002800D00047A6
:103F600070470000740500200348D0F8D4000028F2
:103F700000D0004770470000740500200348D0F8C7
:103F8000D800002800D000477047000074050020CA
:103F90000348D0F8DC00002800D00047704700003C
:103FA000740500200348D0F8E000002800D0004746
:103FB00070470000740500200348D0F8E400002892
:103FC00000D0004770470000740500200348D0F877
:103FD000E800002800D0004770470000740500206A
:103FE0000348D0F8EC00002800D0004770470000DC
:103FF000740500200348D0F8F000002800D00047E6
:1040000070470000740500200348D0F8F400002831
:1040100000D0004770470000740500200348D0F826
:10402000F800002800D00047704700007405002009
:104030000348D0F8FC00002800D00047704700007B
:10404000740500200348D0F80001002800D0004784
:1040500070470000740500200348D0F804010028D0
:1040600000D0004770470000740500200348D0F8D6
:104070000801002800D000477047000074050020A8
:104080000348D0F80C01002800D00047704700001A
:10409000740500200348D0F81001002800D0004724
:1040A00070470000740500200348D0F81401002870
:1040B00000D0004770470000740500200348D0F886
:1040C0001801002800D00047704700007405002048
:1040D0000348D0F81C01002800D0004770470000BA
:1040E000740500200348D0F82001002800D00047C4
:1040F00070470000740500200348D0F82401002810
:1041000000D0004770470000740500200348D0F835
:104110002801002800D000477047000074050020E7
:104120000348D0F82C01002800D000477047000059
:10413000740500200348D0F83001002800D0004763
:1041400070470000740500200348D0F834010028AF
:1041500000D0004770470000740500200348D0F8E5
:104160003801002800D00047704700007405002087
:104170000348D0F83C01002800D0004770470000F9
:10418000740500200348D0F84001002800D0004703
:1041900070470000740500200348D0F8440100284F
:1041A00000D0004770470000740500200348D0F895
:1041B0004801002800D00047704700007405002027
:1041C0000348D0F84C01002800D000477047000099
:1041D000740500200348D0F85001002800D00047A3
:1041E00070470000740500200348D0F854010028EF
:1041F00000D0004770470000740500200348D0F845
:104200005801002800D000477047000074050020C6
:104210000348D0F85C01002800D000477047000038
:10422000740500200348D0F86001002800D0004742
:1042300070470000740500200348D0F8640100288E
:1042400000D0004770470000740500200348D0F8F4
:104250006801002800D00047704700007405002066
:104260000348D0F86C01002800D0004770470000D8
:10427000740500200348D0F87001002800D00047E2
:1042800070470000740500200348D0F8740100282E
:1042900000D0004770470000740500200348D0F8A4
:1042A0007801002800D00047704700007405002006
:1042B0000348D0F87C01002800D000477047000078
:1042C000740500200348D0F88001002800D0004782
:1042D00070470000740500200348D0F884010028CE
:1042E00000D0004770470000740500200348D0F854
:1042F0008801002800D000477047000074050020A6
:104300000348D0F88C01002800D000477047000017
:10431000740500200348D0F89001002800D0004721
:1043200070470000740500200348D0F8940100286D
:1043300000D0004770470000740500200348D0F803
:104340009801002800D00047704700007405002045
:104350000348D0F89C01002800D0004770470000B7
:10436000740500200348D0F8A001002800D00047C1
:1043700070470000740500200348D0F8A40100280D
:1043800000D0004770470000740500200348D0F8B3
:10439000A801002800D000477047000074050020E5
:1043A0000348D0F8AC01002800D000477047000057
:1043B000740500200348D0F8B001002800D0004761
:1043C00070470000740500200348D0F8B4010028AD
:1043D00000D0004770470000740500200348D0F863
:1043E000B801002800D00047704700007405002085
:1043F0000348D0F8BC01002800D0004770470000F7
:10440000740500200348D0F8C001002800D0004700
:1044100070470000740500200348D0F8C40100284C
:1044200000D0004770470000740500200348D0F812
:10443000C801002800D00047704700007405002024
:104440000348D0F8CC01002800D000477047000096
:10445000740500200348D0F8D001002800D00047A0
:1044600070470000740500200348D0F8D4010028EC
:1044700000D0004770470000740500200348D0F8C2
:10448000D801002800D000477047000074050020C4
:104490000348D0F8DC01002800D000477047000036
:1044A000740500200348D0F8E001002800D0004740
:1044B00070470000740500200348D0F8E40100288C
:1044C00000D0004770470000740500200348D0F872
:1044D000E801002800D00047704700007405002064
:1044E0000348D0F8EC01002800D0004770470000D6
:1044F000740500200348D0F8F001002800D00047E0
:1045000070470000740500200348D0F8F40100282B
:1045100000D0004770470000740500200348D0F821
:10452000F801002800D00047704700007405002003
:104530000348D0F8FC01002800D000477047000075
:1045400074050020494810B5D0F85C42484800681E
:10455000012803D1E00701D0AFF300804448001DDB
:104560000068012803D1A00701D5AFF300804048BF
:1045700008300068012803D1600701D5AFF300803F
:104580003B480C300068012803D1200701D5AFF368
:104590000080374810300068012803D1E00601D5BB
:1045A000AFF30080324814300068012803D1A00620
:1045B00001D5AFF300802E4818300068012803D1E0
:1045C000600601D5AFF3008029481C30006801283F
:1045D00003D1200601D5AFF30080254820300068C4
:1045E000012803D1E00501D5AFF300802048243035
:1045F0000068012803D1A00501D5AFF300801C4855
:1046000028300068012803D1600501D5AFF3008090
:1046100017482C300068012803D1200501D5AFF3DD
:104620000080134830300068012803D1E00401D530
:10463000AFF300800E4834300068012803D1A00495
:1046400001D5AFF300800A4838300068012803D153
:10465000600401D5AFF3008005483C3000680128B4
:1046600003D1200401D5AFF3008010BD0010054038
:10467000800AA2422DE9F05FD448D0F86042D448C5
:104680000068D44ED44D012822D1D5F8000238B9A3
:10469000D5F80001012803D1E00701D0AFF3008075
:1046A000D5F8400238B9D5F84001012803D1E0051A
:1046B00001D5AFF300807068F26800F001114FF08F
:1046C00001109043014203D0E00301D5AFF3008015
:1046D000C248D0F8B0034FF0021A012821D1D5F812
:1046E000040238B9D5F80401012803D1A00701D587
:1046F000AFF30080D5F8440238B9D5F84401012859
:1047000003D1A00501D5AFF300807068F26800F016
:1047100002112AEA0200014203D0E00301D5AFF3FF
:104720000080AF4800684FF0041B012821D1D5F864
:10473000080238B9D5F80801012803D1600701D56E
:10474000AFF30080D5F8480238B9D5F84801012800
:1047500003D1600501D5AFF300807068F26800F006
:1047600004112BEA0200014203D0E00301D5AFF3AC
:1047700000809C48D0F8B0034FF00819012821D1DF
:10478000D5F80C0238B9D5F80C01012803D120075F
:1047900001D5AFF30080D5F84C0238B9D5F84C01FB
:1047A000012803D1200501D5AFF300807068F268BD
:1047B00000F0081129EA0200014203D0E00301D50C
:1047C000AFF3008088480068DFF82082874F884E6A
:1047D00008F10808012823D1D6F8000238B9D6F824
:1047E0000001012803D1E00601D5AFF30080D6F81F
:1047F000400238B9D6F84001012803D1E00401D5C0
:10480000AFF300803868D8F8002000F001114FF0B5
:1048100001109043014203D0A00301D5AFF3008003
:104820007448D0F8B003012822D1D6F8040238B970
:10483000D6F80401012803D1A00601D5AFF300800A
:10484000D6F8440238B9D5F84401012803D1A004B0
:1048500001D5AFF300803868D8F8002000F00211CD
:104860002AEA0200014203D0A00301D5AFF3008081
:1048700061480068012822D1D6F8080238B9D6F874
:104880000801012803D1600601D5AFF30080D6F8F6
:10489000480238B9D5F84801012803D1600401D590
:1048A000AFF300803868D8F8002000F004112BEA3C
:1048B0000200014203D0A00301D5AFF300804F48AE
:1048C000D0F8B003012822D1D6F80C0238B9D6F8B6
:1048D0000C01012803D1200601D5AFF30080D6F8E2
:1048E0004C0238B9D5F84C01012803D1200401D578
:1048F000AFF300803868D8F8002000F0081129EAEA
:104900000200014203D0A00301D5AFF300803C4D6B
:10491000D5F80003012807D13A480068000703D002
:10492000600301D5AFF30080D5F80803012807D153
:10493000D5F81402012803D1200301D5AFF300807C
:10494000D5F80403012807D1D5F81002012803D1B6
:10495000E00201D5AFF300804FF01C40C0680006B4
:1049600003D5600201D5AFF3008027498869496803
:104970000840400603D0200201D5AFF30080234851
:1049800000682249143909680840400603D0E00154
:1049900001D5AFF300801E4800681D49143909682D
:1049A0000840400603D0A00101D5AFF300801948AC
:1049B00000681849143909680840400603D06001AE
:1049C00001D5AFF30080BDE8F09F00000010054066
:1049D000B00BA642003005400000A6420010A642DF
:1049E000B01BA6420020A642B08BA642043405406C
:1049F0000080A6420090A642B09BA64200A0A6421C
:104A00000080204210040140002005401824054089
:104A100018280540182C054070B52A48D0F8644283
:104A2000294DD5F80802012807D1D5F880020128C0
:104A300003D1E00701D0AFF30080D5F84802012888
:104A400007D1D5F8C002012803D1A00701D5AFF3E3
:104A500000801E4DD5F80802012807D1D5F8800244
:104A6000012803D1600701D5AFF30080D5F84802D3
:104A7000012807D1D5F8C002012803D1200701D5AC
:104A8000AFF3008012480068012808D11048203098
:104A90000068012803D1A00201D5AFF300800D48C2
:104AA000006B012803D1600201D5AFF300800A48F2
:104AB000006810F4403F03D0200201D5AFF300801E
:104AC00070BD0000001005400000484200804842D0
:104AD0000008A84200809842049404402DE9F04167
:104AE0009A48D0F868429A480068012807D1994846
:104AF0000068012803D1E00701D0AFF3008094489B
:104B0000001D0068012808D19248001D0068012896
:104B100003D1A00701D5AFF300808D4808300068AD
:104B2000012808D18B4808300068012803D16007AC
:104B300001D5AFF3008086480C300068012808D109
:104B400084480C300068012803D1200701D5AFF359
:104B500000807F4810300068012808D17D4810305F
:104B60000068012803D1E00601D5AFF30080784842
:104B700014300068012808D17648143000680128F4
:104B800003D1A00601D5AFF300807148183000684A
:104B9000012808D16F4818300068012803D1600649
:104BA00001D5AFF300806A481C300068012808D1A5
:104BB00068481C300068012803D1200601D5AFF3F6
:104BC0000080634820300068012808D16148203007
:104BD0000068012803D1E00501D5AFF300805E4EE7
:104BE000706D4FF4C067316F07EAD01001F4C061F7
:104BF000084203D0200501D5AFF30080706D4FF45B
:104C0000C055316F05EAD01001F4C051084203D0FD
:104C1000E00401D5AFF3008050480068012807D1B7
:104C20004F480068012803D1E00301D5AFF30080AD
:104C30004A48001D0068012808D14948001D006845
:104C4000012803D1A00301D5AFF300804348083009
:104C50000068012808D1424808300068012803D1C3
:104C6000600301D5AFF300803C480C300068012898
:104C700008D13B480C300068012803D1200301D53E
:104C8000AFF30080354810300068012808D134485F
:104C900010300068012803D1E00201D5AFF3008095
:104CA0002E4814300068012808D12D4814300068BF
:104CB000012803D1A00201D5AFF3008027481830A6
:104CC0000068012808D1264818300068012803D15F
:104CD000600201D5AFF3008020481C300068012835
:104CE00008D11F481C300068012803D1200201D5DB
:104CF000AFF30080194820300068012808D1184817
:104D000020300068012803D1E00101D5AFF3008015
:104D1000144E306807EAD010124F1C37396801F47E
:104D2000C061084203D0200101D5AFF30080306894
:104D3000396805EAD01001F4C051084203D0E00000
:104D400001D5AFF30080BDE8F08100000010054000
:104D5000800A3042000E304200800140808A30429A
:104D6000008E30425484014070B54F48D0F86C42F8
:104D70004E480068012807D14D480068012803D13A
:104D8000E00701D0AFF300804848001D006801280B
:104D900008D14748001D0068012803D1A00701D5AC
:104DA000AFF30080414808300068012808D140482E
:104DB00008300068012803D1600701D5AFF30080F7
:104DC0003A480C300068012808D139480C30006896
:104DD000012803D1200701D5AFF3008033481030FC
:104DE0000068012808D1324810300068012803D13A
:104DF000E00601D5AFF300802C481430006801288C
:104E000008D12B4814300068012803D1A00601D531
:104E1000AFF30080254818300068012808D12448E5
:104E200018300068012803D1600601D5AFF3008077
:104E30001E481C300068012808D11D481C3000683D
:104E4000012803D1200601D5AFF300801748203098
:104E50000068012808D1164820300068012803D1D5
:104E6000E00501D5AFF30080124E3068114D4FF4CC
:104E7000C0611C3501EAD010296801F4C061084204
:104E800003D0200501D5AFF3008030684FF4C05146
:104E900001EAD010296801F4C051084203D0E004AF
:104EA00001D5AFF3008070BD00100540800A31428B
:104EB000000E3142548801402DE9F0419248D0F86B
:104EC0007C42924ED6F88050E80405D5680403D59C
:104ED000E00701D0AFF30080A80405D5280403D56E
:104EE000A00701D5AFF3008056F8900FF168084095
:104EF00010F0FF0F03D0600701D5AFF300808448A6
:104F00000568E80405D5680403D5200701D5AFF38B
:104F10000080A80405D5280403D5E00601D5AFF329
:104F200000807B481030006879491C3109680840CE
:104F300010F0FF0F03D0A00601D5AFF30080754835
:104F40000568E80405D5680403D5600601D5AFF30C
:104F50000080A80405D5280403D5200601D5AFF3A9
:104F600000806C48103000686A491C3109680840AC
:104F700010F0FF0F03D0E00501D5AFF300806648C5
:104F80000568E80405D5680403D5A00501D5AFF38D
:104F90000080A80405D5280403D5600501D5AFF32A
:104FA00000805D48103000685B491C31096808408A
:104FB00010F0FF0F03D0200501D5AFF30080574E4E
:104FC000D6F88050E80405D5680403D5E00401D57F
:104FD000AFF30080A80405D5280403D5A00401D5AB
:104FE000AFF3008056F8900FF168084010F0FF0F03
:104FF00003D0600401D5AFF3008049480568E80498
:1050000005D5680403D5E00301D5AFF30080A804FB
:1050100005D5280403D5A00301D5AFF3008040488F
:10502000103000683E491C310968084010F0FF0F3D
:1050300003D0600301D5AFF300804FF08740D0F874
:10504000000101280BD137498869374A4969104066
:105050001140084203D0200301D5AFF3008033484C
:105060000668C568A80606D516F00B0F03D06002C7
:1050700001D5AFF3008005EA0607B80603D5200284
:1050800001D5AFF30080380603D5E00101D5AFF3B9
:105090000080780603D5A00101D5AFF30080A807F2
:1050A00005D5F00503D5600101D5AFF30080204898
:1050B00006681F480C300568A80606D516F00B0FC9
:1050C00003D0200101D5AFF3008005EA0607B8063A
:1050D00003D5E00001D5AFF30080380603D5A0006A
:1050E00001D5AFF30080780603D5600001D5AFF39A
:1050F0000080A80705D5F00503D5002C01DAAFF331
:105100000080BDE8F0810000001005400050014023
:105110008054014080580140805C014000600140A3
:105120008064014000000C40FBFC7CF700D0014093
:1051300000D401402DE9F0417548D0F8804275480F
:105140000668C568A80606D516F00B0F03D0E00761
:1051500001D0AFF3008005EA0607B80603D5A00723
:1051600001D5AFF30080380603D5600701D5AFF352
:105170000080780603D5200701D5AFF30080A8078B
:1051800005D5F00503D5E00601D5AFF300806248F0
:10519000066861480C300568A80606D516F00B0FA6
:1051A00003D0A00601D5AFF3008005EA0607B806D4
:1051B00003D5600601D5AFF30080380603D520067D
:1051C00001D5AFF30080780603D5E00501D5AFF334
:1051D0000080A80705D5F00503D5A00501D5AFF3DC
:1051E00000804E4845684669680505D5300603D5F8
:1051F000200501D5AFF30080A80505D5B00603D57D
:10520000E00401D5AFF30080280505D5F00703D1F0
:10521000A00401D5AFF30080E80506D516F01D0FF8
:1052200003D0600401D5AFF300803D4805683C48D9
:1052300010300668680505D5300603D5E00301D5B2
:10524000AFF30080A80505D5B00603D5A00301D5AE
:10525000AFF30080280505D5F00703D1600301D521
:10526000AFF30080E80506D516F01D0F03D020032C
:1052700001D5AFF300802B4845684669680505D520
:10528000300603D5A00201D5AFF30080A80505D5EF
:10529000B00603D5600201D5AFF30080280505D51F
:1052A000F00703D1200201D5AFF30080E80506D551
:1052B00016F01D0F03D0E00101D5AFF300801A48AE
:1052C0000568194810300668680505D5300603D50D
:1052D000600101D5AFF30080A80505D5B00603D560
:1052E000200101D5AFF30080280505D5F00703D1D3
:1052F000E00001D5AFF30080E80506D516F01D0FDC
:1053000003D0A00001D5AFF30080BDE8F08100001C
:1053100000100540001002400014024000C001408F
:1053200004C40140000002400404024070B55F481C
:10533000D0F884425E4E358BE00705D0E80603D5F1
:10534000680601D5AFF30080A00705D5A80603D5F0
:10535000280601D5AFF30080B58B600705D5E806B8
:1053600003D5680601D5AFF30080200705D5A80650
:1053700003D5280601D5AFF30080358CE00605D5AE
:10538000E80603D5680601D5AFF30080A00605D571
:10539000A80603D5280601D5AFF30080B6F848501B
:1053A000600605D5E80503D5A80501D5AFF3008053
:1053B000200605D5A80403D5680401D5AFF3008005
:1053C000B6F8A450E00503D5E80601D5AFF3008098
:1053D000A00503D5E80501D5AFF30080600503D52E
:1053E000E80401D5AFF3008032480588E00305D515
:1053F000E80603D5680601D5AFF30080A00305D504
:10540000A80603D5280601D5AFF300802948001D62
:105410000588600305D5E80603D5680601D5AFF316
:105420000080200305D5A80603D5280601D5AFF3D3
:105430000080204808300588E00205D5E80603D53D
:10544000680601D5AFF30080A00205D5A80603D5F4
:10545000280601D5AFF30080164830300588600279
:1054600005D5E80503D5A80501D5AFF300802002D6
:1054700005D5A80403D5680401D5AFF300800D4815
:105480008C300588E00103D5E80601D5AFF3008034
:10549000A00103D5E80501D5AFF30080600103D575
:1054A000E80401D5AFF3008070BD00000010054096
:1054B000007001401848024070B53248D0F8884268
:1054C00031480588E00705D0E80603D5680601D510
:1054D000AFF30080A00705D5A80603D5280601D59F
:1054E000AFF300802848001D0588600705D5E80651
:1054F00003D5680601D5AFF30080200705D5A806BF
:1055000003D5280601D5AFF300801F480830058871
:10551000E00605D5E80603D5680601D5AFF300809F
:10552000A00605D5A80603D5280601D5AFF300804F
:10553000154830300588600605D5E80503D5A8056F
:1055400001D5AFF30080200605D5A80403D5680473
:1055500001D5AFF300800C488C300588E00503D5F9
:10556000E80601D5AFF30080A00503D5E80501D515
:10557000AFF30080600503D5E80401D5AFF30080E8
:1055800070BD000000100540184C024070B5654821
:10559000D0F88C4264480068634900F00F0008317D
:1055A000096801F00F01084203D0600601D5AFF38E
:1055B00000805D48203000685B4900F00F00283112
:1055C000096801F00F01084203D0200601D5AFF3AE
:1055D0000080554840300068534900F00F004831C2
:1055E000096801F00F01084203D0E00501D5AFF3CF
:1055F00000804D48603000684B4900F00F00683172
:10560000096801F00F01084203D0A00501D5AFF3EE
:105610000080464D6868012807D1D5F88000012830
:1056200003D1E00301D5AFF30080E868012807D17A
:10563000D5F88400012803D1A00301D5AFF3008081
:105640002869012807D13A488068800703D06003A1
:1056500001D5AFF30080374D6868012807D1D5F830
:105660008000012803D1200301D5AFF30080E86852
:10567000012807D1D5F88400012803D1E00201D523
:10568000AFF300802869012807D12B480068800704
:1056900003D0A00201D5AFF30080284D686801282F
:1056A00007D1D5F88000012803D1600201D5AFF3FE
:1056B0000080E868012807D1D5F88400012803D1CB
:1056C000200201D5AFF300802869012807D11C48CA
:1056D0008068800703D0E00101D5AFF30080194D49
:1056E0006868012807D1D5F88000012803D1A001FE
:1056F00001D5AFF30080E868012807D1D5F8840010
:10570000012803D1600101D5AFF300802869012889
:1057100007D10D480068800703D0200101D5AFF301
:10572000008070BD001005400C7C014000003C4230
:1057300000E0014000803C4208E401400000444297
:1057400000200240008044420824024070B57048A6
:10575000D0F890426F4DD5F89800012807D1D5F8C0
:105760009803012803D1E00601D5AFF30080D5F8F6
:105770008C00012807D1D5F88C03012803D1A0069D
:1057800001D5AFF30080D5F89C00012807D1D5F8EA
:105790009C03012803D1600601D5AFF300805E4968
:1057A00048685E4EC96930403140084203D0200647
:1057B00001D5AFF300805A4DD5F89800012807D1E4
:1057C000D5F89803012803D1E00501D5AFF3008097
:1057D000D5F88C00012807D1D5F88C03012803D116
:1057E000A00501D5AFF30080D5F89C00012807D1B2
:1057F000D5F89C03012803D1600501D5AFF30080E3
:10580000484800684749304018310968314008422B
:1058100003D0200501D5AFF30080434DD5F89800A3
:10582000012807D1D5F89803012803D1E00401D558
:10583000AFF30080D5F88C00012807D1D5F88C0390
:10584000012803D1A00401D5AFF30080D5F89C0056
:10585000012807D1D5F89C03012803D1600401D5A4
:10586000AFF3008031480068304930401831096892
:105870003140084203D0200401D5AFF300802C4D05
:10588000D5F86002012807D12A480068012803D111
:10589000A00301D5AFF30080D5F87002012808D12C
:1058A000244810300068012803D1600301D5AFF30C
:1058B0000080214DD5F80003012807D1D5F88003D9
:1058C000012803D1E00201D5AFF30080D5F804032D
:1058D000012807D1D5F88403012803D1A00201D5FE
:1058E000AFF30080D5F80803012807D1D5F8880365
:1058F000012803D1600201D5AFF300800F48406852
:1059000010F4403F03D0200201D5AFF3008070BDFA
:105910000010054000009C4200E004401752F000D7
:1059200000809C4204E4044000009D4204E80440DE
:105930000080A842241CA8420080904200900440AD
:105940002DE9F0413548D0F89442354800680128E7
:1059500008D1334820380068012803D1E00701D07E
:10596000AFF300802E48001D0068012808D12C48A4
:105970001C380068012803D1A00701D5AFF30080CF
:105980002848B0F8B050284F3868284E012807D171
:105990003068012800D01DB1600701D5AFF3008049
:1059A0003868012807D13068012800D01DB12007D0
:1059B00001D5AFF300801E480068012808D11C48BB
:1059C00020380068012803D1E00601D5AFF300803C
:1059D0001748001D0068012808D115481C380068C8
:1059E000012803D1A00601D5AFF30080114E306825
:1059F000114D012806D12888C00503D0600601D5C5
:105A0000AFF300803068012806D12888C00503D094
:105A1000200601D5AFF30080BDE8F08100100540FD
:105A2000E00880420000044020148042401680427A
:105A3000E088804220948042B004044070B52D4C30
:105A4000D4F8080340F2F71540F27F16012812D16E
:105A500029480188284808300088274A921C128863
:105A6000254B0A331B880140294202D11A40324299
:105A700001D0AFF30080D4F8140301280CD11F48E3
:105A8000018E038F428E408F1940294202D102407D
:105A9000324201D0AFF30080D4F81803012827D197
:105AA00017480278401E0378801C007814491A3188
:105AB000097802F0010501F020042C4316D11A40A8
:105AC000520813D1C20701D082070FD4420701D573
:105AD00002070BD4C20601D5800607D4080701D5FA
